{
  "contractName": "Acknowledger",
  "abi": [
    {
      "anonymous": false,
      "inputs": [
        {
          "indexed": false,
          "name": "a",
          "type": "uint256"
        }
      ],
      "name": "AcknowledgeFoo",
      "type": "event"
    },
    {
      "anonymous": false,
      "inputs": [
        {
          "indexed": false,
          "name": "a",
          "type": "uint256"
        }
      ],
      "name": "AcknowledgeBarSingle",
      "type": "event"
    },
    {
      "anonymous": false,
      "inputs": [
        {
          "indexed": false,
          "name": "a",
          "type": "uint256"
        },
        {
          "indexed": false,
          "name": "b",
          "type": "uint256"
        }
      ],
      "name": "AcknowledgeBarDouble",
      "type": "event"
    },
    {
      "constant": false,
      "inputs": [
        {
          "name": "a",
          "type": "uint256"
        }
      ],
      "name": "foo",
      "outputs": [],
      "payable": false,
      "stateMutability": "nonpayable",
      "type": "function"
    },
    {
      "constant": false,
      "inputs": [
        {
          "name": "a",
          "type": "uint256"
        }
      ],
      "name": "bar",
      "outputs": [],
      "payable": false,
      "stateMutability": "nonpayable",
      "type": "function"
    },
    {
      "constant": false,
      "inputs": [
        {
          "name": "a",
          "type": "uint256"
        },
        {
          "name": "b",
          "type": "uint256"
        }
      ],
      "name": "bar",
      "outputs": [],
      "payable": false,
      "stateMutability": "nonpayable",
      "type": "function"
    }
  ],
  "bytecode": "0x608060405234801561001057600080fd5b506101d0806100206000396000f300608060405260043610610057576000357c0100000000000000000000000000000000000000000000000000000000900463ffffffff1680630423a1321461005c5780632fbebd3814610089578063ae42e951146100b6575b600080fd5b34801561006857600080fd5b50610087600480360381019080803590602001909291905050506100ed565b005b34801561009557600080fd5b506100b460048036038101908080359060200190929190505050610127565b005b3480156100c257600080fd5b506100eb6004803603810190808035906020019092919080359060200190929190505050610161565b005b7f4de9c09c5ee40bc661dafe1132e59f004daba2595ba3afad6091675ea2408185816040518082815260200191505060405180910390a150565b7f5cf7cc5dbdb5c279977e2fcbb13d851878260bbbcd621e6805ba651b514ecffc816040518082815260200191505060405180910390a150565b7fd7634158629a3003994809e2eaeea6c34ec898d16a4caa76a37e87e308cbe0848282604051808381526020018281526020019250505060405180910390a150505600a165627a7a723058204d951b0e106a3494f82a9abd5fdd8b0cdeafa125ac45d507272371fc92f142650029",
  "source": "pragma solidity ^0.4.24;\r\n\r\ncontract Acknowledger {\r\n    event AcknowledgeFoo(uint256 a);\r\n    event AcknowledgeBarSingle(uint256 a);\r\n    event AcknowledgeBarDouble(uint256 a, uint256 b);\r\n\r\n    function foo(uint256 a) public {\r\n        emit AcknowledgeFoo(a);\r\n    }\r\n\r\n    function bar(uint256 a) public {\r\n        emit AcknowledgeBarSingle(a);\r\n    }\r\n\r\n    function bar(uint256 a, uint256 b) public {\r\n        emit AcknowledgeBarDouble(a, b);\r\n    }\r\n}\r\n",
  "sourcePath": "D:\\dev\\uae\\contracts\\open-zeppelin-contracts\\mocks\\Acknowledger.sol",
  "compiler": {
    "name": "solc",
    "version": "0.4.25+commit.59dbf8f1.Emscripten.clang"
  },
  "schemaVersion": "2.0.2",
  "updatedAt": "2019-01-27T15:44:12.882Z"
}