{
  "contractName": "AddressImpl",
  "abi": [
    {
      "constant": true,
      "inputs": [
        {
          "name": "account",
          "type": "address"
        }
      ],
      "name": "isContract",
      "outputs": [
        {
          "name": "",
          "type": "bool"
        }
      ],
      "payable": false,
      "stateMutability": "view",
      "type": "function"
    }
  ],
  "bytecode": "0x608060405234801561001057600080fd5b5060eb8061001f6000396000f300608060405260043610603f576000357c0100000000000000000000000000000000000000000000000000000000900463ffffffff16806316279055146044575b600080fd5b348015604f57600080fd5b506082600480360381019080803573ffffffffffffffffffffffffffffffffffffffff169060200190929190505050609c565b604051808215151515815260200191505060405180910390f35b600060a58260ac565b9050919050565b600080823b9050600081119150509190505600a165627a7a723058200ff0179efe54deed473a0f0b7f88542b464473a68d987604ef209e9e0644cbe30029",
  "source": "pragma solidity ^0.4.24;\r\n\r\nimport \"../utils/Address.sol\";\r\n\r\ncontract AddressImpl {\r\n    function isContract(address account) external view returns (bool) {\r\n        return Address.isContract(account);\r\n    }\r\n}\r\n",
  "sourcePath": "D:\\dev\\uae\\contracts\\open-zeppelin-contracts\\mocks\\AddressImpl.sol",
  "compiler": {
    "name": "solc",
    "version": "0.4.25+commit.59dbf8f1.Emscripten.clang"
  },
  "schemaVersion": "2.0.2",
  "updatedAt": "2019-01-27T15:44:12.881Z"
}