{
  "contractName": "Configurator",
  "abi": [
    {
      "constant": true,
      "inputs": [],
      "name": "owner",
      "outputs": [
        {
          "name": "",
          "type": "address"
        }
      ],
      "payable": false,
      "stateMutability": "view",
      "type": "function"
    },
    {
      "constant": false,
      "inputs": [
        {
          "name": "newOwner",
          "type": "address"
        }
      ],
      "name": "transferOwnership",
      "outputs": [],
      "payable": false,
      "stateMutability": "nonpayable",
      "type": "function"
    },
    {
      "constant": true,
      "inputs": [],
      "name": "mainsale",
      "outputs": [
        {
          "name": "",
          "type": "address"
        }
      ],
      "payable": false,
      "stateMutability": "view",
      "type": "function"
    },
    {
      "constant": true,
      "inputs": [],
      "name": "token",
      "outputs": [
        {
          "name": "",
          "type": "address"
        }
      ],
      "payable": false,
      "stateMutability": "view",
      "type": "function"
    },
    {
      "constant": true,
      "inputs": [],
      "name": "presale",
      "outputs": [
        {
          "name": "",
          "type": "address"
        }
      ],
      "payable": false,
      "stateMutability": "view",
      "type": "function"
    },
    {
      "anonymous": false,
      "inputs": [
        {
          "indexed": true,
          "name": "previousOwner",
          "type": "address"
        },
        {
          "indexed": true,
          "name": "newOwner",
          "type": "address"
        }
      ],
      "name": "OwnershipTransferred",
      "type": "event"
    },
    {
      "constant": false,
      "inputs": [],
      "name": "deploy",
      "outputs": [],
      "payable": false,
      "stateMutability": "nonpayable",
      "type": "function"
    }
  ],
  "bytecode": "0x6080604052336000806101000a81548173ffffffffffffffffffffffffffffffffffffffff021916908373ffffffffffffffffffffffffffffffffffffffff160217905550617f91806100536000396000f300608060405260043610610078576000357c0100000000000000000000000000000000000000000000000000000000900463ffffffff168063775c300c1461007d5780638da5cb5b14610094578063f2fde38b146100eb578063f6fc96ad1461012e578063fc0c546a14610185578063fdea8e0b146101dc575b600080fd5b34801561008957600080fd5b50610092610233565b005b3480156100a057600080fd5b506100a961084b565b604051808273ffffffffffffffffffffffffffffffffffffffff1673ffffffffffffffffffffffffffffffffffffffff16815260200191505060405180910390f35b3480156100f757600080fd5b5061012c600480360381019080803573ffffffffffffffffffffffffffffffffffffffff169060200190929190505050610870565b005b34801561013a57600080fd5b506101436109c5565b604051808273ffffffffffffffffffffffffffffffffffffffff1673ffffffffffffffffffffffffffffffffffffffff16815260200191505060405180910390f35b34801561019157600080fd5b5061019a6109eb565b604051808273ffffffffffffffffffffffffffffffffffffffff1673ffffffffffffffffffffffffffffffffffffffff16815260200191505060405180910390f35b3480156101e857600080fd5b506101f1610a11565b604051808273ffffffffffffffffffffffffffffffffffffffff1673ffffffffffffffffffffffffffffffffffffffff16815260200191505060405180910390f35b6000809054906101000a900473ffffffffffffffffffffffffffffffffffffffff1673ffffffffffffffffffffffffffffffffffffffff163373ffffffffffffffffffffffffffffffffffffffff1614151561028e57600080fd5b610296610d99565b604051809103906000f0801580156102b2573d6000803e3d6000fd5b50600160006101000a81548173ffffffffffffffffffffffffffffffffffffffff021916908373ffffffffffffffffffffffffffffffffffffffff1602179055506102fb610da9565b604051809103906000f080158015610317573d6000803e3d6000fd5b50600260006101000a81548173ffffffffffffffffffffffffffffffffffffffff021916908373ffffffffffffffffffffffffffffffffffffffff160217905550600260009054906101000a900473ffffffffffffffffffffffffffffffffffffffff1673ffffffffffffffffffffffffffffffffffffffff1663deaa59df7383af3226ca6d215f31dc0baa0d969c06a1e5db3b6040518263ffffffff167c0100000000000000000000000000000000000000000000000000000000028152600401808273ffffffffffffffffffffffffffffffffffffffff1673ffffffffffffffffffffffffffffffffffffffff168152602001915050600060405180830381600087803b15801561042957600080fd5b505af115801561043d573d6000803e3d6000fd5b50505050600260009054906101000a900473ffffffffffffffffffffffffffffffffffffffff1673ffffffffffffffffffffffffffffffffffffffff1663f6a03ebf635ad68a806040518263ffffffff167c010000000000000000000000000000000000000000000000000000000002815260040180828152602001915050600060405180830381600087803b1580156104d657600080fd5b505af11580156104ea573d6000803e3d6000fd5b50505050600260009054906101000a900473ffffffffffffffffffffffffffffffffffffffff1673ffffffffffffffffffffffffffffffffffffffff16630f3a9f65600e6040518263ffffffff167c010000000000000000000000000000000000000000000000000000000002815260040180828152602001915050600060405180830381600087803b15801561058057600080fd5b505af1158015610594573d6000803e3d6000fd5b50505050600260009054906101000a900473ffffffffffffffffffffffffffffffffffffffff1673ffffffffffffffffffffffffffffffffffffffff166391b7f5ed682792c8fc4b532800006040518263ffffffff167c010000000000000000000000000000000000000000000000000000000002815260040180828152602001915050600060405180830381600087803b15801561063257600080fd5b505af1158015610646573d6000803e3d6000fd5b50505050600260009054906101000a900473ffffffffffffffffffffffffffffffffffffffff1673ffffffffffffffffffffffffffffffffffffffff1663e28fa27d682086ac3510526000006040518263ffffffff167c010000000000000000000000000000000000000000000000000000000002815260040180828152602001915050600060405180830381600087803b1580156106e457600080fd5b505af11580156106f8573d6000803e3d6000fd5b50505050600160009054906101000a900473ffffffffffffffffffffffffffffffffffffffff1673ffffffffffffffffffffffffffffffffffffffff166314133a7c600260009054906101000a900473ffffffffffffffffffffffffffffffffffffffff166040518263ffffffff167c0100000000000000000000000000000000000000000000000000000000028152600401808273ffffffffffffffffffffffffffffffffffffffff1673ffffffffffffffffffffffffffffffffffffffff168152602001915050600060405180830381600087803b1580156107db57600080fd5b505af11580156107ef573d6000803e3d6000fd5b50505050610841600260009054906101000a900473ffffffffffffffffffffffffffffffffffffffff16600160009054906101000a900473ffffffffffffffffffffffffffffffffffffffff16610a37565b610849610d32565b565b6000809054906101000a900473ffffffffffffffffffffffffffffffffffffffff1681565b6000809054906101000a900473ffffffffffffffffffffffffffffffffffffffff1673ffffffffffffffffffffffffffffffffffffffff163373ffffffffffffffffffffffffffffffffffffffff161415156108cb57600080fd5b600073ffffffffffffffffffffffffffffffffffffffff168173ffffffffffffffffffffffffffffffffffffffff161415151561090757600080fd5b8073ffffffffffffffffffffffffffffffffffffffff166000809054906101000a900473ffffffffffffffffffffffffffffffffffffffff1673ffffffffffffffffffffffffffffffffffffffff167f8be0079c531659141344cd1fd0a4f28419497f9722a3daafe3b4186f6b6457e060405160405180910390a3806000806101000a81548173ffffffffffffffffffffffffffffffffffffffff021916908373ffffffffffffffffffffffffffffffffffffffff16021790555050565b600360009054906101000a900473ffffffffffffffffffffffffffffffffffffffff1681565b600160009054906101000a900473ffffffffffffffffffffffffffffffffffffffff1681565b600260009054906101000a900473ffffffffffffffffffffffffffffffffffffffff1681565b60008290508073ffffffffffffffffffffffffffffffffffffffff1663b8a4db81670de0b6b3a764000060006040518363ffffffff167c01000000000000000000000000000000000000000000000000000000000281526004018083815260200182815260200192505050600060405180830381600087803b158015610abc57600080fd5b505af1158015610ad0573d6000803e3d6000fd5b505050508073ffffffffffffffffffffffffffffffffffffffff16631b4646bf6706f05b59d3b200006040518263ffffffff167c010000000000000000000000000000000000000000000000000000000002815260040180828152602001915050600060405180830381600087803b158015610b4b57600080fd5b505af1158015610b5f573d6000803e3d6000fd5b505050508073ffffffffffffffffffffffffffffffffffffffff166302e2c3b7600f6040518263ffffffff167c010000000000000000000000000000000000000000000000000000000002815260040180828152602001915050600060405180830381600087803b158015610bd357600080fd5b505af1158015610be7573d6000803e3d6000fd5b505050508073ffffffffffffffffffffffffffffffffffffffff1663a34d92706706f05b59d3b200006040518263ffffffff167c010000000000000000000000000000000000000000000000000000000002815260040180828152602001915050600060405180830381600087803b158015610c6257600080fd5b505af1158015610c76573d6000803e3d6000fd5b505050508073ffffffffffffffffffffffffffffffffffffffff1663144fa6d7836040518263ffffffff167c0100000000000000000000000000000000000000000000000000000000028152600401808273ffffffffffffffffffffffffffffffffffffffff1673ffffffffffffffffffffffffffffffffffffffff168152602001915050600060405180830381600087803b158015610d1557600080fd5b505af1158015610d29573d6000803e3d6000fd5b50505050505050565b610d3a610db9565b604051809103906000f080158015610d56573d6000803e3d6000fd5b50600360006101000a81548173ffffffffffffffffffffffffffffffffffffffff021916908373ffffffffffffffffffffffffffffffffffffffff160217905550565b604051611bed80610dca83390190565b604051611fb5806129b783390190565b6040516135fa8061496c83390190560060806040526000600360146101000a81548160ff02191690831515021790555033600360006101000a81548173ffffffffffffffffffffffffffffffffffffffff021916908373ffffffffffffffffffffffffffffffffffffffff160217905550611b7e8061006f6000396000f3006080604052600436106100fc576000357c0100000000000000000000000000000000000000000000000000000000900463ffffffff16806305d2035b1461010157806306fdde0314610130578063095ea7b3146101c057806314133a7c1461022557806318160ddd1461026857806323b872dd14610293578063313ce5671461031857806340c10f191461034f57806366188463146103b457806370a08231146104195780637d64bcb4146104705780638da5cb5b1461049f57806395d89b41146104f6578063a9059cbb14610586578063b1d6a2f0146105eb578063d73dd62314610642578063dd62ed3e146106a7578063f2fde38b1461071e575b600080fd5b34801561010d57600080fd5b50610116610761565b604051808215151515815260200191505060405180910390f35b34801561013c57600080fd5b50610145610774565b6040518080602001828103825283818151815260200191508051906020019080838360005b8381101561018557808201518184015260208101905061016a565b50505050905090810190601f1680156101b25780820380516001836020036101000a031916815260200191505b509250505060405180910390f35b3480156101cc57600080fd5b5061020b600480360381019080803573ffffffffffffffffffffffffffffffffffffffff169060200190929190803590602001909291905050506107ad565b604051808215151515815260200191505060405180910390f35b34801561023157600080fd5b50610266600480360381019080803573ffffffffffffffffffffffffffffffffffffffff16906020019092919050505061089f565b005b34801561027457600080fd5b5061027d610997565b6040518082815260200191505060405180910390f35b34801561029f57600080fd5b506102fe600480360381019080803573ffffffffffffffffffffffffffffffffffffffff169060200190929190803573ffffffffffffffffffffffffffffffffffffffff1690602001909291908035906020019092919050505061099d565b604051808215151515815260200191505060405180910390f35b34801561032457600080fd5b5061032d610a7e565b604051808263ffffffff1663ffffffff16815260200191505060405180910390f35b34801561035b57600080fd5b5061039a600480360381019080803573ffffffffffffffffffffffffffffffffffffffff16906020019092919080359060200190929190505050610a83565b604051808215151515815260200191505060405180910390f35b3480156103c057600080fd5b506103ff600480360381019080803573ffffffffffffffffffffffffffffffffffffffff16906020019092919080359060200190929190505050610c02565b604051808215151515815260200191505060405180910390f35b34801561042557600080fd5b5061045a600480360381019080803573ffffffffffffffffffffffffffffffffffffffff169060200190929190505050610e93565b6040518082815260200191505060405180910390f35b34801561047c57600080fd5b50610485610edc565b604051808215151515815260200191505060405180910390f35b3480156104ab57600080fd5b506104b4610ff9565b604051808273ffffffffffffffffffffffffffffffffffffffff1673ffffffffffffffffffffffffffffffffffffffff16815260200191505060405180910390f35b34801561050257600080fd5b5061050b61101f565b6040518080602001828103825283818151815260200191508051906020019080838360005b8381101561054b578082015181840152602081019050610530565b50505050905090810190601f1680156105785780820380516001836020036101000a031916815260200191505b509250505060405180910390f35b34801561059257600080fd5b506105d1600480360381019080803573ffffffffffffffffffffffffffffffffffffffff16906020019092919080359060200190929190505050611058565b604051808215151515815260200191505060405180910390f35b3480156105f757600080fd5b50610600611137565b604051808273ffffffffffffffffffffffffffffffffffffffff1673ffffffffffffffffffffffffffffffffffffffff16815260200191505060405180910390f35b34801561064e57600080fd5b5061068d600480360381019080803573ffffffffffffffffffffffffffffffffffffffff1690602001909291908035906020019092919050505061115d565b604051808215151515815260200191505060405180910390f35b3480156106b357600080fd5b50610708600480360381019080803573ffffffffffffffffffffffffffffffffffffffff169060200190929190803573ffffffffffffffffffffffffffffffffffffffff169060200190929190505050611359565b6040518082815260200191505060405180910390f35b34801561072a57600080fd5b5061075f600480360381019080803573ffffffffffffffffffffffffffffffffffffffff1690602001909291905050506113e0565b005b600360149054906101000a900460ff1681565b6040805190810160405280600381526020017f554145000000000000000000000000000000000000000000000000000000000081525081565b600081600260003373ffffffffffffffffffffffffffffffffffffffff1673ffffffffffffffffffffffffffffffffffffffff16815260200190815260200160002060008573ffffffffffffffffffffffffffffffffffffffff1673ffffffffffffffffffffffffffffffffffffffff168152602001908152602001600020819055508273ffffffffffffffffffffffffffffffffffffffff163373ffffffffffffffffffffffffffffffffffffffff167f8c5be1e5ebec7d5bd14f71427d1e84f3dd0314c0f7b2291e5b200ac8c7c3b925846040518082815260200191505060405180910390a36001905092915050565b600460009054906101000a900473ffffffffffffffffffffffffffffffffffffffff1673ffffffffffffffffffffffffffffffffffffffff163373ffffffffffffffffffffffffffffffffffffffff1614806109485750600360009054906101000a900473ffffffffffffffffffffffffffffffffffffffff1673ffffffffffffffffffffffffffffffffffffffff163373ffffffffffffffffffffffffffffffffffffffff16145b151561095357600080fd5b80600460006101000a81548173ffffffffffffffffffffffffffffffffffffffff021916908373ffffffffffffffffffffffffffffffffffffffff16021790555050565b60005481565b6000600360009054906101000a900473ffffffffffffffffffffffffffffffffffffffff1673ffffffffffffffffffffffffffffffffffffffff163373ffffffffffffffffffffffffffffffffffffffff161480610a485750600460009054906101000a900473ffffffffffffffffffffffffffffffffffffffff1673ffffffffffffffffffffffffffffffffffffffff163373ffffffffffffffffffffffffffffffffffffffff16145b80610a5f5750600360149054906101000a900460ff165b1515610a6a57600080fd5b610a75848484611538565b90509392505050565b601281565b6000600460009054906101000a900473ffffffffffffffffffffffffffffffffffffffff1673ffffffffffffffffffffffffffffffffffffffff163373ffffffffffffffffffffffffffffffffffffffff16148015610aef5750600360149054906101000a900460ff16155b1515610afa57600080fd5b610b0f826000546118f790919063ffffffff16565b600081905550610b6782600160008673ffffffffffffffffffffffffffffffffffffffff1673ffffffffffffffffffffffffffffffffffffffff168152602001908152602001600020546118f790919063ffffffff16565b600160008573ffffffffffffffffffffffffffffffffffffffff1673ffffffffffffffffffffffffffffffffffffffff168152602001908152602001600020819055508273ffffffffffffffffffffffffffffffffffffffff167f0f6798a560793a54c3bcfe86a93cde1e73087d944c0ea20544137d4121396885836040518082815260200191505060405180910390a26001905092915050565b600080600260003373ffffffffffffffffffffffffffffffffffffffff1673ffffffffffffffffffffffffffffffffffffffff16815260200190815260200160002060008573ffffffffffffffffffffffffffffffffffffffff1673ffffffffffffffffffffffffffffffffffffffff16815260200190815260200160002054905080831115610d13576000600260003373ffffffffffffffffffffffffffffffffffffffff1673ffffffffffffffffffffffffffffffffffffffff16815260200190815260200160002060008673ffffffffffffffffffffffffffffffffffffffff1673ffffffffffffffffffffffffffffffffffffffff16815260200190815260200160002081905550610da7565b610d26838261191590919063ffffffff16565b600260003373ffffffffffffffffffffffffffffffffffffffff1673ffffffffffffffffffffffffffffffffffffffff16815260200190815260200160002060008673ffffffffffffffffffffffffffffffffffffffff1673ffffffffffffffffffffffffffffffffffffffff168152602001908152602001600020819055505b8373ffffffffffffffffffffffffffffffffffffffff163373ffffffffffffffffffffffffffffffffffffffff167f8c5be1e5ebec7d5bd14f71427d1e84f3dd0314c0f7b2291e5b200ac8c7c3b925600260003373ffffffffffffffffffffffffffffffffffffffff1673ffffffffffffffffffffffffffffffffffffffff16815260200190815260200160002060008873ffffffffffffffffffffffffffffffffffffffff1673ffffffffffffffffffffffffffffffffffffffff168152602001908152602001600020546040518082815260200191505060405180910390a3600191505092915050565b6000600160008373ffffffffffffffffffffffffffffffffffffffff1673ffffffffffffffffffffffffffffffffffffffff168152602001908152602001600020549050919050565b6000600460009054906101000a900473ffffffffffffffffffffffffffffffffffffffff1673ffffffffffffffffffffffffffffffffffffffff163373ffffffffffffffffffffffffffffffffffffffff161480610f875750600360009054906101000a900473ffffffffffffffffffffffffffffffffffffffff1673ffffffffffffffffffffffffffffffffffffffff163373ffffffffffffffffffffffffffffffffffffffff16145b8015610fa05750600360149054906101000a900460ff16155b1515610fab57600080fd5b6001600360146101000a81548160ff0219169083151502179055507fae5184fba832cb2b1f702aca6117b8d265eaf03ad33eb133f19dde0f5920fa0860405160405180910390a16001905090565b600360009054906101000a900473ffffffffffffffffffffffffffffffffffffffff1681565b6040805190810160405280600981526020017f55414520546f6b656e000000000000000000000000000000000000000000000081525081565b6000600360009054906101000a900473ffffffffffffffffffffffffffffffffffffffff1673ffffffffffffffffffffffffffffffffffffffff163373ffffffffffffffffffffffffffffffffffffffff1614806111035750600460009054906101000a900473ffffffffffffffffffffffffffffffffffffffff1673ffffffffffffffffffffffffffffffffffffffff163373ffffffffffffffffffffffffffffffffffffffff16145b8061111a5750600360149054906101000a900460ff165b151561112557600080fd5b61112f838361192e565b905092915050565b600460009054906101000a900473ffffffffffffffffffffffffffffffffffffffff1681565b60006111ee82600260003373ffffffffffffffffffffffffffffffffffffffff1673ffffffffffffffffffffffffffffffffffffffff16815260200190815260200160002060008673ffffffffffffffffffffffffffffffffffffffff1673ffffffffffffffffffffffffffffffffffffffff168152602001908152602001600020546118f790919063ffffffff16565b600260003373ffffffffffffffffffffffffffffffffffffffff1673ffffffffffffffffffffffffffffffffffffffff16815260200190815260200160002060008573ffffffffffffffffffffffffffffffffffffffff1673ffffffffffffffffffffffffffffffffffffffff168152602001908152602001600020819055508273ffffffffffffffffffffffffffffffffffffffff163373ffffffffffffffffffffffffffffffffffffffff167f8c5be1e5ebec7d5bd14f71427d1e84f3dd0314c0f7b2291e5b200ac8c7c3b925600260003373ffffffffffffffffffffffffffffffffffffffff1673ffffffffffffffffffffffffffffffffffffffff16815260200190815260200160002060008773ffffffffffffffffffffffffffffffffffffffff1673ffffffffffffffffffffffffffffffffffffffff168152602001908152602001600020546040518082815260200191505060405180910390a36001905092915050565b6000600260008473ffffffffffffffffffffffffffffffffffffffff1673ffffffffffffffffffffffffffffffffffffffff16815260200190815260200160002060008373ffffffffffffffffffffffffffffffffffffffff1673ffffffffffffffffffffffffffffffffffffffff16815260200190815260200160002054905092915050565b600360009054906101000a900473ffffffffffffffffffffffffffffffffffffffff1673ffffffffffffffffffffffffffffffffffffffff163373ffffffffffffffffffffffffffffffffffffffff1614151561143c57600080fd5b600073ffffffffffffffffffffffffffffffffffffffff168173ffffffffffffffffffffffffffffffffffffffff161415151561147857600080fd5b8073ffffffffffffffffffffffffffffffffffffffff16600360009054906101000a900473ffffffffffffffffffffffffffffffffffffffff1673ffffffffffffffffffffffffffffffffffffffff167f8be0079c531659141344cd1fd0a4f28419497f9722a3daafe3b4186f6b6457e060405160405180910390a380600360006101000a81548173ffffffffffffffffffffffffffffffffffffffff021916908373ffffffffffffffffffffffffffffffffffffffff16021790555050565b60008073ffffffffffffffffffffffffffffffffffffffff168373ffffffffffffffffffffffffffffffffffffffff161415151561157557600080fd5b600160008573ffffffffffffffffffffffffffffffffffffffff1673ffffffffffffffffffffffffffffffffffffffff1681526020019081526020016000205482111515156115c357600080fd5b600260008573ffffffffffffffffffffffffffffffffffffffff1673ffffffffffffffffffffffffffffffffffffffff16815260200190815260200160002060003373ffffffffffffffffffffffffffffffffffffffff1673ffffffffffffffffffffffffffffffffffffffff16815260200190815260200160002054821115151561164e57600080fd5b6116a082600160008773ffffffffffffffffffffffffffffffffffffffff1673ffffffffffffffffffffffffffffffffffffffff1681526020019081526020016000205461191590919063ffffffff16565b600160008673ffffffffffffffffffffffffffffffffffffffff1673ffffffffffffffffffffffffffffffffffffffff1681526020019081526020016000208190555061173582600160008673ffffffffffffffffffffffffffffffffffffffff1673ffffffffffffffffffffffffffffffffffffffff168152602001908152602001600020546118f790919063ffffffff16565b600160008573ffffffffffffffffffffffffffffffffffffffff1673ffffffffffffffffffffffffffffffffffffffff1681526020019081526020016000208190555061180782600260008773ffffffffffffffffffffffffffffffffffffffff1673ffffffffffffffffffffffffffffffffffffffff16815260200190815260200160002060003373ffffffffffffffffffffffffffffffffffffffff1673ffffffffffffffffffffffffffffffffffffffff1681526020019081526020016000205461191590919063ffffffff16565b600260008673ffffffffffffffffffffffffffffffffffffffff1673ffffffffffffffffffffffffffffffffffffffff16815260200190815260200160002060003373ffffffffffffffffffffffffffffffffffffffff1673ffffffffffffffffffffffffffffffffffffffff168152602001908152602001600020819055508273ffffffffffffffffffffffffffffffffffffffff168473ffffffffffffffffffffffffffffffffffffffff167fddf252ad1be2c89b69c2b068fc378daa952ba7f163c4a11628f55a4df523b3ef846040518082815260200191505060405180910390a3600190509392505050565b600080828401905083811015151561190b57fe5b8091505092915050565b600082821115151561192357fe5b818303905092915050565b60008073ffffffffffffffffffffffffffffffffffffffff168373ffffffffffffffffffffffffffffffffffffffff161415151561196b57600080fd5b600160003373ffffffffffffffffffffffffffffffffffffffff1673ffffffffffffffffffffffffffffffffffffffff1681526020019081526020016000205482111515156119b957600080fd5b611a0b82600160003373ffffffffffffffffffffffffffffffffffffffff1673ffffffffffffffffffffffffffffffffffffffff1681526020019081526020016000205461191590919063ffffffff16565b600160003373ffffffffffffffffffffffffffffffffffffffff1673ffffffffffffffffffffffffffffffffffffffff16815260200190815260200160002081905550611aa082600160008673ffffffffffffffffffffffffffffffffffffffff1673ffffffffffffffffffffffffffffffffffffffff168152602001908152602001600020546118f790919063ffffffff16565b600160008573ffffffffffffffffffffffffffffffffffffffff1673ffffffffffffffffffffffffffffffffffffffff168152602001908152602001600020819055508273ffffffffffffffffffffffffffffffffffffffff163373ffffffffffffffffffffffffffffffffffffffff167fddf252ad1be2c89b69c2b068fc378daa952ba7f163c4a11628f55a4df523b3ef846040518082815260200191505060405180910390a360019050929150505600a165627a7a723058200eca080865ebda25a74661dc2fa5a01c8aa9db7380f6f6d6a57aa94cf05853a5002960806040526064600155336000806101000a81548173ffffffffffffffffffffffffffffffffffffffff021916908373ffffffffffffffffffffffffffffffffffffffff160217905550611f5d806100586000396000f3006080604052600436106101c2576000357c0100000000000000000000000000000000000000000000000000000000900463ffffffff16806302e2c3b7146101cd5780630f3a9f65146101fa578063144fa6d7146102275780631b4646bf1461026a578063480b890d14610297578063521eb273146102c457806354717ea91461031b5780635cddd93d146103665780636341ca0b146103915780636abc3fe4146103f45780636e8add021461044b5780636ff1f2b81461048e578063769ffb7d146104b95780638090114f146104fc5780638da5cb5b1461052757806391b7f5ed1461057e5780639bf6eb60146105ab578063a035b1fe146105f8578063a34d927014610623578063af78facf14610650578063b071cbe614610698578063b8a4db81146106c3578063be9a6555146106fa578063ca1e5bb714610725578063cafb220214610786578063cd7e3184146107b1578063d56b2889146107f2578063d64196f814610809578063d7d8804314610834578063deaa59df1461085f578063e28fa27d146108a2578063ef78d4fd146108cf578063f2fde38b146108fa578063f6a03ebf1461093d578063f6fc96ad1461096a578063fc0c546a146109c1575b6101ca610a18565b50005b3480156101d957600080fd5b506101f860048036038101908080359060200190929190505050610b7b565b005b34801561020657600080fd5b5061022560048036038101908080359060200190929190505050610be0565b005b34801561023357600080fd5b50610268600480360381019080803573ffffffffffffffffffffffffffffffffffffffff169060200190929190505050610c45565b005b34801561027657600080fd5b5061029560048036038101908080359060200190929190505050610ce4565b005b3480156102a357600080fd5b506102c260048036038101908080359060200190929190505050610d49565b005b3480156102d057600080fd5b506102d9610dae565b604051808273ffffffffffffffffffffffffffffffffffffffff1673ffffffffffffffffffffffffffffffffffffffff16815260200191505060405180910390f35b34801561032757600080fd5b506103506004803603810190808035906020019092919080359060200190929190505050610dd4565b6040518082815260200191505060405180910390f35b34801561037257600080fd5b5061037b610e25565b6040518082815260200191505060405180910390f35b34801561039d57600080fd5b506103f2600480360381019080803573ffffffffffffffffffffffffffffffffffffffff169060200190929190803573ffffffffffffffffffffffffffffffffffffffff169060200190929190505050610e2b565b005b34801561040057600080fd5b50610409611044565b604051808273ffffffffffffffffffffffffffffffffffffffff1673ffffffffffffffffffffffffffffffffffffffff16815260200191505060405180910390f35b34801561045757600080fd5b5061048c600480360381019080803573ffffffffffffffffffffffffffffffffffffffff16906020019092919050505061106a565b005b34801561049a57600080fd5b506104a3611109565b6040518082815260200191505060405180910390f35b3480156104c557600080fd5b506104fa600480360381019080803573ffffffffffffffffffffffffffffffffffffffff16906020019092919050505061110f565b005b34801561050857600080fd5b506105116111ae565b6040518082815260200191505060405180910390f35b34801561053357600080fd5b5061053c6111b4565b604051808273ffffffffffffffffffffffffffffffffffffffff1673ffffffffffffffffffffffffffffffffffffffff16815260200191505060405180910390f35b34801561058a57600080fd5b506105a9600480360381019080803590602001909291905050506111d9565b005b3480156105b757600080fd5b506105f6600480360381019080803573ffffffffffffffffffffffffffffffffffffffff1690602001909291908035906020019092919050505061123e565b005b34801561060457600080fd5b5061060d6112ff565b6040518082815260200191505060405180910390f35b34801561062f57600080fd5b5061064e60048036038101908080359060200190929190505050611305565b005b34801561065c57600080fd5b5061067b6004803603810190808035906020019092919050505061136a565b604051808381526020018281526020019250505060405180910390f35b3480156106a457600080fd5b506106ad61139d565b6040518082815260200191505060405180910390f35b3480156106cf57600080fd5b506106f860048036038101908080359060200190929190803590602001909291905050506113a3565b005b34801561070657600080fd5b5061070f61145b565b6040518082815260200191505060405180910390f35b34801561073157600080fd5b50610770600480360381019080803573ffffffffffffffffffffffffffffffffffffffff16906020019092919080359060200190929190505050611461565b6040518082815260200191505060405180910390f35b34801561079257600080fd5b5061079b611528565b6040518082815260200191505060405180910390f35b3480156107bd57600080fd5b506107dc6004803603810190808035906020019092919050505061152e565b6040518082815260200191505060405180910390f35b3480156107fe57600080fd5b506108076115b9565b005b34801561081557600080fd5b5061081e61170d565b6040518082815260200191505060405180910390f35b34801561084057600080fd5b50610849611713565b6040518082815260200191505060405180910390f35b34801561086b57600080fd5b506108a0600480360381019080803573ffffffffffffffffffffffffffffffffffffffff169060200190929190505050611736565b005b3480156108ae57600080fd5b506108cd600480360381019080803590602001909291905050506117d5565b005b3480156108db57600080fd5b506108e461183a565b6040518082815260200191505060405180910390f35b34801561090657600080fd5b5061093b600480360381019080803573ffffffffffffffffffffffffffffffffffffffff169060200190929190505050611840565b005b34801561094957600080fd5b5061096860048036038101908080359060200190929190505050611995565b005b34801561097657600080fd5b5061097f6119fa565b604051808273ffffffffffffffffffffffffffffffffffffffff1673ffffffffffffffffffffffffffffffffffffffff16815260200191505060405180910390f35b3480156109cd57600080fd5b506109d6611a20565b604051808273ffffffffffffffffffffffffffffffffffffffff1673ffffffffffffffffffffffffffffffffffffffff16815260200191505060405180910390f35b6000806000610a25611a46565b9150600c5434101515610b7357610a3a611af6565b9050600073ffffffffffffffffffffffffffffffffffffffff168173ffffffffffffffffffffffffffffffffffffffff16141515610b7257600860009054906101000a900473ffffffffffffffffffffffffffffffffffffffff1673ffffffffffffffffffffffffffffffffffffffff168173ffffffffffffffffffffffffffffffffffffffff1614158015610afc57503373ffffffffffffffffffffffffffffffffffffffff168173ffffffffffffffffffffffffffffffffffffffff1614155b8015610b3457503073ffffffffffffffffffffffffffffffffffffffff168173ffffffffffffffffffffffffffffffffffffffff1614155b1515610b3f57600080fd5b610b7181610b6c600154610b5e600b5487611b5090919063ffffffff16565b611b8b90919063ffffffff16565b611ba6565b5b5b819250505090565b6000809054906101000a900473ffffffffffffffffffffffffffffffffffffffff1673ffffffffffffffffffffffffffffffffffffffff163373ffffffffffffffffffffffffffffffffffffffff16141515610bd657600080fd5b80600b8190555050565b6000809054906101000a900473ffffffffffffffffffffffffffffffffffffffff1673ffffffffffffffffffffffffffffffffffffffff163373ffffffffffffffffffffffffffffffffffffffff16141515610c3b57600080fd5b80600e8190555050565b6000809054906101000a900473ffffffffffffffffffffffffffffffffffffffff1673ffffffffffffffffffffffffffffffffffffffff163373ffffffffffffffffffffffffffffffffffffffff16141515610ca057600080fd5b80600860006101000a81548173ffffffffffffffffffffffffffffffffffffffff021916908373ffffffffffffffffffffffffffffffffffffffff16021790555050565b6000809054906101000a900473ffffffffffffffffffffffffffffffffffffffff1673ffffffffffffffffffffffffffffffffffffffff163373ffffffffffffffffffffffffffffffffffffffff16141515610d3f57600080fd5b80600c8190555050565b6000809054906101000a900473ffffffffffffffffffffffffffffffffffffffff1673ffffffffffffffffffffffffffffffffffffffff163373ffffffffffffffffffffffffffffffffffffffff16141515610da457600080fd5b8060018190555050565b600360009054906101000a900473ffffffffffffffffffffffffffffffffffffffff1681565b600080610de08361152e565b90506000811415610df45760009150610e1e565b610e1b600154610e0d8387611b5090919063ffffffff16565b611b8b90919063ffffffff16565b91505b5092915050565b600c5481565b60008060009054906101000a900473ffffffffffffffffffffffffffffffffffffffff1673ffffffffffffffffffffffffffffffffffffffff163373ffffffffffffffffffffffffffffffffffffffff16141515610e8857600080fd5b8190508073ffffffffffffffffffffffffffffffffffffffff1663a9059cbb848373ffffffffffffffffffffffffffffffffffffffff166370a08231306040518263ffffffff167c0100000000000000000000000000000000000000000000000000000000028152600401808273ffffffffffffffffffffffffffffffffffffffff1673ffffffffffffffffffffffffffffffffffffffff168152602001915050602060405180830381600087803b158015610f4357600080fd5b505af1158015610f57573d6000803e3d6000fd5b505050506040513d6020811015610f6d57600080fd5b81019080805190602001909291905050506040518363ffffffff167c0100000000000000000000000000000000000000000000000000000000028152600401808373ffffffffffffffffffffffffffffffffffffffff1673ffffffffffffffffffffffffffffffffffffffff16815260200182815260200192505050602060405180830381600087803b15801561100357600080fd5b505af1158015611017573d6000803e3d6000fd5b505050506040513d602081101561102d57600080fd5b810190808051906020019092919050505050505050565b600460009054906101000a900473ffffffffffffffffffffffffffffffffffffffff1681565b6000809054906101000a900473ffffffffffffffffffffffffffffffffffffffff1673ffffffffffffffffffffffffffffffffffffffff163373ffffffffffffffffffffffffffffffffffffffff161415156110c557600080fd5b80600d60006101000a81548173ffffffffffffffffffffffffffffffffffffffff021916908373ffffffffffffffffffffffffffffffffffffffff16021790555050565b600b5481565b6000809054906101000a900473ffffffffffffffffffffffffffffffffffffffff1673ffffffffffffffffffffffffffffffffffffffff163373ffffffffffffffffffffffffffffffffffffffff1614151561116a57600080fd5b80600460006101000a81548173ffffffffffffffffffffffffffffffffffffffff021916908373ffffffffffffffffffffffffffffffffffffffff16021790555050565b60015481565b6000809054906101000a900473ffffffffffffffffffffffffffffffffffffffff1681565b6000809054906101000a900473ffffffffffffffffffffffffffffffffffffffff1673ffffffffffffffffffffffffffffffffffffffff163373ffffffffffffffffffffffffffffffffffffffff1614151561123457600080fd5b8060058190555050565b3373ffffffffffffffffffffffffffffffffffffffff16600460009054906101000a900473ffffffffffffffffffffffffffffffffffffffff1673ffffffffffffffffffffffffffffffffffffffff1614806112e657503373ffffffffffffffffffffffffffffffffffffffff166000809054906101000a900473ffffffffffffffffffffffffffffffffffffffff1673ffffffffffffffffffffffffffffffffffffffff16145b15156112f157600080fd5b6112fb8282611ba6565b5050565b60055481565b6000809054906101000a900473ffffffffffffffffffffffffffffffffffffffff1673ffffffffffffffffffffffffffffffffffffffff163373ffffffffffffffffffffffffffffffffffffffff1614151561136057600080fd5b8060078190555050565b60028181548110151561137957fe5b90600052602060002090600202016000915090508060000154908060010154905082565b60095481565b6000809054906101000a900473ffffffffffffffffffffffffffffffffffffffff1673ffffffffffffffffffffffffffffffffffffffff163373ffffffffffffffffffffffffffffffffffffffff161415156113fe57600080fd5b60026040805190810160405280848152602001838152509080600181540180825580915050906001820390600052602060002090600202016000909192909190915060008201518160000155602082015181600101555050505050565b60065481565b60003373ffffffffffffffffffffffffffffffffffffffff16600460009054906101000a900473ffffffffffffffffffffffffffffffffffffffff1673ffffffffffffffffffffffffffffffffffffffff16148061150b57503373ffffffffffffffffffffffffffffffffffffffff166000809054906101000a900473ffffffffffffffffffffffffffffffffffffffff1673ffffffffffffffffffffffffffffffffffffffff16145b151561151657600080fd5b6115208383611dac565b905092915050565b600a5481565b6000806000809150600090505b6002805490508110156115ae5760028181548110151561155757fe5b906000526020600020906002020160000154841015156115995760028181548110151561158057fe5b90600052602060002090600202016001015491506115a1565b8192506115b2565b808060010191505061153b565b8192505b5050919050565b6000809054906101000a900473ffffffffffffffffffffffffffffffffffffffff1673ffffffffffffffffffffffffffffffffffffffff163373ffffffffffffffffffffffffffffffffffffffff1614151561161457600080fd5b600860009054906101000a900473ffffffffffffffffffffffffffffffffffffffff1673ffffffffffffffffffffffffffffffffffffffff166314133a7c600d60009054906101000a900473ffffffffffffffffffffffffffffffffffffffff166040518263ffffffff167c0100000000000000000000000000000000000000000000000000000000028152600401808273ffffffffffffffffffffffffffffffffffffffff1673ffffffffffffffffffffffffffffffffffffffff168152602001915050600060405180830381600087803b1580156116f357600080fd5b505af1158015611707573d6000803e3d6000fd5b50505050565b60075481565b600061173162015180600e5402600654611dfb90919063ffffffff16565b905090565b6000809054906101000a900473ffffffffffffffffffffffffffffffffffffffff1673ffffffffffffffffffffffffffffffffffffffff163373ffffffffffffffffffffffffffffffffffffffff1614151561179157600080fd5b80600360006101000a81548173ffffffffffffffffffffffffffffffffffffffff021916908373ffffffffffffffffffffffffffffffffffffffff16021790555050565b6000809054906101000a900473ffffffffffffffffffffffffffffffffffffffff1673ffffffffffffffffffffffffffffffffffffffff163373ffffffffffffffffffffffffffffffffffffffff1614151561183057600080fd5b8060098190555050565b600e5481565b6000809054906101000a900473ffffffffffffffffffffffffffffffffffffffff1673ffffffffffffffffffffffffffffffffffffffff163373ffffffffffffffffffffffffffffffffffffffff1614151561189b57600080fd5b600073ffffffffffffffffffffffffffffffffffffffff168173ffffffffffffffffffffffffffffffffffffffff16141515156118d757600080fd5b8073ffffffffffffffffffffffffffffffffffffffff166000809054906101000a900473ffffffffffffffffffffffffffffffffffffffff1673ffffffffffffffffffffffffffffffffffffffff167f8be0079c531659141344cd1fd0a4f28419497f9722a3daafe3b4186f6b6457e060405160405180910390a3806000806101000a81548173ffffffffffffffffffffffffffffffffffffffff021916908373ffffffffffffffffffffffffffffffffffffffff16021790555050565b6000809054906101000a900473ffffffffffffffffffffffffffffffffffffffff1673ffffffffffffffffffffffffffffffffffffffff163373ffffffffffffffffffffffffffffffffffffffff161415156119f057600080fd5b8060068190555050565b600d60009054906101000a900473ffffffffffffffffffffffffffffffffffffffff1681565b600860009054906101000a900473ffffffffffffffffffffffffffffffffffffffff1681565b6000346007548110151515611a5a57600080fd5b6006544210158015611a725750611a6f611713565b42105b1515611a7d57600080fd5b600360009054906101000a900473ffffffffffffffffffffffffffffffffffffffff1673ffffffffffffffffffffffffffffffffffffffff166108fc349081150290604051600060405180830381858888f19350505050158015611ae5573d6000803e3d6000fd5b50611af03334611dac565b91505090565b6000601460003690501415611b4857611b416000368080601f016020809104026020016040519081016040528093929190818152602001838380828437820191505050505050611e19565b9050611b4d565b600090505b90565b6000806000841415611b655760009150611b84565b8284029050828482811515611b7657fe5b04141515611b8057fe5b8091505b5092915050565b6000808284811515611b9957fe5b0490508091505092915050565b600860009054906101000a900473ffffffffffffffffffffffffffffffffffffffff1673ffffffffffffffffffffffffffffffffffffffff166340c10f1930836040518363ffffffff167c0100000000000000000000000000000000000000000000000000000000028152600401808373ffffffffffffffffffffffffffffffffffffffff1673ffffffffffffffffffffffffffffffffffffffff16815260200182815260200192505050602060405180830381600087803b158015611c6b57600080fd5b505af1158015611c7f573d6000803e3d6000fd5b505050506040513d6020811015611c9557600080fd5b810190808051906020019092919050505050600860009054906101000a900473ffffffffffffffffffffffffffffffffffffffff1673ffffffffffffffffffffffffffffffffffffffff1663a9059cbb83836040518363ffffffff167c0100000000000000000000000000000000000000000000000000000000028152600401808373ffffffffffffffffffffffffffffffffffffffff1673ffffffffffffffffffffffffffffffffffffffff16815260200182815260200192505050602060405180830381600087803b158015611d6c57600080fd5b505af1158015611d80573d6000803e3d6000fd5b505050506040513d6020811015611d9657600080fd5b8101908080519060200190929190505050505050565b600080600954600a54101515611dc157600080fd5b611dd683600a54611dfb90919063ffffffff16565b600a81905550611de583611ed9565b9050611df18482611ba6565b8091505092915050565b6000808284019050838110151515611e0f57fe5b8091505092915050565b60008060008060019150601490505b6000811115611ece57818560018303815181101515611e4357fe5b9060200101517f010000000000000000000000000000000000000000000000000000000000000090047f0100000000000000000000000000000000000000000000000000000000000000027f0100000000000000000000000000000000000000000000000000000000000000900460ff16028301925061010082029150808060019003915050611e28565b829350505050919050565b600080611f0b670de0b6b3a7640000611efd60055486611b5090919063ffffffff16565b611b8b90919063ffffffff16565b9050611f29611f1a8285610dd4565b82611dfb90919063ffffffff16565b9150509190505600a165627a7a72305820354a8bfba490ea212a09fd5ab1d600ff4f9d1473b2ee8738403f0d19df76a83e002960806040526064600355336000806101000a81548173ffffffffffffffffffffffffffffffffffffffff021916908373ffffffffffffffffffffffffffffffffffffffff1602179055506135a2806100586000396000f3006080604052600436106102e0576000357c0100000000000000000000000000000000000000000000000000000000900463ffffffff16806302e2c3b7146102eb578063083181a914610318578063144fa6d71461036f5780631b4646bf146103b257806333b9054d146103df578063377468b0146104365780633eb5537a1461048d5780634779fad9146104b8578063480b890d146104e557806349ec1ff0146105125780634c94ac6a14610555578063521eb2731461056c57806354717ea9146105c35780635601477b1461060e57806359169d06146106455780635cddd93d146106725780636341ca0b1461069d5780636793c8e1146107005780636abc3fe4146107415780636ff1f2b81461079857806373f3312d146107c35780637409168514610806578063769ffb7d146108335780637c894938146108765780638090114f146108a35780638da5cb5b146108ce57806391b7f5ed1461092557806399cd211d146109525780639a3fdfd0146109a95780639bf6eb60146109d45780639dc905bb14610a21578063a035b1fe14610a65578063a34d927014610a90578063aa525c5514610abd578063ab36e4a614610aed578063af78facf14610b18578063b071cbe614610b60578063b4e0274814610b8b578063b8a4db8114610bb6578063b9f9d3c814610bed578063bd17647f14610c44578063be35494914610c88578063be9a655514610ccb578063ca1e5bb714610cf6578063cafb220214610d57578063cd7e318414610d82578063cdb8a39114610dc3578063ce14a46e14610e06578063d56b288914610e31578063d64196f814610e48578063d7d8804314610e73578063deaa59df14610e9e578063e28fa27d14610ee1578063e89e4ed614610f0e578063f2fde38b14610f56578063f6a03ebf14610f99578063fa8b72ff14610fc6578063fb18962d14611009578063fc0c546a14611036578063fd813d111461108d578063fd83da09146110b8578063fda74293146110f9575b6102e8611124565b50005b3480156102f757600080fd5b5061031660048036038101908080359060200190929190505050611287565b005b34801561032457600080fd5b5061032d6112ec565b604051808273ffffffffffffffffffffffffffffffffffffffff1673ffffffffffffffffffffffffffffffffffffffff16815260200191505060405180910390f35b34801561037b57600080fd5b506103b0600480360381019080803573ffffffffffffffffffffffffffffffffffffffff169060200190929190505050611312565b005b3480156103be57600080fd5b506103dd600480360381019080803590602001909291905050506113b1565b005b3480156103eb57600080fd5b506103f4611416565b604051808273ffffffffffffffffffffffffffffffffffffffff1673ffffffffffffffffffffffffffffffffffffffff16815260200191505060405180910390f35b34801561044257600080fd5b5061044b61143c565b604051808273ffffffffffffffffffffffffffffffffffffffff1673ffffffffffffffffffffffffffffffffffffffff16815260200191505060405180910390f35b34801561049957600080fd5b506104a2611462565b6040518082815260200191505060405180910390f35b3480156104c457600080fd5b506104e360048036038101908080359060200190929190505050611468565b005b3480156104f157600080fd5b50610510600480360381019080803590602001909291905050506114cd565b005b34801561051e57600080fd5b50610553600480360381019080803573ffffffffffffffffffffffffffffffffffffffff169060200190929190505050611532565b005b34801561056157600080fd5b5061056a6115d1565b005b34801561057857600080fd5b506105816116b9565b604051808273ffffffffffffffffffffffffffffffffffffffff1673ffffffffffffffffffffffffffffffffffffffff16815260200191505060405180910390f35b3480156105cf57600080fd5b506105f860048036038101908080359060200190929190803590602001909291905050506116df565b6040518082815260200191505060405180910390f35b34801561061a57600080fd5b506106436004803603810190808035906020019092919080359060200190929190505050611730565b005b34801561065157600080fd5b5061067060048036038101908080359060200190929190505050611812565b005b34801561067e57600080fd5b50610687611877565b6040518082815260200191505060405180910390f35b3480156106a957600080fd5b506106fe600480360381019080803573ffffffffffffffffffffffffffffffffffffffff169060200190929190803573ffffffffffffffffffffffffffffffffffffffff16906020019092919050505061187d565b005b34801561070c57600080fd5b5061072b60048036038101908080359060200190929190505050611a96565b6040518082815260200191505060405180910390f35b34801561074d57600080fd5b50610756611b46565b604051808273ffffffffffffffffffffffffffffffffffffffff1673ffffffffffffffffffffffffffffffffffffffff16815260200191505060405180910390f35b3480156107a457600080fd5b506107ad611b6c565b6040518082815260200191505060405180910390f35b3480156107cf57600080fd5b50610804600480360381019080803573ffffffffffffffffffffffffffffffffffffffff169060200190929190505050611b72565b005b34801561081257600080fd5b5061083160048036038101908080359060200190929190505050611c11565b005b34801561083f57600080fd5b50610874600480360381019080803573ffffffffffffffffffffffffffffffffffffffff169060200190929190505050611c76565b005b34801561088257600080fd5b506108a160048036038101908080359060200190929190505050611d15565b005b3480156108af57600080fd5b506108b8611d7a565b6040518082815260200191505060405180910390f35b3480156108da57600080fd5b506108e3611d80565b604051808273ffffffffffffffffffffffffffffffffffffffff1673ffffffffffffffffffffffffffffffffffffffff16815260200191505060405180910390f35b34801561093157600080fd5b5061095060048036038101908080359060200190929190505050611da5565b005b34801561095e57600080fd5b50610967611e0a565b604051808273ffffffffffffffffffffffffffffffffffffffff1673ffffffffffffffffffffffffffffffffffffffff16815260200191505060405180910390f35b3480156109b557600080fd5b506109be611e30565b6040518082815260200191505060405180910390f35b3480156109e057600080fd5b50610a1f600480360381019080803573ffffffffffffffffffffffffffffffffffffffff16906020019092919080359060200190929190505050611e36565b005b348015610a2d57600080fd5b50610a63600480360381019080803560ff1690602001909291908035906020019092919080359060200190929190505050611ef7565b005b348015610a7157600080fd5b50610a7a612067565b6040518082815260200191505060405180910390f35b348015610a9c57600080fd5b50610abb6004803603810190808035906020019092919050505061206d565b005b348015610ac957600080fd5b50610aeb600480360381019080803560ff1690602001909291905050506120d2565b005b348015610af957600080fd5b50610b0261224d565b6040518082815260200191505060405180910390f35b348015610b2457600080fd5b50610b436004803603810190808035906020019092919050505061225a565b604051808381526020018281526020019250505060405180910390f35b348015610b6c57600080fd5b50610b7561228d565b6040518082815260200191505060405180910390f35b348015610b9757600080fd5b50610ba0612293565b6040518082815260200191505060405180910390f35b348015610bc257600080fd5b50610beb6004803603810190808035906020019092919080359060200190929190505050612299565b005b348015610bf957600080fd5b50610c02612351565b604051808273ffffffffffffffffffffffffffffffffffffffff1673ffffffffffffffffffffffffffffffffffffffff16815260200191505060405180910390f35b348015610c5057600080fd5b50610c86600480360381019080803560ff1690602001909291908035906020019092919080359060200190929190505050612377565b005b348015610c9457600080fd5b50610cc9600480360381019080803573ffffffffffffffffffffffffffffffffffffffff16906020019092919050505061245e565b005b348015610cd757600080fd5b50610ce06124fd565b6040518082815260200191505060405180910390f35b348015610d0257600080fd5b50610d41600480360381019080803573ffffffffffffffffffffffffffffffffffffffff16906020019092919080359060200190929190505050612503565b6040518082815260200191505060405180910390f35b348015610d6357600080fd5b50610d6c6125ca565b6040518082815260200191505060405180910390f35b348015610d8e57600080fd5b50610dad600480360381019080803590602001909291905050506125d0565b6040518082815260200191505060405180910390f35b348015610dcf57600080fd5b50610e04600480360381019080803573ffffffffffffffffffffffffffffffffffffffff16906020019092919050505061265b565b005b348015610e1257600080fd5b50610e1b6126fa565b6040518082815260200191505060405180910390f35b348015610e3d57600080fd5b50610e46612700565b005b348015610e5457600080fd5b50610e5d612b3b565b6040518082815260200191505060405180910390f35b348015610e7f57600080fd5b50610e88612b41565b6040518082815260200191505060405180910390f35b348015610eaa57600080fd5b50610edf600480360381019080803573ffffffffffffffffffffffffffffffffffffffff169060200190929190505050612b53565b005b348015610eed57600080fd5b50610f0c60048036038101908080359060200190929190505050612bf2565b005b348015610f1a57600080fd5b50610f3960048036038101908080359060200190929190505050612c57565b604051808381526020018281526020019250505060405180910390f35b348015610f6257600080fd5b50610f97600480360381019080803573ffffffffffffffffffffffffffffffffffffffff169060200190929190505050612c8a565b005b348015610fa557600080fd5b50610fc460048036038101908080359060200190929190505050612ddf565b005b348015610fd257600080fd5b50611007600480360381019080803573ffffffffffffffffffffffffffffffffffffffff169060200190929190505050612e44565b005b34801561101557600080fd5b5061103460048036038101908080359060200190929190505050612ee3565b005b34801561104257600080fd5b5061104b612f48565b604051808273ffffffffffffffffffffffffffffffffffffffff1673ffffffffffffffffffffffffffffffffffffffff16815260200191505060405180910390f35b34801561109957600080fd5b506110a2612f6e565b6040518082815260200191505060405180910390f35b3480156110c457600080fd5b506110e360048036038101908080359060200190929190505050612f74565b6040518082815260200191505060405180910390f35b34801561110557600080fd5b5061110e612f87565b6040518082815260200191505060405180910390f35b6000806000611131612f8d565b9150600e543410151561127f5761114661303d565b9050600073ffffffffffffffffffffffffffffffffffffffff168173ffffffffffffffffffffffffffffffffffffffff1614151561127e57600a60009054906101000a900473ffffffffffffffffffffffffffffffffffffffff1673ffffffffffffffffffffffffffffffffffffffff168173ffffffffffffffffffffffffffffffffffffffff161415801561120857503373ffffffffffffffffffffffffffffffffffffffff168173ffffffffffffffffffffffffffffffffffffffff1614155b801561124057503073ffffffffffffffffffffffffffffffffffffffff168173ffffffffffffffffffffffffffffffffffffffff1614155b151561124b57600080fd5b61127d8161127860035461126a600d548761309790919063ffffffff16565b6130d290919063ffffffff16565b6130ed565b5b5b819250505090565b6000809054906101000a900473ffffffffffffffffffffffffffffffffffffffff1673ffffffffffffffffffffffffffffffffffffffff163373ffffffffffffffffffffffffffffffffffffffff161415156112e257600080fd5b80600d8190555050565b601260009054906101000a900473ffffffffffffffffffffffffffffffffffffffff1681565b6000809054906101000a900473ffffffffffffffffffffffffffffffffffffffff1673ffffffffffffffffffffffffffffffffffffffff163373ffffffffffffffffffffffffffffffffffffffff1614151561136d57600080fd5b80600a60006101000a81548173ffffffffffffffffffffffffffffffffffffffff021916908373ffffffffffffffffffffffffffffffffffffffff16021790555050565b6000809054906101000a900473ffffffffffffffffffffffffffffffffffffffff1673ffffffffffffffffffffffffffffffffffffffff163373ffffffffffffffffffffffffffffffffffffffff1614151561140c57600080fd5b80600e8190555050565b601060009054906101000a900473ffffffffffffffffffffffffffffffffffffffff1681565b600f60009054906101000a900473ffffffffffffffffffffffffffffffffffffffff1681565b60185481565b6000809054906101000a900473ffffffffffffffffffffffffffffffffffffffff1673ffffffffffffffffffffffffffffffffffffffff163373ffffffffffffffffffffffffffffffffffffffff161415156114c357600080fd5b8060188190555050565b6000809054906101000a900473ffffffffffffffffffffffffffffffffffffffff1673ffffffffffffffffffffffffffffffffffffffff163373ffffffffffffffffffffffffffffffffffffffff1614151561152857600080fd5b8060038190555050565b6000809054906101000a900473ffffffffffffffffffffffffffffffffffffffff1673ffffffffffffffffffffffffffffffffffffffff163373ffffffffffffffffffffffffffffffffffffffff1614151561158d57600080fd5b80601060006101000a81548173ffffffffffffffffffffffffffffffffffffffff021916908373ffffffffffffffffffffffffffffffffffffffff16021790555050565b60008060009054906101000a900473ffffffffffffffffffffffffffffffffffffffff1673ffffffffffffffffffffffffffffffffffffffff163373ffffffffffffffffffffffffffffffffffffffff1614151561162e57600080fd5b600060028054905011151561164257600080fd5b600090505b6002805490508110156116915760028181548110151561166357fe5b9060005260206000209060020201600080820160009055600182016000905550508080600101915050611647565b6002805490506002818180549050039150816116ad9190613515565b50600060018190555050565b600560009054906101000a900473ffffffffffffffffffffffffffffffffffffffff1681565b6000806116eb836125d0565b905060008114156116ff5760009150611729565b611726600354611718838761309790919063ffffffff16565b6130d290919063ffffffff16565b91505b5092915050565b6000809054906101000a900473ffffffffffffffffffffffffffffffffffffffff1673ffffffffffffffffffffffffffffffffffffffff163373ffffffffffffffffffffffffffffffffffffffff1614151561178b57600080fd5b60008211151561179a57600080fd5b6002604080519081016040528084815260200183815250908060018154018082558091505090600182039060005260206000209060020201600090919290919091506000820151816000015560208201518160010155505050611808826001546132f390919063ffffffff16565b6001819055505050565b6000809054906101000a900473ffffffffffffffffffffffffffffffffffffffff1673ffffffffffffffffffffffffffffffffffffffff163373ffffffffffffffffffffffffffffffffffffffff1614151561186d57600080fd5b8060178190555050565b600e5481565b60008060009054906101000a900473ffffffffffffffffffffffffffffffffffffffff1673ffffffffffffffffffffffffffffffffffffffff163373ffffffffffffffffffffffffffffffffffffffff161415156118da57600080fd5b8190508073ffffffffffffffffffffffffffffffffffffffff1663a9059cbb848373ffffffffffffffffffffffffffffffffffffffff166370a08231306040518263ffffffff167c0100000000000000000000000000000000000000000000000000000000028152600401808273ffffffffffffffffffffffffffffffffffffffff1673ffffffffffffffffffffffffffffffffffffffff168152602001915050602060405180830381600087803b15801561199557600080fd5b505af11580156119a9573d6000803e3d6000fd5b505050506040513d60208110156119bf57600080fd5b81019080805190602001909291905050506040518363ffffffff167c0100000000000000000000000000000000000000000000000000000000028152600401808373ffffffffffffffffffffffffffffffffffffffff1673ffffffffffffffffffffffffffffffffffffffff16815260200182815260200192505050602060405180830381600087803b158015611a5557600080fd5b505af1158015611a69573d6000803e3d6000fd5b505050506040513d6020811015611a7f57600080fd5b810190808051906020019092919050505050505050565b6000806000839150600090505b600280549050811015611b3a57814210158015611ae6575062015180600282815481101515611ace57fe5b90600052602060002090600202016000015402820142105b15611af357809250611b3f565b611b2b62015180600283815481101515611b0957fe5b90600052602060002090600202016000015402836132f390919063ffffffff16565b91508080600101915050611aa3565b600080fd5b5050919050565b600660009054906101000a900473ffffffffffffffffffffffffffffffffffffffff1681565b600d5481565b6000809054906101000a900473ffffffffffffffffffffffffffffffffffffffff1673ffffffffffffffffffffffffffffffffffffffff163373ffffffffffffffffffffffffffffffffffffffff16141515611bcd57600080fd5b80601260006101000a81548173ffffffffffffffffffffffffffffffffffffffff021916908373ffffffffffffffffffffffffffffffffffffffff16021790555050565b6000809054906101000a900473ffffffffffffffffffffffffffffffffffffffff1673ffffffffffffffffffffffffffffffffffffffff163373ffffffffffffffffffffffffffffffffffffffff16141515611c6c57600080fd5b8060168190555050565b6000809054906101000a900473ffffffffffffffffffffffffffffffffffffffff1673ffffffffffffffffffffffffffffffffffffffff163373ffffffffffffffffffffffffffffffffffffffff16141515611cd157600080fd5b80600660006101000a81548173ffffffffffffffffffffffffffffffffffffffff021916908373ffffffffffffffffffffffffffffffffffffffff16021790555050565b6000809054906101000a900473ffffffffffffffffffffffffffffffffffffffff1673ffffffffffffffffffffffffffffffffffffffff163373ffffffffffffffffffffffffffffffffffffffff16141515611d7057600080fd5b8060148190555050565b60035481565b6000809054906101000a900473ffffffffffffffffffffffffffffffffffffffff1681565b6000809054906101000a900473ffffffffffffffffffffffffffffffffffffffff1673ffffffffffffffffffffffffffffffffffffffff163373ffffffffffffffffffffffffffffffffffffffff16141515611e0057600080fd5b8060078190555050565b601360009054906101000a900473ffffffffffffffffffffffffffffffffffffffff1681565b60175481565b3373ffffffffffffffffffffffffffffffffffffffff16600660009054906101000a900473ffffffffffffffffffffffffffffffffffffffff1673ffffffffffffffffffffffffffffffffffffffff161480611ede57503373ffffffffffffffffffffffffffffffffffffffff166000809054906101000a900473ffffffffffffffffffffffffffffffffffffffff1673ffffffffffffffffffffffffffffffffffffffff16145b1515611ee957600080fd5b611ef382826130ed565b5050565b60008060009054906101000a900473ffffffffffffffffffffffffffffffffffffffff1673ffffffffffffffffffffffffffffffffffffffff163373ffffffffffffffffffffffffffffffffffffffff16141515611f5457600080fd5b6002805490508460ff16101515611f6a57600080fd5b611f7f836001546132f390919063ffffffff16565b60018190555060028054809190600101611f999190613515565b50600280805490500390505b8360ff1681111561201257600281815481101515611fbf57fe5b9060005260206000209060020201600260018301815481101515611fdf57fe5b90600052602060002090600202016000820154816000015560018201548160010155905050808060019003915050611fa5565b60408051908101604052808481526020018381525060026001860160ff1681548110151561203c57fe5b9060005260206000209060020201600082015181600001556020820151816001015590505050505050565b60075481565b6000809054906101000a900473ffffffffffffffffffffffffffffffffffffffff1673ffffffffffffffffffffffffffffffffffffffff163373ffffffffffffffffffffffffffffffffffffffff161415156120c857600080fd5b8060098190555050565b6000806000809054906101000a900473ffffffffffffffffffffffffffffffffffffffff1673ffffffffffffffffffffffffffffffffffffffff163373ffffffffffffffffffffffffffffffffffffffff1614151561213057600080fd5b6002805490508360ff1610151561214657600080fd5b60028360ff1681548110151561215857fe5b90600052602060002090600202019150612181826000015460015461331190919063ffffffff16565b60018190555060028360ff1681548110151561219957fe5b9060005260206000209060020201600080820160009055600182016000905550508260ff1690505b600160028054905003811015612232576002600182018154811015156121e357fe5b906000526020600020906002020160028281548110151561220057fe5b9060005260206000209060020201600082015481600001556001820154816001015590505080806001019150506121c1565b60028054809190600190036122479190613515565b50505050565b6000600280549050905090565b60048181548110151561226957fe5b90600052602060002090600202016000915090508060000154908060010154905082565b600b5481565b60155481565b6000809054906101000a900473ffffffffffffffffffffffffffffffffffffffff1673ffffffffffffffffffffffffffffffffffffffff163373ffffffffffffffffffffffffffffffffffffffff161415156122f457600080fd5b60046040805190810160405280848152602001838152509080600181540180825580915050906001820390600052602060002090600202016000909192909190915060008201518160000155602082015181600101555050505050565b601160009054906101000a900473ffffffffffffffffffffffffffffffffffffffff1681565b60008060009054906101000a900473ffffffffffffffffffffffffffffffffffffffff1673ffffffffffffffffffffffffffffffffffffffff163373ffffffffffffffffffffffffffffffffffffffff161415156123d457600080fd5b6002805490508460ff161015156123ea57600080fd5b60028460ff168154811015156123fc57fe5b90600052602060002090600202019050612425816000015460015461331190919063ffffffff16565b600181905550828160000181905550818160010181905550612452836001546132f390919063ffffffff16565b60018190555050505050565b6000809054906101000a900473ffffffffffffffffffffffffffffffffffffffff1673ffffffffffffffffffffffffffffffffffffffff163373ffffffffffffffffffffffffffffffffffffffff161415156124b957600080fd5b80601160006101000a81548173ffffffffffffffffffffffffffffffffffffffff021916908373ffffffffffffffffffffffffffffffffffffffff16021790555050565b60085481565b60003373ffffffffffffffffffffffffffffffffffffffff16600660009054906101000a900473ffffffffffffffffffffffffffffffffffffffff1673ffffffffffffffffffffffffffffffffffffffff1614806125ad57503373ffffffffffffffffffffffffffffffffffffffff166000809054906101000a900473ffffffffffffffffffffffffffffffffffffffff1673ffffffffffffffffffffffffffffffffffffffff16145b15156125b857600080fd5b6125c2838361332a565b905092915050565b600c5481565b6000806000809150600090505b600480549050811015612650576004818154811015156125f957fe5b9060005260206000209060020201600001548410151561263b5760048181548110151561262257fe5b9060005260206000209060020201600101549150612643565b819250612654565b80806001019150506125dd565b8192505b5050919050565b6000809054906101000a900473ffffffffffffffffffffffffffffffffffffffff1673ffffffffffffffffffffffffffffffffffffffff163373ffffffffffffffffffffffffffffffffffffffff161415156126b657600080fd5b80600f60006101000a81548173ffffffffffffffffffffffffffffffffffffffff021916908373ffffffffffffffffffffffffffffffffffffffff16021790555050565b60015481565b6000806000806000806000806000809054906101000a900473ffffffffffffffffffffffffffffffffffffffff1673ffffffffffffffffffffffffffffffffffffffff163373ffffffffffffffffffffffffffffffffffffffff1614151561276757600080fd5b6127ba6015546127ac60165461279e6018546127906014546017546132f390919063ffffffff16565b6132f390919063ffffffff16565b6132f390919063ffffffff16565b6132f390919063ffffffff16565b9750600a60009054906101000a900473ffffffffffffffffffffffffffffffffffffffff1673ffffffffffffffffffffffffffffffffffffffff166318160ddd6040518163ffffffff167c0100000000000000000000000000000000000000000000000000000000028152600401602060405180830381600087803b15801561284257600080fd5b505af1158015612856573d6000803e3d6000fd5b505050506040513d602081101561286c57600080fd5b810190808051906020019092919050505096506128ba6128978960035461331190919063ffffffff16565b6128ac6003548a61309790919063ffffffff16565b6130d290919063ffffffff16565b95506128e56003546128d76015548961309790919063ffffffff16565b6130d290919063ffffffff16565b94506129106003546129026014548961309790919063ffffffff16565b6130d290919063ffffffff16565b935061293b60035461292d6016548961309790919063ffffffff16565b6130d290919063ffffffff16565b92506129666003546129586018548961309790919063ffffffff16565b6130d290919063ffffffff16565b91506129916003546129836017548961309790919063ffffffff16565b6130d290919063ffffffff16565b90506129bf601160009054906101000a900473ffffffffffffffffffffffffffffffffffffffff16846130ed565b6129eb600f60009054906101000a900473ffffffffffffffffffffffffffffffffffffffff16856130ed565b612a17601060009054906101000a900473ffffffffffffffffffffffffffffffffffffffff16866130ed565b612a43601360009054906101000a900473ffffffffffffffffffffffffffffffffffffffff16826130ed565b612a6f601260009054906101000a900473ffffffffffffffffffffffffffffffffffffffff16836130ed565b600a60009054906101000a900473ffffffffffffffffffffffffffffffffffffffff1673ffffffffffffffffffffffffffffffffffffffff16637d64bcb46040518163ffffffff167c0100000000000000000000000000000000000000000000000000000000028152600401602060405180830381600087803b158015612af557600080fd5b505af1158015612b09573d6000803e3d6000fd5b505050506040513d6020811015612b1f57600080fd5b8101908080519060200190929190505050505050505050505050565b60095481565b6000612b4e600854612f74565b905090565b6000809054906101000a900473ffffffffffffffffffffffffffffffffffffffff1673ffffffffffffffffffffffffffffffffffffffff163373ffffffffffffffffffffffffffffffffffffffff16141515612bae57600080fd5b80600560006101000a81548173ffffffffffffffffffffffffffffffffffffffff021916908373ffffffffffffffffffffffffffffffffffffffff16021790555050565b6000809054906101000a900473ffffffffffffffffffffffffffffffffffffffff1673ffffffffffffffffffffffffffffffffffffffff163373ffffffffffffffffffffffffffffffffffffffff16141515612c4d57600080fd5b80600b8190555050565b600281815481101515612c6657fe5b90600052602060002090600202016000915090508060000154908060010154905082565b6000809054906101000a900473ffffffffffffffffffffffffffffffffffffffff1673ffffffffffffffffffffffffffffffffffffffff163373ffffffffffffffffffffffffffffffffffffffff16141515612ce557600080fd5b600073ffffffffffffffffffffffffffffffffffffffff168173ffffffffffffffffffffffffffffffffffffffff1614151515612d2157600080fd5b8073ffffffffffffffffffffffffffffffffffffffff166000809054906101000a900473ffffffffffffffffffffffffffffffffffffffff1673ffffffffffffffffffffffffffffffffffffffff167f8be0079c531659141344cd1fd0a4f28419497f9722a3daafe3b4186f6b6457e060405160405180910390a3806000806101000a81548173ffffffffffffffffffffffffffffffffffffffff021916908373ffffffffffffffffffffffffffffffffffffffff16021790555050565b6000809054906101000a900473ffffffffffffffffffffffffffffffffffffffff1673ffffffffffffffffffffffffffffffffffffffff163373ffffffffffffffffffffffffffffffffffffffff16141515612e3a57600080fd5b8060088190555050565b6000809054906101000a900473ffffffffffffffffffffffffffffffffffffffff1673ffffffffffffffffffffffffffffffffffffffff163373ffffffffffffffffffffffffffffffffffffffff16141515612e9f57600080fd5b80601360006101000a81548173ffffffffffffffffffffffffffffffffffffffff021916908373ffffffffffffffffffffffffffffffffffffffff16021790555050565b6000809054906101000a900473ffffffffffffffffffffffffffffffffffffffff1673ffffffffffffffffffffffffffffffffffffffff163373ffffffffffffffffffffffffffffffffffffffff16141515612f3e57600080fd5b8060158190555050565b600a60009054906101000a900473ffffffffffffffffffffffffffffffffffffffff1681565b60145481565b6000620151806001540282019050919050565b60165481565b6000346009548110151515612fa157600080fd5b6008544210158015612fb95750612fb6612b41565b42105b1515612fc457600080fd5b600560009054906101000a900473ffffffffffffffffffffffffffffffffffffffff1673ffffffffffffffffffffffffffffffffffffffff166108fc349081150290604051600060405180830381858888f1935050505015801561302c573d6000803e3d6000fd5b50613037333461332a565b91505090565b600060146000369050141561308f576130886000368080601f016020809104026020016040519081016040528093929190818152602001838380828437820191505050505050613379565b9050613094565b600090505b90565b60008060008414156130ac57600091506130cb565b82840290508284828115156130bd57fe5b041415156130c757fe5b8091505b5092915050565b60008082848115156130e057fe5b0490508091505092915050565b600a60009054906101000a900473ffffffffffffffffffffffffffffffffffffffff1673ffffffffffffffffffffffffffffffffffffffff166340c10f1930836040518363ffffffff167c0100000000000000000000000000000000000000000000000000000000028152600401808373ffffffffffffffffffffffffffffffffffffffff1673ffffffffffffffffffffffffffffffffffffffff16815260200182815260200192505050602060405180830381600087803b1580156131b257600080fd5b505af11580156131c6573d6000803e3d6000fd5b505050506040513d60208110156131dc57600080fd5b810190808051906020019092919050505050600a60009054906101000a900473ffffffffffffffffffffffffffffffffffffffff1673ffffffffffffffffffffffffffffffffffffffff1663a9059cbb83836040518363ffffffff167c0100000000000000000000000000000000000000000000000000000000028152600401808373ffffffffffffffffffffffffffffffffffffffff1673ffffffffffffffffffffffffffffffffffffffff16815260200182815260200192505050602060405180830381600087803b1580156132b357600080fd5b505af11580156132c7573d6000803e3d6000fd5b505050506040513d60208110156132dd57600080fd5b8101908080519060200190929190505050505050565b600080828401905083811015151561330757fe5b8091505092915050565b600082821115151561331f57fe5b818303905092915050565b600080600b54600c5410151561333f57600080fd5b61335483600c546132f390919063ffffffff16565b600c8190555061336383613439565b905061336f84826130ed565b8091505092915050565b60008060008060019150601490505b600081111561342e578185600183038151811015156133a357fe5b9060200101517f010000000000000000000000000000000000000000000000000000000000000090047f0100000000000000000000000000000000000000000000000000000000000000027f0100000000000000000000000000000000000000000000000000000000000000900460ff16028301925061010082029150808060019003915050613388565b829350505050919050565b600080600080600061344c600854611a96565b935060028481548110151561345d57fe5b9060005260206000209060020201925061349c670de0b6b3a764000061348e6007548961309790919063ffffffff16565b6130d290919063ffffffff16565b91506134a882876116df565b90506000836001015411156134f7576134f46134e56003546134d786600101548661309790919063ffffffff16565b6130d290919063ffffffff16565b836132f390919063ffffffff16565b91505b61350a81836132f390919063ffffffff16565b945050505050919050565b815481835581811115613542576002028160020283600052602060002091820191016135419190613547565b5b505050565b61357391905b8082111561356f5760008082016000905560018201600090555060020161354d565b5090565b905600a165627a7a72305820450d0ed1c3be67be1b9b9a174f4c8a602ba5a0b15600a1cce7cd1ab27c153b410029a165627a7a72305820215d02877f49b06ae22ecf86e35fdf089f500102b84d2f708139ee2f89daf2620029",
  "source": "pragma solidity ^0.4.24;\r\n\r\nimport './token/UAEToken.sol';\r\nimport './crowdsale/Presale.sol';\r\nimport './crowdsale/Mainsale.sol';\r\nimport './crowdsale/UAECommonSale.sol';\r\n\r\ncontract Configurator is Ownable {\r\n\r\n  UAEToken public token;\r\n\r\n  Presale public presale;\r\n\r\n  Mainsale public mainsale;\r\n\r\n  function deploy() public onlyOwner {\r\n    //owner = 0x83Af3226ca6d215F31dC0Baa0D969C06A1E5db3b;\r\n\r\n    token = new UAEToken();\r\n\r\n    presale = new Presale();\r\n\r\n    presale.setWallet(0x83Af3226ca6d215F31dC0Baa0D969C06A1E5db3b);\r\n    presale.setStart(1524009600);\r\n    presale.setPeriod(14);\r\n    presale.setPrice(730000000000000000000);\r\n    presale.setHardcap(600000000000000000000);\r\n    token.setSaleAgent(presale);\r\n    commonConfigure(presale, token);\r\n\r\n    extraCall();\r\n    /*mainsale = new Mainsale();\r\n\r\n    mainsale.addMilestone(14,20);\r\n    mainsale.addMilestone(14,10);\r\n    mainsale.addMilestone(14,0);\r\n\t\r\n  \r\n      \r\n    mainsale.setPrice(520000000000000000000);\r\n    mainsale.setWallet(0x83Af3226ca6d215F31dC0Baa0D969C06A1E5db3b);\r\n    mainsale.setReservesForExchangeTokensWallet(0x83Af3226ca6d215F31dC0Baa0D969C06A1E5db3b);\r\n    mainsale.setUAEcompanyTokensWallet(0x96E187bdD7d817275aD45688BF85CD966A80A428);\r\n    mainsale.setBountyTokensWallet(0x83Af3226ca6d215F31dC0Baa0D969C06A1E5db3b);\r\n    mainsale.setMentorsTokensWallet(0x66CeD6f10d77ae5F8dd7811824EF71ebC0c8aEFf);\r\n    mainsale.setSoftwareTokensWallet(0x83Af3226ca6d215F31dC0Baa0D969C06A1E5db3b);\r\n    mainsale.setStart(1525219200);\r\n    mainsale.setHardcap(173000000000000000000000);\r\n   \r\n    mainsale.setReservesForExchangeTokensPercent(2);\r\n    mainsale.setUAEcompanyTokensPercent(20);\r\n    mainsale.setMentorsTokensPercent(10);\r\n    mainsale.setBountyTokensPercent(5);\r\n    mainsale.setSoftwareTokensPercent(1);\r\n    commonConfigure(mainsale, token);\r\n\t\r\n    presale.setMainsale(mainsale);\r\n\r\n    token.transferOwnership(owner);\r\n    presale.transferOwnership(owner);\r\n    mainsale.transferOwnership(owner);*/\r\n  }\r\n\r\n  function commonConfigure(address saleAddress, address _token) internal {\r\n     UAECommonSale  sale = UAECommonSale (saleAddress);\r\n     sale.addValueBonus(1000000000000000000,0);\r\n     sale.setReferalsMinInvestLimit(500000000000000000);\r\n     sale.setRefererPercent(15);\r\n     sale.setMinInvestedLimit(500000000000000000);\r\n     sale.setToken(_token);\r\n  }\r\n\r\n  function extraCall() internal {\r\n    mainsale = new Mainsale();\r\n\r\n    //mainsale.addMilestone(14,20);\r\n    //mainsale.addMilestone(14,10);\r\n    //mainsale.addMilestone(14,0);\r\n  }\r\n}",
  "sourcePath": "D:\\dev\\uae\\contracts\\Configurator.sol",
  "compiler": {
    "name": "solc",
    "version": "0.4.25+commit.59dbf8f1.Emscripten.clang"
  },
  "schemaVersion": "2.0.2",
  "updatedAt": "2019-01-26T16:32:46.452Z"
}