{
  "contractName": "CounterImpl",
  "abi": [
    {
      "constant": true,
      "inputs": [],
      "name": "theId",
      "outputs": [
        {
          "name": "",
          "type": "uint256"
        }
      ],
      "payable": false,
      "stateMutability": "view",
      "type": "function"
    },
    {
      "constant": false,
      "inputs": [
        {
          "name": "key",
          "type": "string"
        }
      ],
      "name": "doThing",
      "outputs": [
        {
          "name": "",
          "type": "uint256"
        }
      ],
      "payable": false,
      "stateMutability": "nonpayable",
      "type": "function"
    }
  ],
  "bytecode": "0x608060405234801561001057600080fd5b506101d1806100206000396000f30060806040526004361061004c576000357c0100000000000000000000000000000000000000000000000000000000900463ffffffff1680633b73cc7214610051578063bb5e3d3b1461007c575b600080fd5b34801561005d57600080fd5b506100666100f9565b6040518082815260200191505060405180910390f35b34801561008857600080fd5b506100e3600480360381019080803590602001908201803590602001908080601f01602080910402602001604051908101604052809392919081815260200183838082843782019150505050505091929192905050506100ff565b6040518082815260200191505060405180910390f35b60005481565b60006101746001836040518082805190602001908083835b60208310151561013c5780518252602082019150602081019050602083039250610117565b6001836020036101000a0380198251168184511680821785525050505050509050019150509081526020016040518091039020610184565b6000819055506000549050919050565b600060018260000160008282540192505081905550816000015490509190505600a165627a7a723058201fe258f3de7436a0c2c47b6c0ab3352f8a20425fdce7e37599e3ab909c909ad30029",
  "source": "pragma solidity ^0.4.24;\r\n\r\nimport \"../drafts/Counter.sol\";\r\n\r\ncontract CounterImpl {\r\n    using Counter for Counter.Counter;\r\n\r\n    uint256 public theId;\r\n\r\n    // use whatever key you want to track your counters\r\n    mapping(string => Counter.Counter) private _counters;\r\n\r\n    function doThing(string key) public returns (uint256) {\r\n        theId = _counters[key].next();\r\n        return theId;\r\n    }\r\n}\r\n",
  "sourcePath": "D:\\dev\\uae\\contracts\\open-zeppelin-contracts\\mocks\\CounterImpl.sol",
  "compiler": {
    "name": "solc",
    "version": "0.4.25+commit.59dbf8f1.Emscripten.clang"
  },
  "schemaVersion": "2.0.2",
  "updatedAt": "2019-01-28T14:35:46.069Z"
}