{
  "contractName": "Mainsale",
  "abi": [
    {
      "constant": false,
      "inputs": [
        {
          "name": "newRefererPercent",
          "type": "uint256"
        }
      ],
      "name": "setRefererPercent",
      "outputs": [],
      "payable": false,
      "stateMutability": "nonpayable",
      "type": "function"
    },
    {
      "constant": true,
      "inputs": [],
      "name": "MentorsTokensWallet",
      "outputs": [
        {
          "name": "",
          "type": "address"
        }
      ],
      "payable": false,
      "stateMutability": "view",
      "type": "function"
    },
    {
      "constant": false,
      "inputs": [
        {
          "name": "newToken",
          "type": "address"
        }
      ],
      "name": "setToken",
      "outputs": [],
      "payable": false,
      "stateMutability": "nonpayable",
      "type": "function"
    },
    {
      "constant": false,
      "inputs": [
        {
          "name": "newRefereralsMinInvestLimit",
          "type": "uint256"
        }
      ],
      "name": "setReferalsMinInvestLimit",
      "outputs": [],
      "payable": false,
      "stateMutability": "nonpayable",
      "type": "function"
    },
    {
      "constant": true,
      "inputs": [],
      "name": "SoftwareTokensWallet",
      "outputs": [
        {
          "name": "",
          "type": "address"
        }
      ],
      "payable": false,
      "stateMutability": "view",
      "type": "function"
    },
    {
      "constant": true,
      "inputs": [],
      "name": "UAEcompanyTokensWallet",
      "outputs": [
        {
          "name": "",
          "type": "address"
        }
      ],
      "payable": false,
      "stateMutability": "view",
      "type": "function"
    },
    {
      "constant": true,
      "inputs": [],
      "name": "MentorsTokensPercent",
      "outputs": [
        {
          "name": "",
          "type": "uint256"
        }
      ],
      "payable": false,
      "stateMutability": "view",
      "type": "function"
    },
    {
      "constant": false,
      "inputs": [
        {
          "name": "newPercentRate",
          "type": "uint256"
        }
      ],
      "name": "setPercentRate",
      "outputs": [],
      "payable": false,
      "stateMutability": "nonpayable",
      "type": "function"
    },
    {
      "constant": false,
      "inputs": [],
      "name": "clearMilestones",
      "outputs": [],
      "payable": false,
      "stateMutability": "nonpayable",
      "type": "function"
    },
    {
      "constant": true,
      "inputs": [],
      "name": "wallet",
      "outputs": [
        {
          "name": "",
          "type": "address"
        }
      ],
      "payable": false,
      "stateMutability": "view",
      "type": "function"
    },
    {
      "constant": true,
      "inputs": [
        {
          "name": "tokens",
          "type": "uint256"
        },
        {
          "name": "_invested",
          "type": "uint256"
        }
      ],
      "name": "getValueBonusTokens",
      "outputs": [
        {
          "name": "",
          "type": "uint256"
        }
      ],
      "payable": false,
      "stateMutability": "view",
      "type": "function"
    },
    {
      "constant": false,
      "inputs": [
        {
          "name": "period",
          "type": "uint256"
        },
        {
          "name": "bonus",
          "type": "uint256"
        }
      ],
      "name": "addMilestone",
      "outputs": [],
      "payable": false,
      "stateMutability": "nonpayable",
      "type": "function"
    },
    {
      "constant": true,
      "inputs": [],
      "name": "referalsMinInvestLimit",
      "outputs": [
        {
          "name": "",
          "type": "uint256"
        }
      ],
      "payable": false,
      "stateMutability": "view",
      "type": "function"
    },
    {
      "constant": false,
      "inputs": [
        {
          "name": "to",
          "type": "address"
        },
        {
          "name": "anotherToken",
          "type": "address"
        }
      ],
      "name": "retrieveTokens",
      "outputs": [],
      "payable": false,
      "stateMutability": "nonpayable",
      "type": "function"
    },
    {
      "constant": true,
      "inputs": [
        {
          "name": "start",
          "type": "uint256"
        }
      ],
      "name": "currentMilestone",
      "outputs": [
        {
          "name": "",
          "type": "uint256"
        }
      ],
      "payable": false,
      "stateMutability": "view",
      "type": "function"
    },
    {
      "constant": true,
      "inputs": [],
      "name": "directMintAgent",
      "outputs": [
        {
          "name": "",
          "type": "address"
        }
      ],
      "payable": false,
      "stateMutability": "view",
      "type": "function"
    },
    {
      "constant": true,
      "inputs": [],
      "name": "refererPercent",
      "outputs": [
        {
          "name": "",
          "type": "uint256"
        }
      ],
      "payable": false,
      "stateMutability": "view",
      "type": "function"
    },
    {
      "constant": false,
      "inputs": [
        {
          "name": "newDirectMintAgent",
          "type": "address"
        }
      ],
      "name": "setDirectMintAgent",
      "outputs": [],
      "payable": false,
      "stateMutability": "nonpayable",
      "type": "function"
    },
    {
      "constant": true,
      "inputs": [],
      "name": "percentRate",
      "outputs": [
        {
          "name": "",
          "type": "uint256"
        }
      ],
      "payable": false,
      "stateMutability": "view",
      "type": "function"
    },
    {
      "constant": true,
      "inputs": [],
      "name": "owner",
      "outputs": [
        {
          "name": "",
          "type": "address"
        }
      ],
      "payable": false,
      "stateMutability": "view",
      "type": "function"
    },
    {
      "constant": false,
      "inputs": [
        {
          "name": "newPrice",
          "type": "uint256"
        }
      ],
      "name": "setPrice",
      "outputs": [],
      "payable": false,
      "stateMutability": "nonpayable",
      "type": "function"
    },
    {
      "constant": true,
      "inputs": [],
      "name": "bountyTokensWallet",
      "outputs": [
        {
          "name": "",
          "type": "address"
        }
      ],
      "payable": false,
      "stateMutability": "view",
      "type": "function"
    },
    {
      "constant": true,
      "inputs": [],
      "name": "bountyTokensPercent",
      "outputs": [
        {
          "name": "",
          "type": "uint256"
        }
      ],
      "payable": false,
      "stateMutability": "view",
      "type": "function"
    },
    {
      "constant": false,
      "inputs": [
        {
          "name": "to",
          "type": "address"
        },
        {
          "name": "tokens",
          "type": "uint256"
        }
      ],
      "name": "mintTokensExternal",
      "outputs": [],
      "payable": false,
      "stateMutability": "nonpayable",
      "type": "function"
    },
    {
      "constant": false,
      "inputs": [
        {
          "name": "numberAfter",
          "type": "uint8"
        },
        {
          "name": "period",
          "type": "uint256"
        },
        {
          "name": "bonus",
          "type": "uint256"
        }
      ],
      "name": "insertMilestone",
      "outputs": [],
      "payable": false,
      "stateMutability": "nonpayable",
      "type": "function"
    },
    {
      "constant": true,
      "inputs": [],
      "name": "price",
      "outputs": [
        {
          "name": "",
          "type": "uint256"
        }
      ],
      "payable": false,
      "stateMutability": "view",
      "type": "function"
    },
    {
      "constant": false,
      "inputs": [
        {
          "name": "newMinInvestedLimit",
          "type": "uint256"
        }
      ],
      "name": "setMinInvestedLimit",
      "outputs": [],
      "payable": false,
      "stateMutability": "nonpayable",
      "type": "function"
    },
    {
      "constant": false,
      "inputs": [
        {
          "name": "number",
          "type": "uint8"
        }
      ],
      "name": "removeMilestone",
      "outputs": [],
      "payable": false,
      "stateMutability": "nonpayable",
      "type": "function"
    },
    {
      "constant": true,
      "inputs": [],
      "name": "milestonesCount",
      "outputs": [
        {
          "name": "",
          "type": "uint256"
        }
      ],
      "payable": false,
      "stateMutability": "view",
      "type": "function"
    },
    {
      "constant": true,
      "inputs": [
        {
          "name": "",
          "type": "uint256"
        }
      ],
      "name": "valueBonuses",
      "outputs": [
        {
          "name": "from",
          "type": "uint256"
        },
        {
          "name": "bonus",
          "type": "uint256"
        }
      ],
      "payable": false,
      "stateMutability": "view",
      "type": "function"
    },
    {
      "constant": true,
      "inputs": [],
      "name": "hardcap",
      "outputs": [
        {
          "name": "",
          "type": "uint256"
        }
      ],
      "payable": false,
      "stateMutability": "view",
      "type": "function"
    },
    {
      "constant": true,
      "inputs": [],
      "name": "SoftwareTokensPercent",
      "outputs": [
        {
          "name": "",
          "type": "uint256"
        }
      ],
      "payable": false,
      "stateMutability": "view",
      "type": "function"
    },
    {
      "constant": false,
      "inputs": [
        {
          "name": "from",
          "type": "uint256"
        },
        {
          "name": "bonus",
          "type": "uint256"
        }
      ],
      "name": "addValueBonus",
      "outputs": [],
      "payable": false,
      "stateMutability": "nonpayable",
      "type": "function"
    },
    {
      "constant": true,
      "inputs": [],
      "name": "ReservesForExchangeTokensWallet",
      "outputs": [
        {
          "name": "",
          "type": "address"
        }
      ],
      "payable": false,
      "stateMutability": "view",
      "type": "function"
    },
    {
      "constant": false,
      "inputs": [
        {
          "name": "number",
          "type": "uint8"
        },
        {
          "name": "period",
          "type": "uint256"
        },
        {
          "name": "bonus",
          "type": "uint256"
        }
      ],
      "name": "changeMilestone",
      "outputs": [],
      "payable": false,
      "stateMutability": "nonpayable",
      "type": "function"
    },
    {
      "constant": true,
      "inputs": [],
      "name": "start",
      "outputs": [
        {
          "name": "",
          "type": "uint256"
        }
      ],
      "payable": false,
      "stateMutability": "view",
      "type": "function"
    },
    {
      "constant": false,
      "inputs": [
        {
          "name": "to",
          "type": "address"
        },
        {
          "name": "_invested",
          "type": "uint256"
        }
      ],
      "name": "mintTokensByETHExternal",
      "outputs": [
        {
          "name": "",
          "type": "uint256"
        }
      ],
      "payable": false,
      "stateMutability": "nonpayable",
      "type": "function"
    },
    {
      "constant": true,
      "inputs": [],
      "name": "invested",
      "outputs": [
        {
          "name": "",
          "type": "uint256"
        }
      ],
      "payable": false,
      "stateMutability": "view",
      "type": "function"
    },
    {
      "constant": true,
      "inputs": [
        {
          "name": "value",
          "type": "uint256"
        }
      ],
      "name": "getValueBonus",
      "outputs": [
        {
          "name": "",
          "type": "uint256"
        }
      ],
      "payable": false,
      "stateMutability": "view",
      "type": "function"
    },
    {
      "constant": true,
      "inputs": [],
      "name": "totalPeriod",
      "outputs": [
        {
          "name": "",
          "type": "uint256"
        }
      ],
      "payable": false,
      "stateMutability": "view",
      "type": "function"
    },
    {
      "constant": true,
      "inputs": [],
      "name": "minInvestedLimit",
      "outputs": [
        {
          "name": "",
          "type": "uint256"
        }
      ],
      "payable": false,
      "stateMutability": "view",
      "type": "function"
    },
    {
      "constant": false,
      "inputs": [
        {
          "name": "newWallet",
          "type": "address"
        }
      ],
      "name": "setWallet",
      "outputs": [],
      "payable": false,
      "stateMutability": "nonpayable",
      "type": "function"
    },
    {
      "constant": false,
      "inputs": [
        {
          "name": "newHardcap",
          "type": "uint256"
        }
      ],
      "name": "setHardcap",
      "outputs": [],
      "payable": false,
      "stateMutability": "nonpayable",
      "type": "function"
    },
    {
      "constant": true,
      "inputs": [
        {
          "name": "",
          "type": "uint256"
        }
      ],
      "name": "milestones",
      "outputs": [
        {
          "name": "period",
          "type": "uint256"
        },
        {
          "name": "bonus",
          "type": "uint256"
        }
      ],
      "payable": false,
      "stateMutability": "view",
      "type": "function"
    },
    {
      "constant": false,
      "inputs": [
        {
          "name": "newOwner",
          "type": "address"
        }
      ],
      "name": "transferOwnership",
      "outputs": [],
      "payable": false,
      "stateMutability": "nonpayable",
      "type": "function"
    },
    {
      "constant": false,
      "inputs": [
        {
          "name": "newStart",
          "type": "uint256"
        }
      ],
      "name": "setStart",
      "outputs": [],
      "payable": false,
      "stateMutability": "nonpayable",
      "type": "function"
    },
    {
      "constant": true,
      "inputs": [],
      "name": "token",
      "outputs": [
        {
          "name": "",
          "type": "address"
        }
      ],
      "payable": false,
      "stateMutability": "view",
      "type": "function"
    },
    {
      "constant": true,
      "inputs": [],
      "name": "UAEcompanyTokensPercent",
      "outputs": [
        {
          "name": "",
          "type": "uint256"
        }
      ],
      "payable": false,
      "stateMutability": "view",
      "type": "function"
    },
    {
      "constant": true,
      "inputs": [
        {
          "name": "start",
          "type": "uint256"
        }
      ],
      "name": "lastSaleDate",
      "outputs": [
        {
          "name": "",
          "type": "uint256"
        }
      ],
      "payable": false,
      "stateMutability": "view",
      "type": "function"
    },
    {
      "constant": true,
      "inputs": [],
      "name": "ReservesForExchangeTokensPercent",
      "outputs": [
        {
          "name": "",
          "type": "uint256"
        }
      ],
      "payable": false,
      "stateMutability": "view",
      "type": "function"
    },
    {
      "payable": true,
      "stateMutability": "payable",
      "type": "fallback"
    },
    {
      "anonymous": false,
      "inputs": [
        {
          "indexed": true,
          "name": "previousOwner",
          "type": "address"
        },
        {
          "indexed": true,
          "name": "newOwner",
          "type": "address"
        }
      ],
      "name": "OwnershipTransferred",
      "type": "event"
    },
    {
      "constant": false,
      "inputs": [
        {
          "name": "newSoftwareTokensPercent",
          "type": "uint256"
        }
      ],
      "name": "setSoftwareTokensPercent",
      "outputs": [],
      "payable": false,
      "stateMutability": "nonpayable",
      "type": "function"
    },
    {
      "constant": false,
      "inputs": [
        {
          "name": "newReservesForExchangeTokensPercent",
          "type": "uint256"
        }
      ],
      "name": "setReservesForExchangeTokensPercent",
      "outputs": [],
      "payable": false,
      "stateMutability": "nonpayable",
      "type": "function"
    },
    {
      "constant": false,
      "inputs": [
        {
          "name": "newUAEcompanyTokensPercent",
          "type": "uint256"
        }
      ],
      "name": "setUAEcompanyTokensPercent",
      "outputs": [],
      "payable": false,
      "stateMutability": "nonpayable",
      "type": "function"
    },
    {
      "constant": false,
      "inputs": [
        {
          "name": "newMentorsTokensPercent",
          "type": "uint256"
        }
      ],
      "name": "setMentorsTokensPercent",
      "outputs": [],
      "payable": false,
      "stateMutability": "nonpayable",
      "type": "function"
    },
    {
      "constant": false,
      "inputs": [
        {
          "name": "newSoftwareTokensWallet",
          "type": "address"
        }
      ],
      "name": "setSoftwareTokensWallet",
      "outputs": [],
      "payable": false,
      "stateMutability": "nonpayable",
      "type": "function"
    },
    {
      "constant": false,
      "inputs": [
        {
          "name": "newBountyTokensPercent",
          "type": "uint256"
        }
      ],
      "name": "setBountyTokensPercent",
      "outputs": [],
      "payable": false,
      "stateMutability": "nonpayable",
      "type": "function"
    },
    {
      "constant": false,
      "inputs": [
        {
          "name": "newUAEcompanyTokensWallet",
          "type": "address"
        }
      ],
      "name": "setUAEcompanyTokensWallet",
      "outputs": [],
      "payable": false,
      "stateMutability": "nonpayable",
      "type": "function"
    },
    {
      "constant": false,
      "inputs": [
        {
          "name": "newReservesForExchangeTokensWallet",
          "type": "address"
        }
      ],
      "name": "setReservesForExchangeTokensWallet",
      "outputs": [],
      "payable": false,
      "stateMutability": "nonpayable",
      "type": "function"
    },
    {
      "constant": false,
      "inputs": [
        {
          "name": "newBountyTokensWallet",
          "type": "address"
        }
      ],
      "name": "setBountyTokensWallet",
      "outputs": [],
      "payable": false,
      "stateMutability": "nonpayable",
      "type": "function"
    },
    {
      "constant": false,
      "inputs": [
        {
          "name": "newMentorsTokensWallet",
          "type": "address"
        }
      ],
      "name": "setMentorsTokensWallet",
      "outputs": [],
      "payable": false,
      "stateMutability": "nonpayable",
      "type": "function"
    },
    {
      "constant": false,
      "inputs": [],
      "name": "finish",
      "outputs": [],
      "payable": false,
      "stateMutability": "nonpayable",
      "type": "function"
    },
    {
      "constant": true,
      "inputs": [],
      "name": "endSaleDate",
      "outputs": [
        {
          "name": "",
          "type": "uint256"
        }
      ],
      "payable": false,
      "stateMutability": "view",
      "type": "function"
    }
  ],
  "bytecode": "0x60806040526064600355336000806101000a81548173ffffffffffffffffffffffffffffffffffffffff021916908373ffffffffffffffffffffffffffffffffffffffff1602179055506135a2806100586000396000f3006080604052600436106102e0576000357c0100000000000000000000000000000000000000000000000000000000900463ffffffff16806302e2c3b7146102eb578063083181a914610318578063144fa6d71461036f5780631b4646bf146103b257806333b9054d146103df578063377468b0146104365780633eb5537a1461048d5780634779fad9146104b8578063480b890d146104e557806349ec1ff0146105125780634c94ac6a14610555578063521eb2731461056c57806354717ea9146105c35780635601477b1461060e57806359169d06146106455780635cddd93d146106725780636341ca0b1461069d5780636793c8e1146107005780636abc3fe4146107415780636ff1f2b81461079857806373f3312d146107c35780637409168514610806578063769ffb7d146108335780637c894938146108765780638090114f146108a35780638da5cb5b146108ce57806391b7f5ed1461092557806399cd211d146109525780639a3fdfd0146109a95780639bf6eb60146109d45780639dc905bb14610a21578063a035b1fe14610a65578063a34d927014610a90578063aa525c5514610abd578063ab36e4a614610aed578063af78facf14610b18578063b071cbe614610b60578063b4e0274814610b8b578063b8a4db8114610bb6578063b9f9d3c814610bed578063bd17647f14610c44578063be35494914610c88578063be9a655514610ccb578063ca1e5bb714610cf6578063cafb220214610d57578063cd7e318414610d82578063cdb8a39114610dc3578063ce14a46e14610e06578063d56b288914610e31578063d64196f814610e48578063d7d8804314610e73578063deaa59df14610e9e578063e28fa27d14610ee1578063e89e4ed614610f0e578063f2fde38b14610f56578063f6a03ebf14610f99578063fa8b72ff14610fc6578063fb18962d14611009578063fc0c546a14611036578063fd813d111461108d578063fd83da09146110b8578063fda74293146110f9575b6102e8611124565b50005b3480156102f757600080fd5b5061031660048036038101908080359060200190929190505050611287565b005b34801561032457600080fd5b5061032d6112ec565b604051808273ffffffffffffffffffffffffffffffffffffffff1673ffffffffffffffffffffffffffffffffffffffff16815260200191505060405180910390f35b34801561037b57600080fd5b506103b0600480360381019080803573ffffffffffffffffffffffffffffffffffffffff169060200190929190505050611312565b005b3480156103be57600080fd5b506103dd600480360381019080803590602001909291905050506113b1565b005b3480156103eb57600080fd5b506103f4611416565b604051808273ffffffffffffffffffffffffffffffffffffffff1673ffffffffffffffffffffffffffffffffffffffff16815260200191505060405180910390f35b34801561044257600080fd5b5061044b61143c565b604051808273ffffffffffffffffffffffffffffffffffffffff1673ffffffffffffffffffffffffffffffffffffffff16815260200191505060405180910390f35b34801561049957600080fd5b506104a2611462565b6040518082815260200191505060405180910390f35b3480156104c457600080fd5b506104e360048036038101908080359060200190929190505050611468565b005b3480156104f157600080fd5b50610510600480360381019080803590602001909291905050506114cd565b005b34801561051e57600080fd5b50610553600480360381019080803573ffffffffffffffffffffffffffffffffffffffff169060200190929190505050611532565b005b34801561056157600080fd5b5061056a6115d1565b005b34801561057857600080fd5b506105816116b9565b604051808273ffffffffffffffffffffffffffffffffffffffff1673ffffffffffffffffffffffffffffffffffffffff16815260200191505060405180910390f35b3480156105cf57600080fd5b506105f860048036038101908080359060200190929190803590602001909291905050506116df565b6040518082815260200191505060405180910390f35b34801561061a57600080fd5b506106436004803603810190808035906020019092919080359060200190929190505050611730565b005b34801561065157600080fd5b5061067060048036038101908080359060200190929190505050611812565b005b34801561067e57600080fd5b50610687611877565b6040518082815260200191505060405180910390f35b3480156106a957600080fd5b506106fe600480360381019080803573ffffffffffffffffffffffffffffffffffffffff169060200190929190803573ffffffffffffffffffffffffffffffffffffffff16906020019092919050505061187d565b005b34801561070c57600080fd5b5061072b60048036038101908080359060200190929190505050611a96565b6040518082815260200191505060405180910390f35b34801561074d57600080fd5b50610756611b46565b604051808273ffffffffffffffffffffffffffffffffffffffff1673ffffffffffffffffffffffffffffffffffffffff16815260200191505060405180910390f35b3480156107a457600080fd5b506107ad611b6c565b6040518082815260200191505060405180910390f35b3480156107cf57600080fd5b50610804600480360381019080803573ffffffffffffffffffffffffffffffffffffffff169060200190929190505050611b72565b005b34801561081257600080fd5b5061083160048036038101908080359060200190929190505050611c11565b005b34801561083f57600080fd5b50610874600480360381019080803573ffffffffffffffffffffffffffffffffffffffff169060200190929190505050611c76565b005b34801561088257600080fd5b506108a160048036038101908080359060200190929190505050611d15565b005b3480156108af57600080fd5b506108b8611d7a565b6040518082815260200191505060405180910390f35b3480156108da57600080fd5b506108e3611d80565b604051808273ffffffffffffffffffffffffffffffffffffffff1673ffffffffffffffffffffffffffffffffffffffff16815260200191505060405180910390f35b34801561093157600080fd5b5061095060048036038101908080359060200190929190505050611da5565b005b34801561095e57600080fd5b50610967611e0a565b604051808273ffffffffffffffffffffffffffffffffffffffff1673ffffffffffffffffffffffffffffffffffffffff16815260200191505060405180910390f35b3480156109b557600080fd5b506109be611e30565b6040518082815260200191505060405180910390f35b3480156109e057600080fd5b50610a1f600480360381019080803573ffffffffffffffffffffffffffffffffffffffff16906020019092919080359060200190929190505050611e36565b005b348015610a2d57600080fd5b50610a63600480360381019080803560ff1690602001909291908035906020019092919080359060200190929190505050611ef7565b005b348015610a7157600080fd5b50610a7a612067565b6040518082815260200191505060405180910390f35b348015610a9c57600080fd5b50610abb6004803603810190808035906020019092919050505061206d565b005b348015610ac957600080fd5b50610aeb600480360381019080803560ff1690602001909291905050506120d2565b005b348015610af957600080fd5b50610b0261224d565b6040518082815260200191505060405180910390f35b348015610b2457600080fd5b50610b436004803603810190808035906020019092919050505061225a565b604051808381526020018281526020019250505060405180910390f35b348015610b6c57600080fd5b50610b7561228d565b6040518082815260200191505060405180910390f35b348015610b9757600080fd5b50610ba0612293565b6040518082815260200191505060405180910390f35b348015610bc257600080fd5b50610beb6004803603810190808035906020019092919080359060200190929190505050612299565b005b348015610bf957600080fd5b50610c02612351565b604051808273ffffffffffffffffffffffffffffffffffffffff1673ffffffffffffffffffffffffffffffffffffffff16815260200191505060405180910390f35b348015610c5057600080fd5b50610c86600480360381019080803560ff1690602001909291908035906020019092919080359060200190929190505050612377565b005b348015610c9457600080fd5b50610cc9600480360381019080803573ffffffffffffffffffffffffffffffffffffffff16906020019092919050505061245e565b005b348015610cd757600080fd5b50610ce06124fd565b6040518082815260200191505060405180910390f35b348015610d0257600080fd5b50610d41600480360381019080803573ffffffffffffffffffffffffffffffffffffffff16906020019092919080359060200190929190505050612503565b6040518082815260200191505060405180910390f35b348015610d6357600080fd5b50610d6c6125ca565b6040518082815260200191505060405180910390f35b348015610d8e57600080fd5b50610dad600480360381019080803590602001909291905050506125d0565b6040518082815260200191505060405180910390f35b348015610dcf57600080fd5b50610e04600480360381019080803573ffffffffffffffffffffffffffffffffffffffff16906020019092919050505061265b565b005b348015610e1257600080fd5b50610e1b6126fa565b6040518082815260200191505060405180910390f35b348015610e3d57600080fd5b50610e46612700565b005b348015610e5457600080fd5b50610e5d612b3b565b6040518082815260200191505060405180910390f35b348015610e7f57600080fd5b50610e88612b41565b6040518082815260200191505060405180910390f35b348015610eaa57600080fd5b50610edf600480360381019080803573ffffffffffffffffffffffffffffffffffffffff169060200190929190505050612b53565b005b348015610eed57600080fd5b50610f0c60048036038101908080359060200190929190505050612bf2565b005b348015610f1a57600080fd5b50610f3960048036038101908080359060200190929190505050612c57565b604051808381526020018281526020019250505060405180910390f35b348015610f6257600080fd5b50610f97600480360381019080803573ffffffffffffffffffffffffffffffffffffffff169060200190929190505050612c8a565b005b348015610fa557600080fd5b50610fc460048036038101908080359060200190929190505050612ddf565b005b348015610fd257600080fd5b50611007600480360381019080803573ffffffffffffffffffffffffffffffffffffffff169060200190929190505050612e44565b005b34801561101557600080fd5b5061103460048036038101908080359060200190929190505050612ee3565b005b34801561104257600080fd5b5061104b612f48565b604051808273ffffffffffffffffffffffffffffffffffffffff1673ffffffffffffffffffffffffffffffffffffffff16815260200191505060405180910390f35b34801561109957600080fd5b506110a2612f6e565b6040518082815260200191505060405180910390f35b3480156110c457600080fd5b506110e360048036038101908080359060200190929190505050612f74565b6040518082815260200191505060405180910390f35b34801561110557600080fd5b5061110e612f87565b6040518082815260200191505060405180910390f35b6000806000611131612f8d565b9150600e543410151561127f5761114661303d565b9050600073ffffffffffffffffffffffffffffffffffffffff168173ffffffffffffffffffffffffffffffffffffffff1614151561127e57600a60009054906101000a900473ffffffffffffffffffffffffffffffffffffffff1673ffffffffffffffffffffffffffffffffffffffff168173ffffffffffffffffffffffffffffffffffffffff161415801561120857503373ffffffffffffffffffffffffffffffffffffffff168173ffffffffffffffffffffffffffffffffffffffff1614155b801561124057503073ffffffffffffffffffffffffffffffffffffffff168173ffffffffffffffffffffffffffffffffffffffff1614155b151561124b57600080fd5b61127d8161127860035461126a600d548761309790919063ffffffff16565b6130d290919063ffffffff16565b6130ed565b5b5b819250505090565b6000809054906101000a900473ffffffffffffffffffffffffffffffffffffffff1673ffffffffffffffffffffffffffffffffffffffff163373ffffffffffffffffffffffffffffffffffffffff161415156112e257600080fd5b80600d8190555050565b601260009054906101000a900473ffffffffffffffffffffffffffffffffffffffff1681565b6000809054906101000a900473ffffffffffffffffffffffffffffffffffffffff1673ffffffffffffffffffffffffffffffffffffffff163373ffffffffffffffffffffffffffffffffffffffff1614151561136d57600080fd5b80600a60006101000a81548173ffffffffffffffffffffffffffffffffffffffff021916908373ffffffffffffffffffffffffffffffffffffffff16021790555050565b6000809054906101000a900473ffffffffffffffffffffffffffffffffffffffff1673ffffffffffffffffffffffffffffffffffffffff163373ffffffffffffffffffffffffffffffffffffffff1614151561140c57600080fd5b80600e8190555050565b601060009054906101000a900473ffffffffffffffffffffffffffffffffffffffff1681565b600f60009054906101000a900473ffffffffffffffffffffffffffffffffffffffff1681565b60185481565b6000809054906101000a900473ffffffffffffffffffffffffffffffffffffffff1673ffffffffffffffffffffffffffffffffffffffff163373ffffffffffffffffffffffffffffffffffffffff161415156114c357600080fd5b8060188190555050565b6000809054906101000a900473ffffffffffffffffffffffffffffffffffffffff1673ffffffffffffffffffffffffffffffffffffffff163373ffffffffffffffffffffffffffffffffffffffff1614151561152857600080fd5b8060038190555050565b6000809054906101000a900473ffffffffffffffffffffffffffffffffffffffff1673ffffffffffffffffffffffffffffffffffffffff163373ffffffffffffffffffffffffffffffffffffffff1614151561158d57600080fd5b80601060006101000a81548173ffffffffffffffffffffffffffffffffffffffff021916908373ffffffffffffffffffffffffffffffffffffffff16021790555050565b60008060009054906101000a900473ffffffffffffffffffffffffffffffffffffffff1673ffffffffffffffffffffffffffffffffffffffff163373ffffffffffffffffffffffffffffffffffffffff1614151561162e57600080fd5b600060028054905011151561164257600080fd5b600090505b6002805490508110156116915760028181548110151561166357fe5b9060005260206000209060020201600080820160009055600182016000905550508080600101915050611647565b6002805490506002818180549050039150816116ad9190613515565b50600060018190555050565b600560009054906101000a900473ffffffffffffffffffffffffffffffffffffffff1681565b6000806116eb836125d0565b905060008114156116ff5760009150611729565b611726600354611718838761309790919063ffffffff16565b6130d290919063ffffffff16565b91505b5092915050565b6000809054906101000a900473ffffffffffffffffffffffffffffffffffffffff1673ffffffffffffffffffffffffffffffffffffffff163373ffffffffffffffffffffffffffffffffffffffff1614151561178b57600080fd5b60008211151561179a57600080fd5b6002604080519081016040528084815260200183815250908060018154018082558091505090600182039060005260206000209060020201600090919290919091506000820151816000015560208201518160010155505050611808826001546132f390919063ffffffff16565b6001819055505050565b6000809054906101000a900473ffffffffffffffffffffffffffffffffffffffff1673ffffffffffffffffffffffffffffffffffffffff163373ffffffffffffffffffffffffffffffffffffffff1614151561186d57600080fd5b8060178190555050565b600e5481565b60008060009054906101000a900473ffffffffffffffffffffffffffffffffffffffff1673ffffffffffffffffffffffffffffffffffffffff163373ffffffffffffffffffffffffffffffffffffffff161415156118da57600080fd5b8190508073ffffffffffffffffffffffffffffffffffffffff1663a9059cbb848373ffffffffffffffffffffffffffffffffffffffff166370a08231306040518263ffffffff167c0100000000000000000000000000000000000000000000000000000000028152600401808273ffffffffffffffffffffffffffffffffffffffff1673ffffffffffffffffffffffffffffffffffffffff168152602001915050602060405180830381600087803b15801561199557600080fd5b505af11580156119a9573d6000803e3d6000fd5b505050506040513d60208110156119bf57600080fd5b81019080805190602001909291905050506040518363ffffffff167c0100000000000000000000000000000000000000000000000000000000028152600401808373ffffffffffffffffffffffffffffffffffffffff1673ffffffffffffffffffffffffffffffffffffffff16815260200182815260200192505050602060405180830381600087803b158015611a5557600080fd5b505af1158015611a69573d6000803e3d6000fd5b505050506040513d6020811015611a7f57600080fd5b810190808051906020019092919050505050505050565b6000806000839150600090505b600280549050811015611b3a57814210158015611ae6575062015180600282815481101515611ace57fe5b90600052602060002090600202016000015402820142105b15611af357809250611b3f565b611b2b62015180600283815481101515611b0957fe5b90600052602060002090600202016000015402836132f390919063ffffffff16565b91508080600101915050611aa3565b600080fd5b5050919050565b600660009054906101000a900473ffffffffffffffffffffffffffffffffffffffff1681565b600d5481565b6000809054906101000a900473ffffffffffffffffffffffffffffffffffffffff1673ffffffffffffffffffffffffffffffffffffffff163373ffffffffffffffffffffffffffffffffffffffff16141515611bcd57600080fd5b80601260006101000a81548173ffffffffffffffffffffffffffffffffffffffff021916908373ffffffffffffffffffffffffffffffffffffffff16021790555050565b6000809054906101000a900473ffffffffffffffffffffffffffffffffffffffff1673ffffffffffffffffffffffffffffffffffffffff163373ffffffffffffffffffffffffffffffffffffffff16141515611c6c57600080fd5b8060168190555050565b6000809054906101000a900473ffffffffffffffffffffffffffffffffffffffff1673ffffffffffffffffffffffffffffffffffffffff163373ffffffffffffffffffffffffffffffffffffffff16141515611cd157600080fd5b80600660006101000a81548173ffffffffffffffffffffffffffffffffffffffff021916908373ffffffffffffffffffffffffffffffffffffffff16021790555050565b6000809054906101000a900473ffffffffffffffffffffffffffffffffffffffff1673ffffffffffffffffffffffffffffffffffffffff163373ffffffffffffffffffffffffffffffffffffffff16141515611d7057600080fd5b8060148190555050565b60035481565b6000809054906101000a900473ffffffffffffffffffffffffffffffffffffffff1681565b6000809054906101000a900473ffffffffffffffffffffffffffffffffffffffff1673ffffffffffffffffffffffffffffffffffffffff163373ffffffffffffffffffffffffffffffffffffffff16141515611e0057600080fd5b8060078190555050565b601360009054906101000a900473ffffffffffffffffffffffffffffffffffffffff1681565b60175481565b3373ffffffffffffffffffffffffffffffffffffffff16600660009054906101000a900473ffffffffffffffffffffffffffffffffffffffff1673ffffffffffffffffffffffffffffffffffffffff161480611ede57503373ffffffffffffffffffffffffffffffffffffffff166000809054906101000a900473ffffffffffffffffffffffffffffffffffffffff1673ffffffffffffffffffffffffffffffffffffffff16145b1515611ee957600080fd5b611ef382826130ed565b5050565b60008060009054906101000a900473ffffffffffffffffffffffffffffffffffffffff1673ffffffffffffffffffffffffffffffffffffffff163373ffffffffffffffffffffffffffffffffffffffff16141515611f5457600080fd5b6002805490508460ff16101515611f6a57600080fd5b611f7f836001546132f390919063ffffffff16565b60018190555060028054809190600101611f999190613515565b50600280805490500390505b8360ff1681111561201257600281815481101515611fbf57fe5b9060005260206000209060020201600260018301815481101515611fdf57fe5b90600052602060002090600202016000820154816000015560018201548160010155905050808060019003915050611fa5565b60408051908101604052808481526020018381525060026001860160ff1681548110151561203c57fe5b9060005260206000209060020201600082015181600001556020820151816001015590505050505050565b60075481565b6000809054906101000a900473ffffffffffffffffffffffffffffffffffffffff1673ffffffffffffffffffffffffffffffffffffffff163373ffffffffffffffffffffffffffffffffffffffff161415156120c857600080fd5b8060098190555050565b6000806000809054906101000a900473ffffffffffffffffffffffffffffffffffffffff1673ffffffffffffffffffffffffffffffffffffffff163373ffffffffffffffffffffffffffffffffffffffff1614151561213057600080fd5b6002805490508360ff1610151561214657600080fd5b60028360ff1681548110151561215857fe5b90600052602060002090600202019150612181826000015460015461331190919063ffffffff16565b60018190555060028360ff1681548110151561219957fe5b9060005260206000209060020201600080820160009055600182016000905550508260ff1690505b600160028054905003811015612232576002600182018154811015156121e357fe5b906000526020600020906002020160028281548110151561220057fe5b9060005260206000209060020201600082015481600001556001820154816001015590505080806001019150506121c1565b60028054809190600190036122479190613515565b50505050565b6000600280549050905090565b60048181548110151561226957fe5b90600052602060002090600202016000915090508060000154908060010154905082565b600b5481565b60155481565b6000809054906101000a900473ffffffffffffffffffffffffffffffffffffffff1673ffffffffffffffffffffffffffffffffffffffff163373ffffffffffffffffffffffffffffffffffffffff161415156122f457600080fd5b60046040805190810160405280848152602001838152509080600181540180825580915050906001820390600052602060002090600202016000909192909190915060008201518160000155602082015181600101555050505050565b601160009054906101000a900473ffffffffffffffffffffffffffffffffffffffff1681565b60008060009054906101000a900473ffffffffffffffffffffffffffffffffffffffff1673ffffffffffffffffffffffffffffffffffffffff163373ffffffffffffffffffffffffffffffffffffffff161415156123d457600080fd5b6002805490508460ff161015156123ea57600080fd5b60028460ff168154811015156123fc57fe5b90600052602060002090600202019050612425816000015460015461331190919063ffffffff16565b600181905550828160000181905550818160010181905550612452836001546132f390919063ffffffff16565b60018190555050505050565b6000809054906101000a900473ffffffffffffffffffffffffffffffffffffffff1673ffffffffffffffffffffffffffffffffffffffff163373ffffffffffffffffffffffffffffffffffffffff161415156124b957600080fd5b80601160006101000a81548173ffffffffffffffffffffffffffffffffffffffff021916908373ffffffffffffffffffffffffffffffffffffffff16021790555050565b60085481565b60003373ffffffffffffffffffffffffffffffffffffffff16600660009054906101000a900473ffffffffffffffffffffffffffffffffffffffff1673ffffffffffffffffffffffffffffffffffffffff1614806125ad57503373ffffffffffffffffffffffffffffffffffffffff166000809054906101000a900473ffffffffffffffffffffffffffffffffffffffff1673ffffffffffffffffffffffffffffffffffffffff16145b15156125b857600080fd5b6125c2838361332a565b905092915050565b600c5481565b6000806000809150600090505b600480549050811015612650576004818154811015156125f957fe5b9060005260206000209060020201600001548410151561263b5760048181548110151561262257fe5b9060005260206000209060020201600101549150612643565b819250612654565b80806001019150506125dd565b8192505b5050919050565b6000809054906101000a900473ffffffffffffffffffffffffffffffffffffffff1673ffffffffffffffffffffffffffffffffffffffff163373ffffffffffffffffffffffffffffffffffffffff161415156126b657600080fd5b80600f60006101000a81548173ffffffffffffffffffffffffffffffffffffffff021916908373ffffffffffffffffffffffffffffffffffffffff16021790555050565b60015481565b6000806000806000806000806000809054906101000a900473ffffffffffffffffffffffffffffffffffffffff1673ffffffffffffffffffffffffffffffffffffffff163373ffffffffffffffffffffffffffffffffffffffff1614151561276757600080fd5b6127ba6015546127ac60165461279e6018546127906014546017546132f390919063ffffffff16565b6132f390919063ffffffff16565b6132f390919063ffffffff16565b6132f390919063ffffffff16565b9750600a60009054906101000a900473ffffffffffffffffffffffffffffffffffffffff1673ffffffffffffffffffffffffffffffffffffffff166318160ddd6040518163ffffffff167c0100000000000000000000000000000000000000000000000000000000028152600401602060405180830381600087803b15801561284257600080fd5b505af1158015612856573d6000803e3d6000fd5b505050506040513d602081101561286c57600080fd5b810190808051906020019092919050505096506128ba6128978960035461331190919063ffffffff16565b6128ac6003548a61309790919063ffffffff16565b6130d290919063ffffffff16565b95506128e56003546128d76015548961309790919063ffffffff16565b6130d290919063ffffffff16565b94506129106003546129026014548961309790919063ffffffff16565b6130d290919063ffffffff16565b935061293b60035461292d6016548961309790919063ffffffff16565b6130d290919063ffffffff16565b92506129666003546129586018548961309790919063ffffffff16565b6130d290919063ffffffff16565b91506129916003546129836017548961309790919063ffffffff16565b6130d290919063ffffffff16565b90506129bf601160009054906101000a900473ffffffffffffffffffffffffffffffffffffffff16846130ed565b6129eb600f60009054906101000a900473ffffffffffffffffffffffffffffffffffffffff16856130ed565b612a17601060009054906101000a900473ffffffffffffffffffffffffffffffffffffffff16866130ed565b612a43601360009054906101000a900473ffffffffffffffffffffffffffffffffffffffff16826130ed565b612a6f601260009054906101000a900473ffffffffffffffffffffffffffffffffffffffff16836130ed565b600a60009054906101000a900473ffffffffffffffffffffffffffffffffffffffff1673ffffffffffffffffffffffffffffffffffffffff16637d64bcb46040518163ffffffff167c0100000000000000000000000000000000000000000000000000000000028152600401602060405180830381600087803b158015612af557600080fd5b505af1158015612b09573d6000803e3d6000fd5b505050506040513d6020811015612b1f57600080fd5b8101908080519060200190929190505050505050505050505050565b60095481565b6000612b4e600854612f74565b905090565b6000809054906101000a900473ffffffffffffffffffffffffffffffffffffffff1673ffffffffffffffffffffffffffffffffffffffff163373ffffffffffffffffffffffffffffffffffffffff16141515612bae57600080fd5b80600560006101000a81548173ffffffffffffffffffffffffffffffffffffffff021916908373ffffffffffffffffffffffffffffffffffffffff16021790555050565b6000809054906101000a900473ffffffffffffffffffffffffffffffffffffffff1673ffffffffffffffffffffffffffffffffffffffff163373ffffffffffffffffffffffffffffffffffffffff16141515612c4d57600080fd5b80600b8190555050565b600281815481101515612c6657fe5b90600052602060002090600202016000915090508060000154908060010154905082565b6000809054906101000a900473ffffffffffffffffffffffffffffffffffffffff1673ffffffffffffffffffffffffffffffffffffffff163373ffffffffffffffffffffffffffffffffffffffff16141515612ce557600080fd5b600073ffffffffffffffffffffffffffffffffffffffff168173ffffffffffffffffffffffffffffffffffffffff1614151515612d2157600080fd5b8073ffffffffffffffffffffffffffffffffffffffff166000809054906101000a900473ffffffffffffffffffffffffffffffffffffffff1673ffffffffffffffffffffffffffffffffffffffff167f8be0079c531659141344cd1fd0a4f28419497f9722a3daafe3b4186f6b6457e060405160405180910390a3806000806101000a81548173ffffffffffffffffffffffffffffffffffffffff021916908373ffffffffffffffffffffffffffffffffffffffff16021790555050565b6000809054906101000a900473ffffffffffffffffffffffffffffffffffffffff1673ffffffffffffffffffffffffffffffffffffffff163373ffffffffffffffffffffffffffffffffffffffff16141515612e3a57600080fd5b8060088190555050565b6000809054906101000a900473ffffffffffffffffffffffffffffffffffffffff1673ffffffffffffffffffffffffffffffffffffffff163373ffffffffffffffffffffffffffffffffffffffff16141515612e9f57600080fd5b80601360006101000a81548173ffffffffffffffffffffffffffffffffffffffff021916908373ffffffffffffffffffffffffffffffffffffffff16021790555050565b6000809054906101000a900473ffffffffffffffffffffffffffffffffffffffff1673ffffffffffffffffffffffffffffffffffffffff163373ffffffffffffffffffffffffffffffffffffffff16141515612f3e57600080fd5b8060158190555050565b600a60009054906101000a900473ffffffffffffffffffffffffffffffffffffffff1681565b60145481565b6000620151806001540282019050919050565b60165481565b6000346009548110151515612fa157600080fd5b6008544210158015612fb95750612fb6612b41565b42105b1515612fc457600080fd5b600560009054906101000a900473ffffffffffffffffffffffffffffffffffffffff1673ffffffffffffffffffffffffffffffffffffffff166108fc349081150290604051600060405180830381858888f1935050505015801561302c573d6000803e3d6000fd5b50613037333461332a565b91505090565b600060146000369050141561308f576130886000368080601f016020809104026020016040519081016040528093929190818152602001838380828437820191505050505050613379565b9050613094565b600090505b90565b60008060008414156130ac57600091506130cb565b82840290508284828115156130bd57fe5b041415156130c757fe5b8091505b5092915050565b60008082848115156130e057fe5b0490508091505092915050565b600a60009054906101000a900473ffffffffffffffffffffffffffffffffffffffff1673ffffffffffffffffffffffffffffffffffffffff166340c10f1930836040518363ffffffff167c0100000000000000000000000000000000000000000000000000000000028152600401808373ffffffffffffffffffffffffffffffffffffffff1673ffffffffffffffffffffffffffffffffffffffff16815260200182815260200192505050602060405180830381600087803b1580156131b257600080fd5b505af11580156131c6573d6000803e3d6000fd5b505050506040513d60208110156131dc57600080fd5b810190808051906020019092919050505050600a60009054906101000a900473ffffffffffffffffffffffffffffffffffffffff1673ffffffffffffffffffffffffffffffffffffffff1663a9059cbb83836040518363ffffffff167c0100000000000000000000000000000000000000000000000000000000028152600401808373ffffffffffffffffffffffffffffffffffffffff1673ffffffffffffffffffffffffffffffffffffffff16815260200182815260200192505050602060405180830381600087803b1580156132b357600080fd5b505af11580156132c7573d6000803e3d6000fd5b505050506040513d60208110156132dd57600080fd5b8101908080519060200190929190505050505050565b600080828401905083811015151561330757fe5b8091505092915050565b600082821115151561331f57fe5b818303905092915050565b600080600b54600c5410151561333f57600080fd5b61335483600c546132f390919063ffffffff16565b600c8190555061336383613439565b905061336f84826130ed565b8091505092915050565b60008060008060019150601490505b600081111561342e578185600183038151811015156133a357fe5b9060200101517f010000000000000000000000000000000000000000000000000000000000000090047f0100000000000000000000000000000000000000000000000000000000000000027f0100000000000000000000000000000000000000000000000000000000000000900460ff16028301925061010082029150808060019003915050613388565b829350505050919050565b600080600080600061344c600854611a96565b935060028481548110151561345d57fe5b9060005260206000209060020201925061349c670de0b6b3a764000061348e6007548961309790919063ffffffff16565b6130d290919063ffffffff16565b91506134a882876116df565b90506000836001015411156134f7576134f46134e56003546134d786600101548661309790919063ffffffff16565b6130d290919063ffffffff16565b836132f390919063ffffffff16565b91505b61350a81836132f390919063ffffffff16565b945050505050919050565b815481835581811115613542576002028160020283600052602060002091820191016135419190613547565b5b505050565b61357391905b8082111561356f5760008082016000905560018201600090555060020161354d565b5090565b905600a165627a7a72305820450d0ed1c3be67be1b9b9a174f4c8a602ba5a0b15600a1cce7cd1ab27c153b410029",
  "source": "pragma solidity ^0.4.24;\r\n\r\nimport './StagedCrowdsale.sol';\r\nimport './UAECommonSale.sol';\r\n\r\ncontract Mainsale is StagedCrowdsale, UAECommonSale {\r\n\r\n  address public UAEcompanyTokensWallet;\r\n  \r\n  address public SoftwareTokensWallet;\r\n  \r\n  address public ReservesForExchangeTokensWallet;\r\n \r\n  address public MentorsTokensWallet;\r\n\r\n  address public bountyTokensWallet;\r\n\r\n  uint public UAEcompanyTokensPercent;\r\n  \r\n  uint public SoftwareTokensPercent;\r\n  \r\n  uint public ReservesForExchangeTokensPercent;\r\n  \r\n  uint public bountyTokensPercent;\r\n  \r\n  uint public MentorsTokensPercent;\r\n  \r\n  \r\n  function setSoftwareTokensPercent(uint newSoftwareTokensPercent) public onlyOwner {\r\n    SoftwareTokensPercent = newSoftwareTokensPercent;\r\n  }\r\n\r\n  function setReservesForExchangeTokensPercent(uint newReservesForExchangeTokensPercent) public onlyOwner {\r\n    ReservesForExchangeTokensPercent = newReservesForExchangeTokensPercent;\r\n  }\r\n   \r\n  function setUAEcompanyTokensPercent(uint newUAEcompanyTokensPercent) public onlyOwner {\r\n    UAEcompanyTokensPercent = newUAEcompanyTokensPercent;\r\n  }\r\n\r\n  function setMentorsTokensPercent(uint newMentorsTokensPercent) public onlyOwner {\r\n    MentorsTokensPercent = newMentorsTokensPercent;\r\n  }\r\n\r\n function setSoftwareTokensWallet(address newSoftwareTokensWallet) public onlyOwner {\r\n    SoftwareTokensWallet = newSoftwareTokensWallet;\r\n  }\r\n\r\n  function setBountyTokensPercent(uint newBountyTokensPercent) public onlyOwner {\r\n    bountyTokensPercent = newBountyTokensPercent;\r\n  }\r\n \r\n  function setUAEcompanyTokensWallet(address newUAEcompanyTokensWallet) public onlyOwner {\r\n    UAEcompanyTokensWallet = newUAEcompanyTokensWallet;\r\n  }\r\n\r\n function setReservesForExchangeTokensWallet(address newReservesForExchangeTokensWallet) public onlyOwner {\r\n    ReservesForExchangeTokensWallet = newReservesForExchangeTokensWallet;\r\n  }\r\n  \r\n  function setBountyTokensWallet(address newBountyTokensWallet) public onlyOwner {\r\n    bountyTokensWallet = newBountyTokensWallet;\r\n  }\r\n  \r\n  function setMentorsTokensWallet(address newMentorsTokensWallet) public onlyOwner {\r\n    MentorsTokensWallet = newMentorsTokensWallet;\r\n  }\r\n\r\n  function calculateTokens(uint _invested) internal returns(uint) {\r\n    uint milestoneIndex = currentMilestone(start);\r\n    Milestone storage milestone = milestones[milestoneIndex];\r\n    uint tokens = _invested.mul(price).div(1 ether);\r\n    uint valueBonusTokens = getValueBonusTokens(tokens, _invested);\r\n    if(milestone.bonus > 0) {\r\n      tokens = tokens.add(tokens.mul(milestone.bonus).div(percentRate));\r\n    }\r\n    return tokens.add(valueBonusTokens);\r\n  }\r\n\r\n  function finish() public onlyOwner {\r\n    uint summaryTokensPercent = bountyTokensPercent.add(UAEcompanyTokensPercent).add(MentorsTokensPercent).add(ReservesForExchangeTokensPercent).add(SoftwareTokensPercent);\r\n    uint mintedTokens = token.totalSupply();\r\n    uint allTokens = mintedTokens.mul(percentRate).div(percentRate.sub(summaryTokensPercent));\r\n    uint SoftwareTokens = allTokens.mul(SoftwareTokensPercent).div(percentRate);\r\n    uint UAEcompanyTokens = allTokens.mul(UAEcompanyTokensPercent).div(percentRate);\r\n    uint ReservesForExchangeTokens = allTokens.mul(ReservesForExchangeTokensPercent).div(percentRate);\r\n    uint MentorsTokens = allTokens.mul(MentorsTokensPercent).div(percentRate);\r\n    uint bountyTokens = allTokens.mul(bountyTokensPercent).div(percentRate);\r\n    mintTokens(ReservesForExchangeTokensWallet, ReservesForExchangeTokens);\r\n    mintTokens(UAEcompanyTokensWallet, UAEcompanyTokens);\r\n    mintTokens(SoftwareTokensWallet, SoftwareTokens);\r\n    mintTokens(bountyTokensWallet, bountyTokens);\r\n    mintTokens(MentorsTokensWallet, MentorsTokens);\r\n    token.finishMinting();\r\n  }\r\n\r\n  function endSaleDate() public view returns(uint) {\r\n    return lastSaleDate(start);\r\n  }\r\n}",
  "sourcePath": "D:\\dev\\uae\\contracts\\crowdsale\\Mainsale.sol",
  "compiler": {
    "name": "solc",
    "version": "0.4.25+commit.59dbf8f1.Emscripten.clang"
  },
  "schemaVersion": "2.0.2",
  "updatedAt": "2019-01-26T16:32:46.460Z"
}