{
  "contractName": "MinterRoleMock",
  "abi": [
    {
      "constant": false,
      "inputs": [
        {
          "name": "account",
          "type": "address"
        }
      ],
      "name": "addMinter",
      "outputs": [],
      "payable": false,
      "stateMutability": "nonpayable",
      "type": "function"
    },
    {
      "constant": false,
      "inputs": [],
      "name": "renounceMinter",
      "outputs": [],
      "payable": false,
      "stateMutability": "nonpayable",
      "type": "function"
    },
    {
      "constant": true,
      "inputs": [
        {
          "name": "account",
          "type": "address"
        }
      ],
      "name": "isMinter",
      "outputs": [
        {
          "name": "",
          "type": "bool"
        }
      ],
      "payable": false,
      "stateMutability": "view",
      "type": "function"
    },
    {
      "anonymous": false,
      "inputs": [
        {
          "indexed": true,
          "name": "account",
          "type": "address"
        }
      ],
      "name": "MinterAdded",
      "type": "event"
    },
    {
      "anonymous": false,
      "inputs": [
        {
          "indexed": true,
          "name": "account",
          "type": "address"
        }
      ],
      "name": "MinterRemoved",
      "type": "event"
    },
    {
      "constant": false,
      "inputs": [
        {
          "name": "account",
          "type": "address"
        }
      ],
      "name": "removeMinter",
      "outputs": [],
      "payable": false,
      "stateMutability": "nonpayable",
      "type": "function"
    },
    {
      "constant": true,
      "inputs": [],
      "name": "onlyMinterMock",
      "outputs": [],
      "payable": false,
      "stateMutability": "view",
      "type": "function"
    }
  ],
  "bytecode": "0x608060405261001c33610021640100000000026401000000009004565b6101db565b6100428160006100886401000000000261033f179091906401000000009004565b8073ffffffffffffffffffffffffffffffffffffffff167f6ae172837ea30b801fbfcdd4108aa1d5bf8ff775444fd70256b44e6bf3dfc3f660405160405180910390a250565b600073ffffffffffffffffffffffffffffffffffffffff168173ffffffffffffffffffffffffffffffffffffffff16141515156100c457600080fd5b6100dd8282610147640100000000026401000000009004565b1515156100e957600080fd5b60018260000160008373ffffffffffffffffffffffffffffffffffffffff1673ffffffffffffffffffffffffffffffffffffffff16815260200190815260200160002060006101000a81548160ff0219169083151502179055505050565b60008073ffffffffffffffffffffffffffffffffffffffff168273ffffffffffffffffffffffffffffffffffffffff161415151561018457600080fd5b8260000160008373ffffffffffffffffffffffffffffffffffffffff1673ffffffffffffffffffffffffffffffffffffffff16815260200190815260200160002060009054906101000a900460ff16905092915050565b6104ca806101ea6000396000f30060806040526004361061006d576000357c0100000000000000000000000000000000000000000000000000000000900463ffffffff1680633092afd514610072578063983b2d56146100b557806398650275146100f8578063aa271e1a1461010f578063b5dba35b1461016a575b600080fd5b34801561007e57600080fd5b506100b3600480360381019080803573ffffffffffffffffffffffffffffffffffffffff169060200190929190505050610181565b005b3480156100c157600080fd5b506100f6600480360381019080803573ffffffffffffffffffffffffffffffffffffffff16906020019092919050505061018d565b005b34801561010457600080fd5b5061010d6101ad565b005b34801561011b57600080fd5b50610150600480360381019080803573ffffffffffffffffffffffffffffffffffffffff1690602001909291905050506101b8565b604051808215151515815260200191505060405180910390f35b34801561017657600080fd5b5061017f6101d5565b005b61018a816101eb565b50565b610196336101b8565b15156101a157600080fd5b6101aa816101f7565b50565b6101b6336101eb565b565b60006101ce82600061025190919063ffffffff16565b9050919050565b6101de336101b8565b15156101e957600080fd5b565b6101f4816102e5565b50565b61020b81600061033f90919063ffffffff16565b8073ffffffffffffffffffffffffffffffffffffffff167f6ae172837ea30b801fbfcdd4108aa1d5bf8ff775444fd70256b44e6bf3dfc3f660405160405180910390a250565b60008073ffffffffffffffffffffffffffffffffffffffff168273ffffffffffffffffffffffffffffffffffffffff161415151561028e57600080fd5b8260000160008373ffffffffffffffffffffffffffffffffffffffff1673ffffffffffffffffffffffffffffffffffffffff16815260200190815260200160002060009054906101000a900460ff16905092915050565b6102f98160006103ef90919063ffffffff16565b8073ffffffffffffffffffffffffffffffffffffffff167fe94479a9f7e1952cc78f2d6baab678adc1b772d936c6583def489e524cb6669260405160405180910390a250565b600073ffffffffffffffffffffffffffffffffffffffff168173ffffffffffffffffffffffffffffffffffffffff161415151561037b57600080fd5b6103858282610251565b15151561039157600080fd5b60018260000160008373ffffffffffffffffffffffffffffffffffffffff1673ffffffffffffffffffffffffffffffffffffffff16815260200190815260200160002060006101000a81548160ff0219169083151502179055505050565b600073ffffffffffffffffffffffffffffffffffffffff168173ffffffffffffffffffffffffffffffffffffffff161415151561042b57600080fd5b6104358282610251565b151561044057600080fd5b60008260000160008373ffffffffffffffffffffffffffffffffffffffff1673ffffffffffffffffffffffffffffffffffffffff16815260200190815260200160002060006101000a81548160ff02191690831515021790555050505600a165627a7a72305820b2d6c0cc94cfc568f3f464184c49e032603adf052e37fe0969b1e463004bb75d0029",
  "source": "pragma solidity ^0.4.24;\r\n\r\nimport \"../access/roles/MinterRole.sol\";\r\n\r\ncontract MinterRoleMock is MinterRole {\r\n    function removeMinter(address account) public {\r\n        _removeMinter(account);\r\n    }\r\n\r\n    function onlyMinterMock() public view onlyMinter {\r\n    }\r\n\r\n    // Causes a compilation error if super._removeMinter is not internal\r\n    function _removeMinter(address account) internal {\r\n        super._removeMinter(account);\r\n    }\r\n}\r\n",
  "sourcePath": "D:\\dev\\uae\\contracts\\open-zeppelin-contracts\\mocks\\MinterRoleMock.sol",
  "compiler": {
    "name": "solc",
    "version": "0.4.25+commit.59dbf8f1.Emscripten.clang"
  },
  "schemaVersion": "2.0.2",
  "updatedAt": "2019-01-30T13:00:36.567Z"
}