{
  "contractName": "OwnableInterfaceId",
  "abi": [
    {
      "constant": true,
      "inputs": [],
      "name": "getInterfaceId",
      "outputs": [
        {
          "name": "",
          "type": "bytes4"
        }
      ],
      "payable": false,
      "stateMutability": "pure",
      "type": "function"
    }
  ],
  "bytecode": "0x608060405234801561001057600080fd5b506101db806100206000396000f300608060405260043610610041576000357c0100000000000000000000000000000000000000000000000000000000900463ffffffff1680636b9241fc14610046575b600080fd5b34801561005257600080fd5b5061005b6100af565b60405180827bffffffffffffffffffffffffffffffffffffffffffffffffffffffff19167bffffffffffffffffffffffffffffffffffffffffffffffffffffffff1916815260200191505060405180910390f35b6000808073ffffffffffffffffffffffffffffffffffffffff1663f2fde38b90507c0100000000000000000000000000000000000000000000000000000000028173ffffffffffffffffffffffffffffffffffffffff1663715018a690507c0100000000000000000000000000000000000000000000000000000000028273ffffffffffffffffffffffffffffffffffffffff16638f32d59b90507c0100000000000000000000000000000000000000000000000000000000028373ffffffffffffffffffffffffffffffffffffffff16638da5cb5b90507c010000000000000000000000000000000000000000000000000000000002181818915050905600a165627a7a723058208ff152977dcac1d15709706edc195cd079ba8be3a88e98f44ce0fcea4faa45790029",
  "source": "pragma solidity ^0.4.24;\r\n\r\nimport \"../ownership/Ownable.sol\";\r\n\r\n/**\r\n * @title Ownable interface id calculator.\r\n * @dev See the EIP165 specification for more information:\r\n * https://github.com/ethereum/EIPs/blob/master/EIPS/eip-165.md#specification\r\n */\r\ncontract OwnableInterfaceId {\r\n    function getInterfaceId() public pure returns (bytes4) {\r\n        Ownable i;\r\n        return i.owner.selector ^ i.isOwner.selector ^ i.renounceOwnership.selector ^ i.transferOwnership.selector;\r\n    }\r\n}\r\n",
  "sourcePath": "D:\\dev\\uae\\contracts\\open-zeppelin-contracts\\mocks\\OwnableInterfaceId.sol",
  "compiler": {
    "name": "solc",
    "version": "0.4.25+commit.59dbf8f1.Emscripten.clang"
  },
  "schemaVersion": "2.0.2",
  "updatedAt": "2019-01-25T16:27:04.417Z"
}