{
  "contractName": "PaymentSplitter",
  "abi": [
    {
      "inputs": [
        {
          "name": "payees",
          "type": "address[]"
        },
        {
          "name": "shares",
          "type": "uint256[]"
        }
      ],
      "payable": true,
      "stateMutability": "payable",
      "type": "constructor"
    },
    {
      "payable": true,
      "stateMutability": "payable",
      "type": "fallback"
    },
    {
      "anonymous": false,
      "inputs": [
        {
          "indexed": false,
          "name": "account",
          "type": "address"
        },
        {
          "indexed": false,
          "name": "shares",
          "type": "uint256"
        }
      ],
      "name": "PayeeAdded",
      "type": "event"
    },
    {
      "anonymous": false,
      "inputs": [
        {
          "indexed": false,
          "name": "to",
          "type": "address"
        },
        {
          "indexed": false,
          "name": "amount",
          "type": "uint256"
        }
      ],
      "name": "PaymentReleased",
      "type": "event"
    },
    {
      "anonymous": false,
      "inputs": [
        {
          "indexed": false,
          "name": "from",
          "type": "address"
        },
        {
          "indexed": false,
          "name": "amount",
          "type": "uint256"
        }
      ],
      "name": "PaymentReceived",
      "type": "event"
    },
    {
      "constant": true,
      "inputs": [],
      "name": "totalShares",
      "outputs": [
        {
          "name": "",
          "type": "uint256"
        }
      ],
      "payable": false,
      "stateMutability": "view",
      "type": "function"
    },
    {
      "constant": true,
      "inputs": [],
      "name": "totalReleased",
      "outputs": [
        {
          "name": "",
          "type": "uint256"
        }
      ],
      "payable": false,
      "stateMutability": "view",
      "type": "function"
    },
    {
      "constant": true,
      "inputs": [
        {
          "name": "account",
          "type": "address"
        }
      ],
      "name": "shares",
      "outputs": [
        {
          "name": "",
          "type": "uint256"
        }
      ],
      "payable": false,
      "stateMutability": "view",
      "type": "function"
    },
    {
      "constant": true,
      "inputs": [
        {
          "name": "account",
          "type": "address"
        }
      ],
      "name": "released",
      "outputs": [
        {
          "name": "",
          "type": "uint256"
        }
      ],
      "payable": false,
      "stateMutability": "view",
      "type": "function"
    },
    {
      "constant": true,
      "inputs": [
        {
          "name": "index",
          "type": "uint256"
        }
      ],
      "name": "payee",
      "outputs": [
        {
          "name": "",
          "type": "address"
        }
      ],
      "payable": false,
      "stateMutability": "view",
      "type": "function"
    },
    {
      "constant": false,
      "inputs": [
        {
          "name": "account",
          "type": "address"
        }
      ],
      "name": "release",
      "outputs": [],
      "payable": false,
      "stateMutability": "nonpayable",
      "type": "function"
    }
  ],
  "bytecode": "0x60806040526040516109cc3803806109cc833981018060405281019080805182019291906020018051820192919050505060008151835114151561004257600080fd5b6000835111151561005257600080fd5b600090505b82518110156100b4576100a7838281518110151561007157fe5b90602001906020020151838381518110151561008957fe5b906020019060200201516100bc640100000000026401000000009004565b8080600101915050610057565b5050506102b7565b600073ffffffffffffffffffffffffffffffffffffffff168273ffffffffffffffffffffffffffffffffffffffff16141515156100f857600080fd5b60008111151561010757600080fd5b6000600260008473ffffffffffffffffffffffffffffffffffffffff1673ffffffffffffffffffffffffffffffffffffffff1681526020019081526020016000205414151561015557600080fd5b60048290806001815401808255809150509060018203906000526020600020016000909192909190916101000a81548173ffffffffffffffffffffffffffffffffffffffff021916908373ffffffffffffffffffffffffffffffffffffffff1602179055505080600260008473ffffffffffffffffffffffffffffffffffffffff1673ffffffffffffffffffffffffffffffffffffffff168152602001908152602001600020819055506102218160005461029664010000000002610630179091906401000000009004565b6000819055507f40c340f65e17194d14ddddb073d3c9f888e3cb52b5aae0c6c7706b4fbc905fac8282604051808373ffffffffffffffffffffffffffffffffffffffff1673ffffffffffffffffffffffffffffffffffffffff1681526020018281526020019250505060405180910390a15050565b60008082840190508381101515156102ad57600080fd5b8091505092915050565b610706806102c66000396000f300608060405260043610610078576000357c0100000000000000000000000000000000000000000000000000000000900463ffffffff16806319165587146100e55780633a98ef39146101285780638b83209b146101535780639852595c146101c0578063ce7c2ac214610217578063e33b7de31461026e575b7f6ef95f06320e7a25a04a175ca677b7052bdd97131872c2192525a629f51be7703334604051808373ffffffffffffffffffffffffffffffffffffffff1673ffffffffffffffffffffffffffffffffffffffff1681526020018281526020019250505060405180910390a1005b3480156100f157600080fd5b50610126600480360381019080803573ffffffffffffffffffffffffffffffffffffffff169060200190929190505050610299565b005b34801561013457600080fd5b5061013d610548565b6040518082815260200191505060405180910390f35b34801561015f57600080fd5b5061017e60048036038101908080359060200190929190505050610551565b604051808273ffffffffffffffffffffffffffffffffffffffff1673ffffffffffffffffffffffffffffffffffffffff16815260200191505060405180910390f35b3480156101cc57600080fd5b50610201600480360381019080803573ffffffffffffffffffffffffffffffffffffffff169060200190929190505050610594565b6040518082815260200191505060405180910390f35b34801561022357600080fd5b50610258600480360381019080803573ffffffffffffffffffffffffffffffffffffffff1690602001909291905050506105dd565b6040518082815260200191505060405180910390f35b34801561027a57600080fd5b50610283610626565b6040518082815260200191505060405180910390f35b6000806000600260008573ffffffffffffffffffffffffffffffffffffffff1673ffffffffffffffffffffffffffffffffffffffff168152602001908152602001600020541115156102ea57600080fd5b6103166001543073ffffffffffffffffffffffffffffffffffffffff163161063090919063ffffffff16565b91506103cf600360008573ffffffffffffffffffffffffffffffffffffffff1673ffffffffffffffffffffffffffffffffffffffff168152602001908152602001600020546103c16000546103b3600260008973ffffffffffffffffffffffffffffffffffffffff1673ffffffffffffffffffffffffffffffffffffffff168152602001908152602001600020548761065190919063ffffffff16565b61068f90919063ffffffff16565b6106b990919063ffffffff16565b9050600081141515156103e157600080fd5b61043381600360008673ffffffffffffffffffffffffffffffffffffffff1673ffffffffffffffffffffffffffffffffffffffff1681526020019081526020016000205461063090919063ffffffff16565b600360008573ffffffffffffffffffffffffffffffffffffffff1673ffffffffffffffffffffffffffffffffffffffff1681526020019081526020016000208190555061048b8160015461063090919063ffffffff16565b6001819055508273ffffffffffffffffffffffffffffffffffffffff166108fc829081150290604051600060405180830381858888f193505050501580156104d7573d6000803e3d6000fd5b507fdf20fd1e76bc69d672e4814fafb2c449bba3a5369d8359adf9e05e6fde87b0568382604051808373ffffffffffffffffffffffffffffffffffffffff1673ffffffffffffffffffffffffffffffffffffffff1681526020018281526020019250505060405180910390a1505050565b60008054905090565b600060048281548110151561056257fe5b9060005260206000200160009054906101000a900473ffffffffffffffffffffffffffffffffffffffff169050919050565b6000600360008373ffffffffffffffffffffffffffffffffffffffff1673ffffffffffffffffffffffffffffffffffffffff168152602001908152602001600020549050919050565b6000600260008373ffffffffffffffffffffffffffffffffffffffff1673ffffffffffffffffffffffffffffffffffffffff168152602001908152602001600020549050919050565b6000600154905090565b600080828401905083811015151561064757600080fd5b8091505092915050565b60008060008414156106665760009150610688565b828402905082848281151561067757fe5b0414151561068457600080fd5b8091505b5092915050565b6000806000831115156106a157600080fd5b82848115156106ac57fe5b0490508091505092915050565b6000808383111515156106cb57600080fd5b828403905080915050929150505600a165627a7a72305820ab88d214fa00d177b8cb1aeb2c9c0123c7e2da0be8ef00b3c1c277adc6a8cbd70029",
  "source": "pragma solidity ^0.4.24;\r\n\r\nimport \"../math/SafeMath.sol\";\r\n\r\n/**\r\n * @title PaymentSplitter\r\n * @dev This contract can be used when payments need to be received by a group\r\n * of people and split proportionately to some number of shares they own.\r\n */\r\ncontract PaymentSplitter {\r\n    using SafeMath for uint256;\r\n\r\n    event PayeeAdded(address account, uint256 shares);\r\n    event PaymentReleased(address to, uint256 amount);\r\n    event PaymentReceived(address from, uint256 amount);\r\n\r\n    uint256 private _totalShares;\r\n    uint256 private _totalReleased;\r\n\r\n    mapping(address => uint256) private _shares;\r\n    mapping(address => uint256) private _released;\r\n    address[] private _payees;\r\n\r\n    /**\r\n     * @dev Constructor\r\n     */\r\n    constructor (address[] payees, uint256[] shares) public payable {\r\n        require(payees.length == shares.length);\r\n        require(payees.length > 0);\r\n\r\n        for (uint256 i = 0; i < payees.length; i++) {\r\n            _addPayee(payees[i], shares[i]);\r\n        }\r\n    }\r\n\r\n    /**\r\n     * @dev payable fallback\r\n     */\r\n    function () external payable {\r\n        emit PaymentReceived(msg.sender, msg.value);\r\n    }\r\n\r\n    /**\r\n     * @return the total shares of the contract.\r\n     */\r\n    function totalShares() public view returns (uint256) {\r\n        return _totalShares;\r\n    }\r\n\r\n    /**\r\n     * @return the total amount already released.\r\n     */\r\n    function totalReleased() public view returns (uint256) {\r\n        return _totalReleased;\r\n    }\r\n\r\n    /**\r\n     * @return the shares of an account.\r\n     */\r\n    function shares(address account) public view returns (uint256) {\r\n        return _shares[account];\r\n    }\r\n\r\n    /**\r\n     * @return the amount already released to an account.\r\n     */\r\n    function released(address account) public view returns (uint256) {\r\n        return _released[account];\r\n    }\r\n\r\n    /**\r\n     * @return the address of a payee.\r\n     */\r\n    function payee(uint256 index) public view returns (address) {\r\n        return _payees[index];\r\n    }\r\n\r\n    /**\r\n     * @dev Release one of the payee's proportional payment.\r\n     * @param account Whose payments will be released.\r\n     */\r\n    function release(address account) public {\r\n        require(_shares[account] > 0);\r\n\r\n        uint256 totalReceived = address(this).balance.add(_totalReleased);\r\n        uint256 payment = totalReceived.mul(_shares[account]).div(_totalShares).sub(_released[account]);\r\n\r\n        require(payment != 0);\r\n\r\n        _released[account] = _released[account].add(payment);\r\n        _totalReleased = _totalReleased.add(payment);\r\n\r\n        account.transfer(payment);\r\n        emit PaymentReleased(account, payment);\r\n    }\r\n\r\n    /**\r\n     * @dev Add a new payee to the contract.\r\n     * @param account The address of the payee to add.\r\n     * @param shares_ The number of shares owned by the payee.\r\n     */\r\n    function _addPayee(address account, uint256 shares_) private {\r\n        require(account != address(0));\r\n        require(shares_ > 0);\r\n        require(_shares[account] == 0);\r\n\r\n        _payees.push(account);\r\n        _shares[account] = shares_;\r\n        _totalShares = _totalShares.add(shares_);\r\n        emit PayeeAdded(account, shares_);\r\n    }\r\n}\r\n",
  "sourcePath": "D:\\dev\\uae\\contracts\\open-zeppelin-contracts\\payment\\PaymentSplitter.sol",
  "compiler": {
    "name": "solc",
    "version": "0.4.25+commit.59dbf8f1.Emscripten.clang"
  },
  "schemaVersion": "2.0.2",
  "updatedAt": "2019-01-25T16:27:04.445Z"
}