{
  "contractName": "Presale",
  "abi": [
    {
      "constant": false,
      "inputs": [
        {
          "name": "newRefererPercent",
          "type": "uint256"
        }
      ],
      "name": "setRefererPercent",
      "outputs": [],
      "payable": false,
      "stateMutability": "nonpayable",
      "type": "function"
    },
    {
      "constant": false,
      "inputs": [
        {
          "name": "newToken",
          "type": "address"
        }
      ],
      "name": "setToken",
      "outputs": [],
      "payable": false,
      "stateMutability": "nonpayable",
      "type": "function"
    },
    {
      "constant": false,
      "inputs": [
        {
          "name": "newRefereralsMinInvestLimit",
          "type": "uint256"
        }
      ],
      "name": "setReferalsMinInvestLimit",
      "outputs": [],
      "payable": false,
      "stateMutability": "nonpayable",
      "type": "function"
    },
    {
      "constant": false,
      "inputs": [
        {
          "name": "newPercentRate",
          "type": "uint256"
        }
      ],
      "name": "setPercentRate",
      "outputs": [],
      "payable": false,
      "stateMutability": "nonpayable",
      "type": "function"
    },
    {
      "constant": true,
      "inputs": [],
      "name": "wallet",
      "outputs": [
        {
          "name": "",
          "type": "address"
        }
      ],
      "payable": false,
      "stateMutability": "view",
      "type": "function"
    },
    {
      "constant": true,
      "inputs": [
        {
          "name": "tokens",
          "type": "uint256"
        },
        {
          "name": "_invested",
          "type": "uint256"
        }
      ],
      "name": "getValueBonusTokens",
      "outputs": [
        {
          "name": "",
          "type": "uint256"
        }
      ],
      "payable": false,
      "stateMutability": "view",
      "type": "function"
    },
    {
      "constant": true,
      "inputs": [],
      "name": "referalsMinInvestLimit",
      "outputs": [
        {
          "name": "",
          "type": "uint256"
        }
      ],
      "payable": false,
      "stateMutability": "view",
      "type": "function"
    },
    {
      "constant": false,
      "inputs": [
        {
          "name": "to",
          "type": "address"
        },
        {
          "name": "anotherToken",
          "type": "address"
        }
      ],
      "name": "retrieveTokens",
      "outputs": [],
      "payable": false,
      "stateMutability": "nonpayable",
      "type": "function"
    },
    {
      "constant": true,
      "inputs": [],
      "name": "directMintAgent",
      "outputs": [
        {
          "name": "",
          "type": "address"
        }
      ],
      "payable": false,
      "stateMutability": "view",
      "type": "function"
    },
    {
      "constant": true,
      "inputs": [],
      "name": "refererPercent",
      "outputs": [
        {
          "name": "",
          "type": "uint256"
        }
      ],
      "payable": false,
      "stateMutability": "view",
      "type": "function"
    },
    {
      "constant": false,
      "inputs": [
        {
          "name": "newDirectMintAgent",
          "type": "address"
        }
      ],
      "name": "setDirectMintAgent",
      "outputs": [],
      "payable": false,
      "stateMutability": "nonpayable",
      "type": "function"
    },
    {
      "constant": true,
      "inputs": [],
      "name": "percentRate",
      "outputs": [
        {
          "name": "",
          "type": "uint256"
        }
      ],
      "payable": false,
      "stateMutability": "view",
      "type": "function"
    },
    {
      "constant": true,
      "inputs": [],
      "name": "owner",
      "outputs": [
        {
          "name": "",
          "type": "address"
        }
      ],
      "payable": false,
      "stateMutability": "view",
      "type": "function"
    },
    {
      "constant": false,
      "inputs": [
        {
          "name": "newPrice",
          "type": "uint256"
        }
      ],
      "name": "setPrice",
      "outputs": [],
      "payable": false,
      "stateMutability": "nonpayable",
      "type": "function"
    },
    {
      "constant": false,
      "inputs": [
        {
          "name": "to",
          "type": "address"
        },
        {
          "name": "tokens",
          "type": "uint256"
        }
      ],
      "name": "mintTokensExternal",
      "outputs": [],
      "payable": false,
      "stateMutability": "nonpayable",
      "type": "function"
    },
    {
      "constant": true,
      "inputs": [],
      "name": "price",
      "outputs": [
        {
          "name": "",
          "type": "uint256"
        }
      ],
      "payable": false,
      "stateMutability": "view",
      "type": "function"
    },
    {
      "constant": false,
      "inputs": [
        {
          "name": "newMinInvestedLimit",
          "type": "uint256"
        }
      ],
      "name": "setMinInvestedLimit",
      "outputs": [],
      "payable": false,
      "stateMutability": "nonpayable",
      "type": "function"
    },
    {
      "constant": true,
      "inputs": [
        {
          "name": "",
          "type": "uint256"
        }
      ],
      "name": "valueBonuses",
      "outputs": [
        {
          "name": "from",
          "type": "uint256"
        },
        {
          "name": "bonus",
          "type": "uint256"
        }
      ],
      "payable": false,
      "stateMutability": "view",
      "type": "function"
    },
    {
      "constant": true,
      "inputs": [],
      "name": "hardcap",
      "outputs": [
        {
          "name": "",
          "type": "uint256"
        }
      ],
      "payable": false,
      "stateMutability": "view",
      "type": "function"
    },
    {
      "constant": false,
      "inputs": [
        {
          "name": "from",
          "type": "uint256"
        },
        {
          "name": "bonus",
          "type": "uint256"
        }
      ],
      "name": "addValueBonus",
      "outputs": [],
      "payable": false,
      "stateMutability": "nonpayable",
      "type": "function"
    },
    {
      "constant": true,
      "inputs": [],
      "name": "start",
      "outputs": [
        {
          "name": "",
          "type": "uint256"
        }
      ],
      "payable": false,
      "stateMutability": "view",
      "type": "function"
    },
    {
      "constant": false,
      "inputs": [
        {
          "name": "to",
          "type": "address"
        },
        {
          "name": "_invested",
          "type": "uint256"
        }
      ],
      "name": "mintTokensByETHExternal",
      "outputs": [
        {
          "name": "",
          "type": "uint256"
        }
      ],
      "payable": false,
      "stateMutability": "nonpayable",
      "type": "function"
    },
    {
      "constant": true,
      "inputs": [],
      "name": "invested",
      "outputs": [
        {
          "name": "",
          "type": "uint256"
        }
      ],
      "payable": false,
      "stateMutability": "view",
      "type": "function"
    },
    {
      "constant": true,
      "inputs": [
        {
          "name": "value",
          "type": "uint256"
        }
      ],
      "name": "getValueBonus",
      "outputs": [
        {
          "name": "",
          "type": "uint256"
        }
      ],
      "payable": false,
      "stateMutability": "view",
      "type": "function"
    },
    {
      "constant": true,
      "inputs": [],
      "name": "minInvestedLimit",
      "outputs": [
        {
          "name": "",
          "type": "uint256"
        }
      ],
      "payable": false,
      "stateMutability": "view",
      "type": "function"
    },
    {
      "constant": false,
      "inputs": [
        {
          "name": "newWallet",
          "type": "address"
        }
      ],
      "name": "setWallet",
      "outputs": [],
      "payable": false,
      "stateMutability": "nonpayable",
      "type": "function"
    },
    {
      "constant": false,
      "inputs": [
        {
          "name": "newHardcap",
          "type": "uint256"
        }
      ],
      "name": "setHardcap",
      "outputs": [],
      "payable": false,
      "stateMutability": "nonpayable",
      "type": "function"
    },
    {
      "constant": true,
      "inputs": [],
      "name": "period",
      "outputs": [
        {
          "name": "",
          "type": "uint256"
        }
      ],
      "payable": false,
      "stateMutability": "view",
      "type": "function"
    },
    {
      "constant": false,
      "inputs": [
        {
          "name": "newOwner",
          "type": "address"
        }
      ],
      "name": "transferOwnership",
      "outputs": [],
      "payable": false,
      "stateMutability": "nonpayable",
      "type": "function"
    },
    {
      "constant": false,
      "inputs": [
        {
          "name": "newStart",
          "type": "uint256"
        }
      ],
      "name": "setStart",
      "outputs": [],
      "payable": false,
      "stateMutability": "nonpayable",
      "type": "function"
    },
    {
      "constant": true,
      "inputs": [],
      "name": "mainsale",
      "outputs": [
        {
          "name": "",
          "type": "address"
        }
      ],
      "payable": false,
      "stateMutability": "view",
      "type": "function"
    },
    {
      "constant": true,
      "inputs": [],
      "name": "token",
      "outputs": [
        {
          "name": "",
          "type": "address"
        }
      ],
      "payable": false,
      "stateMutability": "view",
      "type": "function"
    },
    {
      "payable": true,
      "stateMutability": "payable",
      "type": "fallback"
    },
    {
      "anonymous": false,
      "inputs": [
        {
          "indexed": true,
          "name": "previousOwner",
          "type": "address"
        },
        {
          "indexed": true,
          "name": "newOwner",
          "type": "address"
        }
      ],
      "name": "OwnershipTransferred",
      "type": "event"
    },
    {
      "constant": false,
      "inputs": [
        {
          "name": "newPeriod",
          "type": "uint256"
        }
      ],
      "name": "setPeriod",
      "outputs": [],
      "payable": false,
      "stateMutability": "nonpayable",
      "type": "function"
    },
    {
      "constant": false,
      "inputs": [
        {
          "name": "newMainsale",
          "type": "address"
        }
      ],
      "name": "setMainsale",
      "outputs": [],
      "payable": false,
      "stateMutability": "nonpayable",
      "type": "function"
    },
    {
      "constant": false,
      "inputs": [],
      "name": "finish",
      "outputs": [],
      "payable": false,
      "stateMutability": "nonpayable",
      "type": "function"
    },
    {
      "constant": true,
      "inputs": [],
      "name": "endSaleDate",
      "outputs": [
        {
          "name": "",
          "type": "uint256"
        }
      ],
      "payable": false,
      "stateMutability": "view",
      "type": "function"
    }
  ],
  "bytecode": "0x60806040526064600155336000806101000a81548173ffffffffffffffffffffffffffffffffffffffff021916908373ffffffffffffffffffffffffffffffffffffffff160217905550611f5d806100586000396000f3006080604052600436106101c2576000357c0100000000000000000000000000000000000000000000000000000000900463ffffffff16806302e2c3b7146101cd5780630f3a9f65146101fa578063144fa6d7146102275780631b4646bf1461026a578063480b890d14610297578063521eb273146102c457806354717ea91461031b5780635cddd93d146103665780636341ca0b146103915780636abc3fe4146103f45780636e8add021461044b5780636ff1f2b81461048e578063769ffb7d146104b95780638090114f146104fc5780638da5cb5b1461052757806391b7f5ed1461057e5780639bf6eb60146105ab578063a035b1fe146105f8578063a34d927014610623578063af78facf14610650578063b071cbe614610698578063b8a4db81146106c3578063be9a6555146106fa578063ca1e5bb714610725578063cafb220214610786578063cd7e3184146107b1578063d56b2889146107f2578063d64196f814610809578063d7d8804314610834578063deaa59df1461085f578063e28fa27d146108a2578063ef78d4fd146108cf578063f2fde38b146108fa578063f6a03ebf1461093d578063f6fc96ad1461096a578063fc0c546a146109c1575b6101ca610a18565b50005b3480156101d957600080fd5b506101f860048036038101908080359060200190929190505050610b7b565b005b34801561020657600080fd5b5061022560048036038101908080359060200190929190505050610be0565b005b34801561023357600080fd5b50610268600480360381019080803573ffffffffffffffffffffffffffffffffffffffff169060200190929190505050610c45565b005b34801561027657600080fd5b5061029560048036038101908080359060200190929190505050610ce4565b005b3480156102a357600080fd5b506102c260048036038101908080359060200190929190505050610d49565b005b3480156102d057600080fd5b506102d9610dae565b604051808273ffffffffffffffffffffffffffffffffffffffff1673ffffffffffffffffffffffffffffffffffffffff16815260200191505060405180910390f35b34801561032757600080fd5b506103506004803603810190808035906020019092919080359060200190929190505050610dd4565b6040518082815260200191505060405180910390f35b34801561037257600080fd5b5061037b610e25565b6040518082815260200191505060405180910390f35b34801561039d57600080fd5b506103f2600480360381019080803573ffffffffffffffffffffffffffffffffffffffff169060200190929190803573ffffffffffffffffffffffffffffffffffffffff169060200190929190505050610e2b565b005b34801561040057600080fd5b50610409611044565b604051808273ffffffffffffffffffffffffffffffffffffffff1673ffffffffffffffffffffffffffffffffffffffff16815260200191505060405180910390f35b34801561045757600080fd5b5061048c600480360381019080803573ffffffffffffffffffffffffffffffffffffffff16906020019092919050505061106a565b005b34801561049a57600080fd5b506104a3611109565b6040518082815260200191505060405180910390f35b3480156104c557600080fd5b506104fa600480360381019080803573ffffffffffffffffffffffffffffffffffffffff16906020019092919050505061110f565b005b34801561050857600080fd5b506105116111ae565b6040518082815260200191505060405180910390f35b34801561053357600080fd5b5061053c6111b4565b604051808273ffffffffffffffffffffffffffffffffffffffff1673ffffffffffffffffffffffffffffffffffffffff16815260200191505060405180910390f35b34801561058a57600080fd5b506105a9600480360381019080803590602001909291905050506111d9565b005b3480156105b757600080fd5b506105f6600480360381019080803573ffffffffffffffffffffffffffffffffffffffff1690602001909291908035906020019092919050505061123e565b005b34801561060457600080fd5b5061060d6112ff565b6040518082815260200191505060405180910390f35b34801561062f57600080fd5b5061064e60048036038101908080359060200190929190505050611305565b005b34801561065c57600080fd5b5061067b6004803603810190808035906020019092919050505061136a565b604051808381526020018281526020019250505060405180910390f35b3480156106a457600080fd5b506106ad61139d565b6040518082815260200191505060405180910390f35b3480156106cf57600080fd5b506106f860048036038101908080359060200190929190803590602001909291905050506113a3565b005b34801561070657600080fd5b5061070f61145b565b6040518082815260200191505060405180910390f35b34801561073157600080fd5b50610770600480360381019080803573ffffffffffffffffffffffffffffffffffffffff16906020019092919080359060200190929190505050611461565b6040518082815260200191505060405180910390f35b34801561079257600080fd5b5061079b611528565b6040518082815260200191505060405180910390f35b3480156107bd57600080fd5b506107dc6004803603810190808035906020019092919050505061152e565b6040518082815260200191505060405180910390f35b3480156107fe57600080fd5b506108076115b9565b005b34801561081557600080fd5b5061081e61170d565b6040518082815260200191505060405180910390f35b34801561084057600080fd5b50610849611713565b6040518082815260200191505060405180910390f35b34801561086b57600080fd5b506108a0600480360381019080803573ffffffffffffffffffffffffffffffffffffffff169060200190929190505050611736565b005b3480156108ae57600080fd5b506108cd600480360381019080803590602001909291905050506117d5565b005b3480156108db57600080fd5b506108e461183a565b6040518082815260200191505060405180910390f35b34801561090657600080fd5b5061093b600480360381019080803573ffffffffffffffffffffffffffffffffffffffff169060200190929190505050611840565b005b34801561094957600080fd5b5061096860048036038101908080359060200190929190505050611995565b005b34801561097657600080fd5b5061097f6119fa565b604051808273ffffffffffffffffffffffffffffffffffffffff1673ffffffffffffffffffffffffffffffffffffffff16815260200191505060405180910390f35b3480156109cd57600080fd5b506109d6611a20565b604051808273ffffffffffffffffffffffffffffffffffffffff1673ffffffffffffffffffffffffffffffffffffffff16815260200191505060405180910390f35b6000806000610a25611a46565b9150600c5434101515610b7357610a3a611af6565b9050600073ffffffffffffffffffffffffffffffffffffffff168173ffffffffffffffffffffffffffffffffffffffff16141515610b7257600860009054906101000a900473ffffffffffffffffffffffffffffffffffffffff1673ffffffffffffffffffffffffffffffffffffffff168173ffffffffffffffffffffffffffffffffffffffff1614158015610afc57503373ffffffffffffffffffffffffffffffffffffffff168173ffffffffffffffffffffffffffffffffffffffff1614155b8015610b3457503073ffffffffffffffffffffffffffffffffffffffff168173ffffffffffffffffffffffffffffffffffffffff1614155b1515610b3f57600080fd5b610b7181610b6c600154610b5e600b5487611b5090919063ffffffff16565b611b8b90919063ffffffff16565b611ba6565b5b5b819250505090565b6000809054906101000a900473ffffffffffffffffffffffffffffffffffffffff1673ffffffffffffffffffffffffffffffffffffffff163373ffffffffffffffffffffffffffffffffffffffff16141515610bd657600080fd5b80600b8190555050565b6000809054906101000a900473ffffffffffffffffffffffffffffffffffffffff1673ffffffffffffffffffffffffffffffffffffffff163373ffffffffffffffffffffffffffffffffffffffff16141515610c3b57600080fd5b80600e8190555050565b6000809054906101000a900473ffffffffffffffffffffffffffffffffffffffff1673ffffffffffffffffffffffffffffffffffffffff163373ffffffffffffffffffffffffffffffffffffffff16141515610ca057600080fd5b80600860006101000a81548173ffffffffffffffffffffffffffffffffffffffff021916908373ffffffffffffffffffffffffffffffffffffffff16021790555050565b6000809054906101000a900473ffffffffffffffffffffffffffffffffffffffff1673ffffffffffffffffffffffffffffffffffffffff163373ffffffffffffffffffffffffffffffffffffffff16141515610d3f57600080fd5b80600c8190555050565b6000809054906101000a900473ffffffffffffffffffffffffffffffffffffffff1673ffffffffffffffffffffffffffffffffffffffff163373ffffffffffffffffffffffffffffffffffffffff16141515610da457600080fd5b8060018190555050565b600360009054906101000a900473ffffffffffffffffffffffffffffffffffffffff1681565b600080610de08361152e565b90506000811415610df45760009150610e1e565b610e1b600154610e0d8387611b5090919063ffffffff16565b611b8b90919063ffffffff16565b91505b5092915050565b600c5481565b60008060009054906101000a900473ffffffffffffffffffffffffffffffffffffffff1673ffffffffffffffffffffffffffffffffffffffff163373ffffffffffffffffffffffffffffffffffffffff16141515610e8857600080fd5b8190508073ffffffffffffffffffffffffffffffffffffffff1663a9059cbb848373ffffffffffffffffffffffffffffffffffffffff166370a08231306040518263ffffffff167c0100000000000000000000000000000000000000000000000000000000028152600401808273ffffffffffffffffffffffffffffffffffffffff1673ffffffffffffffffffffffffffffffffffffffff168152602001915050602060405180830381600087803b158015610f4357600080fd5b505af1158015610f57573d6000803e3d6000fd5b505050506040513d6020811015610f6d57600080fd5b81019080805190602001909291905050506040518363ffffffff167c0100000000000000000000000000000000000000000000000000000000028152600401808373ffffffffffffffffffffffffffffffffffffffff1673ffffffffffffffffffffffffffffffffffffffff16815260200182815260200192505050602060405180830381600087803b15801561100357600080fd5b505af1158015611017573d6000803e3d6000fd5b505050506040513d602081101561102d57600080fd5b810190808051906020019092919050505050505050565b600460009054906101000a900473ffffffffffffffffffffffffffffffffffffffff1681565b6000809054906101000a900473ffffffffffffffffffffffffffffffffffffffff1673ffffffffffffffffffffffffffffffffffffffff163373ffffffffffffffffffffffffffffffffffffffff161415156110c557600080fd5b80600d60006101000a81548173ffffffffffffffffffffffffffffffffffffffff021916908373ffffffffffffffffffffffffffffffffffffffff16021790555050565b600b5481565b6000809054906101000a900473ffffffffffffffffffffffffffffffffffffffff1673ffffffffffffffffffffffffffffffffffffffff163373ffffffffffffffffffffffffffffffffffffffff1614151561116a57600080fd5b80600460006101000a81548173ffffffffffffffffffffffffffffffffffffffff021916908373ffffffffffffffffffffffffffffffffffffffff16021790555050565b60015481565b6000809054906101000a900473ffffffffffffffffffffffffffffffffffffffff1681565b6000809054906101000a900473ffffffffffffffffffffffffffffffffffffffff1673ffffffffffffffffffffffffffffffffffffffff163373ffffffffffffffffffffffffffffffffffffffff1614151561123457600080fd5b8060058190555050565b3373ffffffffffffffffffffffffffffffffffffffff16600460009054906101000a900473ffffffffffffffffffffffffffffffffffffffff1673ffffffffffffffffffffffffffffffffffffffff1614806112e657503373ffffffffffffffffffffffffffffffffffffffff166000809054906101000a900473ffffffffffffffffffffffffffffffffffffffff1673ffffffffffffffffffffffffffffffffffffffff16145b15156112f157600080fd5b6112fb8282611ba6565b5050565b60055481565b6000809054906101000a900473ffffffffffffffffffffffffffffffffffffffff1673ffffffffffffffffffffffffffffffffffffffff163373ffffffffffffffffffffffffffffffffffffffff1614151561136057600080fd5b8060078190555050565b60028181548110151561137957fe5b90600052602060002090600202016000915090508060000154908060010154905082565b60095481565b6000809054906101000a900473ffffffffffffffffffffffffffffffffffffffff1673ffffffffffffffffffffffffffffffffffffffff163373ffffffffffffffffffffffffffffffffffffffff161415156113fe57600080fd5b60026040805190810160405280848152602001838152509080600181540180825580915050906001820390600052602060002090600202016000909192909190915060008201518160000155602082015181600101555050505050565b60065481565b60003373ffffffffffffffffffffffffffffffffffffffff16600460009054906101000a900473ffffffffffffffffffffffffffffffffffffffff1673ffffffffffffffffffffffffffffffffffffffff16148061150b57503373ffffffffffffffffffffffffffffffffffffffff166000809054906101000a900473ffffffffffffffffffffffffffffffffffffffff1673ffffffffffffffffffffffffffffffffffffffff16145b151561151657600080fd5b6115208383611dac565b905092915050565b600a5481565b6000806000809150600090505b6002805490508110156115ae5760028181548110151561155757fe5b906000526020600020906002020160000154841015156115995760028181548110151561158057fe5b90600052602060002090600202016001015491506115a1565b8192506115b2565b808060010191505061153b565b8192505b5050919050565b6000809054906101000a900473ffffffffffffffffffffffffffffffffffffffff1673ffffffffffffffffffffffffffffffffffffffff163373ffffffffffffffffffffffffffffffffffffffff1614151561161457600080fd5b600860009054906101000a900473ffffffffffffffffffffffffffffffffffffffff1673ffffffffffffffffffffffffffffffffffffffff166314133a7c600d60009054906101000a900473ffffffffffffffffffffffffffffffffffffffff166040518263ffffffff167c0100000000000000000000000000000000000000000000000000000000028152600401808273ffffffffffffffffffffffffffffffffffffffff1673ffffffffffffffffffffffffffffffffffffffff168152602001915050600060405180830381600087803b1580156116f357600080fd5b505af1158015611707573d6000803e3d6000fd5b50505050565b60075481565b600061173162015180600e5402600654611dfb90919063ffffffff16565b905090565b6000809054906101000a900473ffffffffffffffffffffffffffffffffffffffff1673ffffffffffffffffffffffffffffffffffffffff163373ffffffffffffffffffffffffffffffffffffffff1614151561179157600080fd5b80600360006101000a81548173ffffffffffffffffffffffffffffffffffffffff021916908373ffffffffffffffffffffffffffffffffffffffff16021790555050565b6000809054906101000a900473ffffffffffffffffffffffffffffffffffffffff1673ffffffffffffffffffffffffffffffffffffffff163373ffffffffffffffffffffffffffffffffffffffff1614151561183057600080fd5b8060098190555050565b600e5481565b6000809054906101000a900473ffffffffffffffffffffffffffffffffffffffff1673ffffffffffffffffffffffffffffffffffffffff163373ffffffffffffffffffffffffffffffffffffffff1614151561189b57600080fd5b600073ffffffffffffffffffffffffffffffffffffffff168173ffffffffffffffffffffffffffffffffffffffff16141515156118d757600080fd5b8073ffffffffffffffffffffffffffffffffffffffff166000809054906101000a900473ffffffffffffffffffffffffffffffffffffffff1673ffffffffffffffffffffffffffffffffffffffff167f8be0079c531659141344cd1fd0a4f28419497f9722a3daafe3b4186f6b6457e060405160405180910390a3806000806101000a81548173ffffffffffffffffffffffffffffffffffffffff021916908373ffffffffffffffffffffffffffffffffffffffff16021790555050565b6000809054906101000a900473ffffffffffffffffffffffffffffffffffffffff1673ffffffffffffffffffffffffffffffffffffffff163373ffffffffffffffffffffffffffffffffffffffff161415156119f057600080fd5b8060068190555050565b600d60009054906101000a900473ffffffffffffffffffffffffffffffffffffffff1681565b600860009054906101000a900473ffffffffffffffffffffffffffffffffffffffff1681565b6000346007548110151515611a5a57600080fd5b6006544210158015611a725750611a6f611713565b42105b1515611a7d57600080fd5b600360009054906101000a900473ffffffffffffffffffffffffffffffffffffffff1673ffffffffffffffffffffffffffffffffffffffff166108fc349081150290604051600060405180830381858888f19350505050158015611ae5573d6000803e3d6000fd5b50611af03334611dac565b91505090565b6000601460003690501415611b4857611b416000368080601f016020809104026020016040519081016040528093929190818152602001838380828437820191505050505050611e19565b9050611b4d565b600090505b90565b6000806000841415611b655760009150611b84565b8284029050828482811515611b7657fe5b04141515611b8057fe5b8091505b5092915050565b6000808284811515611b9957fe5b0490508091505092915050565b600860009054906101000a900473ffffffffffffffffffffffffffffffffffffffff1673ffffffffffffffffffffffffffffffffffffffff166340c10f1930836040518363ffffffff167c0100000000000000000000000000000000000000000000000000000000028152600401808373ffffffffffffffffffffffffffffffffffffffff1673ffffffffffffffffffffffffffffffffffffffff16815260200182815260200192505050602060405180830381600087803b158015611c6b57600080fd5b505af1158015611c7f573d6000803e3d6000fd5b505050506040513d6020811015611c9557600080fd5b810190808051906020019092919050505050600860009054906101000a900473ffffffffffffffffffffffffffffffffffffffff1673ffffffffffffffffffffffffffffffffffffffff1663a9059cbb83836040518363ffffffff167c0100000000000000000000000000000000000000000000000000000000028152600401808373ffffffffffffffffffffffffffffffffffffffff1673ffffffffffffffffffffffffffffffffffffffff16815260200182815260200192505050602060405180830381600087803b158015611d6c57600080fd5b505af1158015611d80573d6000803e3d6000fd5b505050506040513d6020811015611d9657600080fd5b8101908080519060200190929190505050505050565b600080600954600a54101515611dc157600080fd5b611dd683600a54611dfb90919063ffffffff16565b600a81905550611de583611ed9565b9050611df18482611ba6565b8091505092915050565b6000808284019050838110151515611e0f57fe5b8091505092915050565b60008060008060019150601490505b6000811115611ece57818560018303815181101515611e4357fe5b9060200101517f010000000000000000000000000000000000000000000000000000000000000090047f0100000000000000000000000000000000000000000000000000000000000000027f0100000000000000000000000000000000000000000000000000000000000000900460ff16028301925061010082029150808060019003915050611e28565b829350505050919050565b600080611f0b670de0b6b3a7640000611efd60055486611b5090919063ffffffff16565b611b8b90919063ffffffff16565b9050611f29611f1a8285610dd4565b82611dfb90919063ffffffff16565b9150509190505600a165627a7a72305820354a8bfba490ea212a09fd5ab1d600ff4f9d1473b2ee8738403f0d19df76a83e0029",
  "source": "pragma solidity ^0.4.24;\r\n\r\nimport './UAECommonSale.sol';\r\nimport './Mainsale.sol';\r\n\r\ncontract Presale is UAECommonSale {\r\n\r\n  Mainsale public mainsale;\r\n\r\n  uint public period;\r\n\r\n  function calculateTokens(uint _invested) internal returns(uint) {\r\n    uint tokens = _invested.mul(price).div(1 ether);\r\n    return tokens.add(getValueBonusTokens(tokens, _invested));\r\n  }\r\n\r\n  function setPeriod(uint newPeriod) public onlyOwner {\r\n    period = newPeriod;\r\n  }\r\n\r\n  function setMainsale(address newMainsale) public onlyOwner {\r\n    mainsale = Mainsale(newMainsale);\r\n  }\r\n\r\n  function finish() public onlyOwner {\r\n    token.setSaleAgent(mainsale);\r\n  }\r\n\r\n  function endSaleDate() public view returns(uint) {\r\n    return start.add(period * 1 days);\r\n  }\r\n\r\n}",
  "sourcePath": "D:\\dev\\uae\\contracts\\crowdsale\\Presale.sol",
  "compiler": {
    "name": "solc",
    "version": "0.4.25+commit.59dbf8f1.Emscripten.clang"
  },
  "schemaVersion": "2.0.2",
  "updatedAt": "2019-01-26T16:32:46.458Z"
}