{
  "contractName": "ReentrancyMock",
  "abi": [
    {
      "constant": true,
      "inputs": [],
      "name": "counter",
      "outputs": [
        {
          "name": "",
          "type": "uint256"
        }
      ],
      "payable": false,
      "stateMutability": "view",
      "type": "function"
    },
    {
      "inputs": [],
      "payable": false,
      "stateMutability": "nonpayable",
      "type": "constructor"
    },
    {
      "constant": false,
      "inputs": [],
      "name": "callback",
      "outputs": [],
      "payable": false,
      "stateMutability": "nonpayable",
      "type": "function"
    },
    {
      "constant": false,
      "inputs": [
        {
          "name": "n",
          "type": "uint256"
        }
      ],
      "name": "countLocalRecursive",
      "outputs": [],
      "payable": false,
      "stateMutability": "nonpayable",
      "type": "function"
    },
    {
      "constant": false,
      "inputs": [
        {
          "name": "n",
          "type": "uint256"
        }
      ],
      "name": "countThisRecursive",
      "outputs": [],
      "payable": false,
      "stateMutability": "nonpayable",
      "type": "function"
    },
    {
      "constant": false,
      "inputs": [
        {
          "name": "attacker",
          "type": "address"
        }
      ],
      "name": "countAndCall",
      "outputs": [],
      "payable": false,
      "stateMutability": "nonpayable",
      "type": "function"
    }
  ],
  "bytecode": "0x608060405234801561001057600080fd5b50600160008190555060006001819055506104ad806100306000396000f30060806040526004361061006d576000357c0100000000000000000000000000000000000000000000000000000000900463ffffffff168063083b27321461007257806361bc221a146100895780638c5344fa146100b457806396ffa690146100e1578063b672ad8b1461010e575b600080fd5b34801561007e57600080fd5b50610087610151565b005b34801561009557600080fd5b5061009e610183565b6040518082815260200191505060405180910390f35b3480156100c057600080fd5b506100df60048036038101908080359060200190929190505050610189565b005b3480156100ed57600080fd5b5061010c600480360381019080803590602001909291905050506102f4565b005b34801561011a57600080fd5b5061014f600480360381019080803573ffffffffffffffffffffffffffffffffffffffff16906020019092919050505061033d565b005b600060016000808282540192505081905550600054905061017061046f565b6000548114151561018057600080fd5b50565b60015481565b60008060016000808282540192505081905550600054905060008311156102df576101b261046f565b3073ffffffffffffffffffffffffffffffffffffffff1660018403604051602401808281526020019150506040516020818303038152906040527f8c5344fa000000000000000000000000000000000000000000000000000000007bffffffffffffffffffffffffffffffffffffffffffffffffffffffff19166020820180517bffffffffffffffffffffffffffffffffffffffffffffffffffffffff838183161783525050505060405180828051906020019080838360005b8381101561028757808201518184015260208101905061026c565b50505050905090810190601f1680156102b45780820380516001836020036101000a031916815260200191505b509150506000604051808303816000865af19150509150600115158215151415156102de57600080fd5b5b600054811415156102ef57600080fd5b505050565b600060016000808282540192505081905550600054905060008211156103295761031c61046f565b610328600183036102f4565b5b6000548114151561033957600080fd5b5050565b60008060016000808282540192505081905550600054905061035d61046f565b60405180807f63616c6c6261636b282900000000000000000000000000000000000000000000815250600a019050604051809103902091508273ffffffffffffffffffffffffffffffffffffffff16630a2df1ed836040518263ffffffff167c010000000000000000000000000000000000000000000000000000000002815260040180827bffffffffffffffffffffffffffffffffffffffffffffffffffffffff19167bffffffffffffffffffffffffffffffffffffffffffffffffffffffff19168152602001915050600060405180830381600087803b15801561044257600080fd5b505af1158015610456573d6000803e3d6000fd5b505050506000548114151561046a57600080fd5b505050565b600180600082825401925050819055505600a165627a7a723058206d042cac1cd9f6e7c23f8cd57c527a9e4db910a0f0a4f227c61ef52a56a5e4fa0029",
  "source": "pragma solidity ^0.4.24;\r\n\r\nimport \"../utils/ReentrancyGuard.sol\";\r\nimport \"./ReentrancyAttack.sol\";\r\n\r\ncontract ReentrancyMock is ReentrancyGuard {\r\n    uint256 public counter;\r\n\r\n    constructor () public {\r\n        counter = 0;\r\n    }\r\n\r\n    function callback() external nonReentrant {\r\n        count();\r\n    }\r\n\r\n    function countLocalRecursive(uint256 n) public nonReentrant {\r\n        if (n > 0) {\r\n            count();\r\n            countLocalRecursive(n - 1);\r\n        }\r\n    }\r\n\r\n    function countThisRecursive(uint256 n) public nonReentrant {\r\n        if (n > 0) {\r\n            count();\r\n            // solium-disable-next-line security/no-low-level-calls\r\n            bool result = address(this).call(abi.encodeWithSignature(\"countThisRecursive(uint256)\", n - 1));\r\n            require(result == true);\r\n        }\r\n    }\r\n\r\n    function countAndCall(ReentrancyAttack attacker) public nonReentrant {\r\n        count();\r\n        bytes4 func = bytes4(keccak256(\"callback()\"));\r\n        attacker.callSender(func);\r\n    }\r\n\r\n    function count() private {\r\n        counter += 1;\r\n    }\r\n}\r\n",
  "sourcePath": "D:\\dev\\uae\\contracts\\open-zeppelin-contracts\\mocks\\ReentrancyMock.sol",
  "compiler": {
    "name": "solc",
    "version": "0.4.25+commit.59dbf8f1.Emscripten.clang"
  },
  "schemaVersion": "2.0.2",
  "updatedAt": "2019-01-27T15:59:11.410Z"
}