{
  "contractName": "RefundablePostDeliveryCrowdsaleImpl",
  "abi": [
    {
      "constant": true,
      "inputs": [],
      "name": "hasClosed",
      "outputs": [
        {
          "name": "",
          "type": "bool"
        }
      ],
      "payable": false,
      "stateMutability": "view",
      "type": "function"
    },
    {
      "constant": true,
      "inputs": [],
      "name": "rate",
      "outputs": [
        {
          "name": "",
          "type": "uint256"
        }
      ],
      "payable": false,
      "stateMutability": "view",
      "type": "function"
    },
    {
      "constant": true,
      "inputs": [],
      "name": "goal",
      "outputs": [
        {
          "name": "",
          "type": "uint256"
        }
      ],
      "payable": false,
      "stateMutability": "view",
      "type": "function"
    },
    {
      "constant": true,
      "inputs": [],
      "name": "weiRaised",
      "outputs": [
        {
          "name": "",
          "type": "uint256"
        }
      ],
      "payable": false,
      "stateMutability": "view",
      "type": "function"
    },
    {
      "constant": true,
      "inputs": [],
      "name": "isOpen",
      "outputs": [
        {
          "name": "",
          "type": "bool"
        }
      ],
      "payable": false,
      "stateMutability": "view",
      "type": "function"
    },
    {
      "constant": false,
      "inputs": [
        {
          "name": "beneficiary",
          "type": "address"
        }
      ],
      "name": "withdrawTokens",
      "outputs": [],
      "payable": false,
      "stateMutability": "nonpayable",
      "type": "function"
    },
    {
      "constant": true,
      "inputs": [],
      "name": "closingTime",
      "outputs": [
        {
          "name": "",
          "type": "uint256"
        }
      ],
      "payable": false,
      "stateMutability": "view",
      "type": "function"
    },
    {
      "constant": false,
      "inputs": [],
      "name": "finalize",
      "outputs": [],
      "payable": false,
      "stateMutability": "nonpayable",
      "type": "function"
    },
    {
      "constant": true,
      "inputs": [],
      "name": "wallet",
      "outputs": [
        {
          "name": "",
          "type": "address"
        }
      ],
      "payable": false,
      "stateMutability": "view",
      "type": "function"
    },
    {
      "constant": true,
      "inputs": [
        {
          "name": "account",
          "type": "address"
        }
      ],
      "name": "balanceOf",
      "outputs": [
        {
          "name": "",
          "type": "uint256"
        }
      ],
      "payable": false,
      "stateMutability": "view",
      "type": "function"
    },
    {
      "constant": true,
      "inputs": [],
      "name": "goalReached",
      "outputs": [
        {
          "name": "",
          "type": "bool"
        }
      ],
      "payable": false,
      "stateMutability": "view",
      "type": "function"
    },
    {
      "constant": true,
      "inputs": [],
      "name": "finalized",
      "outputs": [
        {
          "name": "",
          "type": "bool"
        }
      ],
      "payable": false,
      "stateMutability": "view",
      "type": "function"
    },
    {
      "constant": true,
      "inputs": [],
      "name": "openingTime",
      "outputs": [
        {
          "name": "",
          "type": "uint256"
        }
      ],
      "payable": false,
      "stateMutability": "view",
      "type": "function"
    },
    {
      "constant": false,
      "inputs": [
        {
          "name": "refundee",
          "type": "address"
        }
      ],
      "name": "claimRefund",
      "outputs": [],
      "payable": false,
      "stateMutability": "nonpayable",
      "type": "function"
    },
    {
      "constant": false,
      "inputs": [],
      "name": "beneficiaryWithdrawBeforeClosing",
      "outputs": [],
      "payable": false,
      "stateMutability": "nonpayable",
      "type": "function"
    },
    {
      "constant": false,
      "inputs": [
        {
          "name": "beneficiary",
          "type": "address"
        }
      ],
      "name": "buyTokens",
      "outputs": [],
      "payable": true,
      "stateMutability": "payable",
      "type": "function"
    },
    {
      "constant": true,
      "inputs": [],
      "name": "token",
      "outputs": [
        {
          "name": "",
          "type": "address"
        }
      ],
      "payable": false,
      "stateMutability": "view",
      "type": "function"
    },
    {
      "inputs": [
        {
          "name": "openingTime",
          "type": "uint256"
        },
        {
          "name": "closingTime",
          "type": "uint256"
        },
        {
          "name": "rate",
          "type": "uint256"
        },
        {
          "name": "wallet",
          "type": "address"
        },
        {
          "name": "token",
          "type": "address"
        },
        {
          "name": "goal",
          "type": "uint256"
        }
      ],
      "payable": false,
      "stateMutability": "nonpayable",
      "type": "constructor"
    },
    {
      "payable": true,
      "stateMutability": "payable",
      "type": "fallback"
    },
    {
      "anonymous": false,
      "inputs": [],
      "name": "CrowdsaleFinalized",
      "type": "event"
    },
    {
      "anonymous": false,
      "inputs": [
        {
          "indexed": true,
          "name": "purchaser",
          "type": "address"
        },
        {
          "indexed": true,
          "name": "beneficiary",
          "type": "address"
        },
        {
          "indexed": false,
          "name": "value",
          "type": "uint256"
        },
        {
          "indexed": false,
          "name": "amount",
          "type": "uint256"
        }
      ],
      "name": "TokensPurchased",
      "type": "event"
    }
  ],
  "bytecode": "0x608060405234801561001057600080fd5b5060405160c0806200208a833981018060405281019080805190602001909291908051906020019092919080519060200190929190805190602001909291908051906020019092919080519060200190929190505050808686868686600160008190555060008311151561008357600080fd5b600073ffffffffffffffffffffffffffffffffffffffff168273ffffffffffffffffffffffffffffffffffffffff16141515156100bf57600080fd5b600073ffffffffffffffffffffffffffffffffffffffff168173ffffffffffffffffffffffffffffffffffffffff16141515156100fb57600080fd5b8260038190555081600260006101000a81548173ffffffffffffffffffffffffffffffffffffffff021916908373ffffffffffffffffffffffffffffffffffffffff16021790555080600160006101000a81548173ffffffffffffffffffffffffffffffffffffffff021916908373ffffffffffffffffffffffffffffffffffffffff16021790555050505042821015151561019657600080fd5b81811115156101a457600080fd5b816005819055508060068190555050506000600760006101000a81548160ff0219169083151502179055506000811115156101de57600080fd5b6101f56102a3640100000000026401000000009004565b6101fd6102cd565b808273ffffffffffffffffffffffffffffffffffffffff1673ffffffffffffffffffffffffffffffffffffffff168152602001915050604051809103906000f08015801561024f573d6000803e3d6000fd5b50600960006101000a81548173ffffffffffffffffffffffffffffffffffffffff021916908373ffffffffffffffffffffffffffffffffffffffff16021790555080600881905550505050505050506102de565b6000600260009054906101000a900473ffffffffffffffffffffffffffffffffffffffff16905090565b604051610e1f806200126b83390190565b610f7d80620002ee6000396000f3006080604052600436106100f1576000357c0100000000000000000000000000000000000000000000000000000000900463ffffffff1680631515bc2b146100fc5780632c4e722e1461012b57806340193883146101565780634042b66f1461018157806347535d7b146101ac57806349df728c146101db5780634b6753bc1461021e5780634bb278f314610249578063521eb2731461026057806370a08231146102b75780637d3d65221461030e578063b3f05b971461033d578063b7a8807c1461036c578063bffa55d514610397578063d2c7200b146103da578063ec8ac4d8146103f1578063fc0c546a14610427575b6100fa3361047e565b005b34801561010857600080fd5b50610111610574565b604051808215151515815260200191505060405180910390f35b34801561013757600080fd5b50610140610580565b6040518082815260200191505060405180910390f35b34801561016257600080fd5b5061016b61058a565b6040518082815260200191505060405180910390f35b34801561018d57600080fd5b50610196610594565b6040518082815260200191505060405180910390f35b3480156101b857600080fd5b506101c161059e565b604051808215151515815260200191505060405180910390f35b3480156101e757600080fd5b5061021c600480360381019080803573ffffffffffffffffffffffffffffffffffffffff1690602001909291905050506105b9565b005b34801561022a57600080fd5b506102336105eb565b6040518082815260200191505060405180910390f35b34801561025557600080fd5b5061025e6105f5565b005b34801561026c57600080fd5b50610275610675565b604051808273ffffffffffffffffffffffffffffffffffffffff1673ffffffffffffffffffffffffffffffffffffffff16815260200191505060405180910390f35b3480156102c357600080fd5b506102f8600480360381019080803573ffffffffffffffffffffffffffffffffffffffff16906020019092919050505061069f565b6040518082815260200191505060405180910390f35b34801561031a57600080fd5b506103236106e8565b604051808215151515815260200191505060405180910390f35b34801561034957600080fd5b506103526106fc565b604051808215151515815260200191505060405180910390f35b34801561037857600080fd5b50610381610713565b6040518082815260200191505060405180910390f35b3480156103a357600080fd5b506103d8600480360381019080803573ffffffffffffffffffffffffffffffffffffffff16906020019092919050505061071d565b005b3480156103e657600080fd5b506103ef61081c565b005b610425600480360381019080803573ffffffffffffffffffffffffffffffffffffffff16906020019092919050505061047e565b005b34801561043357600080fd5b5061043c6108cf565b604051808273ffffffffffffffffffffffffffffffffffffffff1673ffffffffffffffffffffffffffffffffffffffff16815260200191505060405180910390f35b60008060006001600080828254019250508190555060005490503492506104a584846108f9565b6104ae8361091a565b91506104c58360045461093890919063ffffffff16565b6004819055506104d58483610959565b8373ffffffffffffffffffffffffffffffffffffffff163373ffffffffffffffffffffffffffffffffffffffff167f6faf93231a456e552dbc9961f58d9713ee4f2e69d15f1975b050ef0911053a7b8585604051808381526020018281526020019250505060405180910390a361054c84846109f2565b6105546109f6565b61055e8484610ace565b6000548114151561056e57600080fd5b50505050565b60006006544211905090565b6000600354905090565b6000600854905090565b6000600454905090565b600060055442101580156105b457506006544211155b905090565b6105c16106fc565b15156105cc57600080fd5b6105d46106e8565b15156105df57600080fd5b6105e881610ad2565b50565b6000600654905090565b600760009054906101000a900460ff1615151561061157600080fd5b610619610574565b151561062457600080fd5b6001600760006101000a81548160ff021916908315150217905550610647610b8b565b7f9270cc390c096600a1c17c44345a1ba689fafd99d97487b10cfccf86cf73183660405160405180910390a1565b6000600260009054906101000a900473ffffffffffffffffffffffffffffffffffffffff16905090565b6000600a60008373ffffffffffffffffffffffffffffffffffffffff1673ffffffffffffffffffffffffffffffffffffffff168152602001908152602001600020549050919050565b60006008546106f5610594565b1015905090565b6000600760009054906101000a900460ff16905090565b6000600554905090565b6107256106fc565b151561073057600080fd5b6107386106e8565b15151561074457600080fd5b600960009054906101000a900473ffffffffffffffffffffffffffffffffffffffff1673ffffffffffffffffffffffffffffffffffffffff166351cff8d9826040518263ffffffff167c0100000000000000000000000000000000000000000000000000000000028152600401808273ffffffffffffffffffffffffffffffffffffffff1673ffffffffffffffffffffffffffffffffffffffff168152602001915050600060405180830381600087803b15801561080157600080fd5b505af1158015610815573d6000803e3d6000fd5b5050505050565b6108246106e8565b151561082f57600080fd5b600960009054906101000a900473ffffffffffffffffffffffffffffffffffffffff1673ffffffffffffffffffffffffffffffffffffffff1663d2c7200b6040518163ffffffff167c0100000000000000000000000000000000000000000000000000000000028152600401600060405180830381600087803b1580156108b557600080fd5b505af11580156108c9573d6000803e3d6000fd5b50505050565b6000600160009054906101000a900473ffffffffffffffffffffffffffffffffffffffff16905090565b61090161059e565b151561090c57600080fd5b6109168282610d82565b5050565b600061093160035483610dd290919063ffffffff16565b9050919050565b600080828401905083811015151561094f57600080fd5b8091505092915050565b6109ab81600a60008573ffffffffffffffffffffffffffffffffffffffff1673ffffffffffffffffffffffffffffffffffffffff1681526020019081526020016000205461093890919063ffffffff16565b600a60008473ffffffffffffffffffffffffffffffffffffffff1673ffffffffffffffffffffffffffffffffffffffff168152602001908152602001600020819055505050565b5050565b600960009054906101000a900473ffffffffffffffffffffffffffffffffffffffff1673ffffffffffffffffffffffffffffffffffffffff1663f340fa0134336040518363ffffffff167c0100000000000000000000000000000000000000000000000000000000028152600401808273ffffffffffffffffffffffffffffffffffffffff1673ffffffffffffffffffffffffffffffffffffffff1681526020019150506000604051808303818588803b158015610ab357600080fd5b505af1158015610ac7573d6000803e3d6000fd5b5050505050565b5050565b6000610adc610574565b1515610ae757600080fd5b600a60008373ffffffffffffffffffffffffffffffffffffffff1673ffffffffffffffffffffffffffffffffffffffff168152602001908152602001600020549050600081111515610b3857600080fd5b6000600a60008473ffffffffffffffffffffffffffffffffffffffff1673ffffffffffffffffffffffffffffffffffffffff16815260200190815260200160002081905550610b878282610e10565b5050565b610b936106e8565b15610cd957600960009054906101000a900473ffffffffffffffffffffffffffffffffffffffff1673ffffffffffffffffffffffffffffffffffffffff166343d726d66040518163ffffffff167c0100000000000000000000000000000000000000000000000000000000028152600401600060405180830381600087803b158015610c1e57600080fd5b505af1158015610c32573d6000803e3d6000fd5b50505050600960009054906101000a900473ffffffffffffffffffffffffffffffffffffffff1673ffffffffffffffffffffffffffffffffffffffff16639af6549a6040518163ffffffff167c0100000000000000000000000000000000000000000000000000000000028152600401600060405180830381600087803b158015610cbc57600080fd5b505af1158015610cd0573d6000803e3d6000fd5b50505050610d78565b600960009054906101000a900473ffffffffffffffffffffffffffffffffffffffff1673ffffffffffffffffffffffffffffffffffffffff16638c52dc416040518163ffffffff167c0100000000000000000000000000000000000000000000000000000000028152600401600060405180830381600087803b158015610d5f57600080fd5b505af1158015610d73573d6000803e3d6000fd5b505050505b610d80610e61565b565b600073ffffffffffffffffffffffffffffffffffffffff168273ffffffffffffffffffffffffffffffffffffffff1614151515610dbe57600080fd5b60008114151515610dce57600080fd5b5050565b6000806000841415610de75760009150610e09565b8284029050828482811515610df857fe5b04141515610e0557600080fd5b8091505b5092915050565b610e5d8282600160009054906101000a900473ffffffffffffffffffffffffffffffffffffffff1673ffffffffffffffffffffffffffffffffffffffff16610e639092919063ffffffff16565b5050565b565b8273ffffffffffffffffffffffffffffffffffffffff1663a9059cbb83836040518363ffffffff167c0100000000000000000000000000000000000000000000000000000000028152600401808373ffffffffffffffffffffffffffffffffffffffff1673ffffffffffffffffffffffffffffffffffffffff16815260200182815260200192505050602060405180830381600087803b158015610f0657600080fd5b505af1158015610f1a573d6000803e3d6000fd5b505050506040513d6020811015610f3057600080fd5b81019080805190602001909291905050501515610f4c57600080fd5b5050505600a165627a7a723058205b45cb523fe3f8aac5328fad2d561526a4e3176c6606a8f5c3892d1fba4fac8c0029608060405234801561001057600080fd5b50604051602080610e1f83398101806040528101908080519060200190929190505050336000806101000a81548173ffffffffffffffffffffffffffffffffffffffff021916908373ffffffffffffffffffffffffffffffffffffffff1602179055507f4101e71e974f68df5e9730cc223280b41654676bbb052cdcc735c3337e64d2d96000809054906101000a900473ffffffffffffffffffffffffffffffffffffffff16604051808273ffffffffffffffffffffffffffffffffffffffff1673ffffffffffffffffffffffffffffffffffffffff16815260200191505060405180910390a1600073ffffffffffffffffffffffffffffffffffffffff168173ffffffffffffffffffffffffffffffffffffffff161415151561013357600080fd5b80600260016101000a81548173ffffffffffffffffffffffffffffffffffffffff021916908373ffffffffffffffffffffffffffffffffffffffff1602179055506000600260006101000a81548160ff0219169083600281111561019357fe5b021790555050610c77806101a86000396000f3006080604052600436106100ba576000357c0100000000000000000000000000000000000000000000000000000000900463ffffffff1680632348238c146100bf57806338af3eed1461010257806343d726d61461015957806351cff8d914610170578063685ca194146101b35780638c52dc411461020e5780639af6549a14610225578063c19d93fb1461023c578063c6dbdf6114610275578063d2c7200b146102cc578063e3a9db1a146102e3578063f340fa011461033a575b600080fd5b3480156100cb57600080fd5b50610100600480360381019080803573ffffffffffffffffffffffffffffffffffffffff169060200190929190505050610370565b005b34801561010e57600080fd5b506101176104ce565b604051808273ffffffffffffffffffffffffffffffffffffffff1673ffffffffffffffffffffffffffffffffffffffff16815260200191505060405180910390f35b34801561016557600080fd5b5061016e6104f8565b005b34801561017c57600080fd5b506101b1600480360381019080803573ffffffffffffffffffffffffffffffffffffffff1690602001909291905050506105d8565b005b3480156101bf57600080fd5b506101f4600480360381019080803573ffffffffffffffffffffffffffffffffffffffff1690602001909291905050506105f8565b604051808215151515815260200191505060405180910390f35b34801561021a57600080fd5b5061022361062a565b005b34801561023157600080fd5b5061023a61070b565b005b34801561024857600080fd5b506102516107c0565b6040518082600281111561026157fe5b60ff16815260200191505060405180910390f35b34801561028157600080fd5b5061028a6107d7565b604051808273ffffffffffffffffffffffffffffffffffffffff1673ffffffffffffffffffffffffffffffffffffffff16815260200191505060405180910390f35b3480156102d857600080fd5b506102e1610800565b005b3480156102ef57600080fd5b50610324600480360381019080803573ffffffffffffffffffffffffffffffffffffffff1690602001909291905050506108dd565b6040518082815260200191505060405180910390f35b61036e600480360381019080803573ffffffffffffffffffffffffffffffffffffffff169060200190929190505050610926565b005b6000809054906101000a900473ffffffffffffffffffffffffffffffffffffffff1673ffffffffffffffffffffffffffffffffffffffff163373ffffffffffffffffffffffffffffffffffffffff161415156103cb57600080fd5b600073ffffffffffffffffffffffffffffffffffffffff168173ffffffffffffffffffffffffffffffffffffffff161415151561040757600080fd5b806000806101000a81548173ffffffffffffffffffffffffffffffffffffffff021916908373ffffffffffffffffffffffffffffffffffffffff1602179055507f4101e71e974f68df5e9730cc223280b41654676bbb052cdcc735c3337e64d2d96000809054906101000a900473ffffffffffffffffffffffffffffffffffffffff16604051808273ffffffffffffffffffffffffffffffffffffffff1673ffffffffffffffffffffffffffffffffffffffff16815260200191505060405180910390a150565b6000600260019054906101000a900473ffffffffffffffffffffffffffffffffffffffff16905090565b6000809054906101000a900473ffffffffffffffffffffffffffffffffffffffff1673ffffffffffffffffffffffffffffffffffffffff163373ffffffffffffffffffffffffffffffffffffffff1614151561055357600080fd5b6000600281111561056057fe5b600260009054906101000a900460ff16600281111561057b57fe5b14151561058757600080fd5b60028060006101000a81548160ff021916908360028111156105a557fe5b02179055507f088672c3a6e342f7cd94a65ba63b79df24a8973927b4d05d803c44bbf787d12f60405160405180910390a1565b6105e1816105f8565b15156105ec57600080fd5b6105f581610966565b50565b60006001600281111561060757fe5b600260009054906101000a900460ff16600281111561062257fe5b149050919050565b6000809054906101000a900473ffffffffffffffffffffffffffffffffffffffff1673ffffffffffffffffffffffffffffffffffffffff163373ffffffffffffffffffffffffffffffffffffffff1614151561068557600080fd5b6000600281111561069257fe5b600260009054906101000a900460ff1660028111156106ad57fe5b1415156106b957600080fd5b6001600260006101000a81548160ff021916908360028111156106d857fe5b02179055507f599d8e5a83cffb867d051598c4d70e805d59802d8081c1c7d6dffc5b6aca2b8960405160405180910390a1565b60028081111561071757fe5b600260009054906101000a900460ff16600281111561073257fe5b14151561073e57600080fd5b600260019054906101000a900473ffffffffffffffffffffffffffffffffffffffff1673ffffffffffffffffffffffffffffffffffffffff166108fc3073ffffffffffffffffffffffffffffffffffffffff16319081150290604051600060405180830381858888f193505050501580156107bd573d6000803e3d6000fd5b50565b6000600260009054906101000a900460ff16905090565b60008060009054906101000a900473ffffffffffffffffffffffffffffffffffffffff16905090565b6000809054906101000a900473ffffffffffffffffffffffffffffffffffffffff1673ffffffffffffffffffffffffffffffffffffffff163373ffffffffffffffffffffffffffffffffffffffff1614151561085b57600080fd5b600260019054906101000a900473ffffffffffffffffffffffffffffffffffffffff1673ffffffffffffffffffffffffffffffffffffffff166108fc3073ffffffffffffffffffffffffffffffffffffffff16319081150290604051600060405180830381858888f193505050501580156108da573d6000803e3d6000fd5b50565b6000600160008373ffffffffffffffffffffffffffffffffffffffff1673ffffffffffffffffffffffffffffffffffffffff168152602001908152602001600020549050919050565b6000600281111561093357fe5b600260009054906101000a900460ff16600281111561094e57fe5b14151561095a57600080fd5b61096381610ae3565b50565b60008060009054906101000a900473ffffffffffffffffffffffffffffffffffffffff1673ffffffffffffffffffffffffffffffffffffffff163373ffffffffffffffffffffffffffffffffffffffff161415156109c357600080fd5b600160008373ffffffffffffffffffffffffffffffffffffffff1673ffffffffffffffffffffffffffffffffffffffff1681526020019081526020016000205490506000600160008473ffffffffffffffffffffffffffffffffffffffff1673ffffffffffffffffffffffffffffffffffffffff168152602001908152602001600020819055508173ffffffffffffffffffffffffffffffffffffffff166108fc829081150290604051600060405180830381858888f19350505050158015610a90573d6000803e3d6000fd5b508173ffffffffffffffffffffffffffffffffffffffff167f7084f5476618d8e60b11ef0d7d3f06914655adb8793e28ff7f018d4c76d505d5826040518082815260200191505060405180910390a25050565b60008060009054906101000a900473ffffffffffffffffffffffffffffffffffffffff1673ffffffffffffffffffffffffffffffffffffffff163373ffffffffffffffffffffffffffffffffffffffff16141515610b4057600080fd5b349050610b9581600160008573ffffffffffffffffffffffffffffffffffffffff1673ffffffffffffffffffffffffffffffffffffffff16815260200190815260200160002054610c2a90919063ffffffff16565b600160008473ffffffffffffffffffffffffffffffffffffffff1673ffffffffffffffffffffffffffffffffffffffff168152602001908152602001600020819055508173ffffffffffffffffffffffffffffffffffffffff167f2da466a7b24304f47e87fa2e1e5a81b9831ce54fec19055ce277ca2f39ba42c4826040518082815260200191505060405180910390a25050565b6000808284019050838110151515610c4157600080fd5b80915050929150505600a165627a7a723058207562612e8ee78d55e5d8a47b63af56850d18f8fb582bc50b3cc8bb8a23c4a5fe0029",
  "source": "pragma solidity ^0.4.24;\r\n\r\nimport \"../token/ERC20/IERC20.sol\";\r\nimport \"../crowdsale/distribution/RefundablePostDeliveryCrowdsale.sol\";\r\n\r\ncontract RefundablePostDeliveryCrowdsaleImpl is RefundablePostDeliveryCrowdsale {\r\n    constructor (\r\n        uint256 openingTime,\r\n        uint256 closingTime,\r\n        uint256 rate,\r\n        address wallet,\r\n        IERC20 token,\r\n        uint256 goal\r\n    )\r\n        public\r\n        Crowdsale(rate, wallet, token)\r\n        TimedCrowdsale(openingTime, closingTime)\r\n        RefundableCrowdsale(goal)\r\n    {}\r\n}\r\n",
  "sourcePath": "D:\\dev\\uae\\contracts\\open-zeppelin-contracts\\mocks\\RefundablePostDeliveryCrowdsaleImpl.sol",
  "compiler": {
    "name": "solc",
    "version": "0.4.25+commit.59dbf8f1.Emscripten.clang"
  },
  "schemaVersion": "2.0.2",
  "updatedAt": "2019-01-28T14:35:46.089Z"
}