{
  "contractName": "SafeERC20Helper",
  "abi": [
    {
      "inputs": [],
      "payable": false,
      "stateMutability": "nonpayable",
      "type": "constructor"
    },
    {
      "constant": false,
      "inputs": [],
      "name": "doFailingTransfer",
      "outputs": [],
      "payable": false,
      "stateMutability": "nonpayable",
      "type": "function"
    },
    {
      "constant": false,
      "inputs": [],
      "name": "doFailingTransferFrom",
      "outputs": [],
      "payable": false,
      "stateMutability": "nonpayable",
      "type": "function"
    },
    {
      "constant": false,
      "inputs": [],
      "name": "doFailingApprove",
      "outputs": [],
      "payable": false,
      "stateMutability": "nonpayable",
      "type": "function"
    },
    {
      "constant": false,
      "inputs": [],
      "name": "doFailingIncreaseAllowance",
      "outputs": [],
      "payable": false,
      "stateMutability": "nonpayable",
      "type": "function"
    },
    {
      "constant": false,
      "inputs": [],
      "name": "doFailingDecreaseAllowance",
      "outputs": [],
      "payable": false,
      "stateMutability": "nonpayable",
      "type": "function"
    },
    {
      "constant": false,
      "inputs": [],
      "name": "doSucceedingTransfer",
      "outputs": [],
      "payable": false,
      "stateMutability": "nonpayable",
      "type": "function"
    },
    {
      "constant": false,
      "inputs": [],
      "name": "doSucceedingTransferFrom",
      "outputs": [],
      "payable": false,
      "stateMutability": "nonpayable",
      "type": "function"
    },
    {
      "constant": false,
      "inputs": [
        {
          "name": "amount",
          "type": "uint256"
        }
      ],
      "name": "doSucceedingApprove",
      "outputs": [],
      "payable": false,
      "stateMutability": "nonpayable",
      "type": "function"
    },
    {
      "constant": false,
      "inputs": [
        {
          "name": "amount",
          "type": "uint256"
        }
      ],
      "name": "doSucceedingIncreaseAllowance",
      "outputs": [],
      "payable": false,
      "stateMutability": "nonpayable",
      "type": "function"
    },
    {
      "constant": false,
      "inputs": [
        {
          "name": "amount",
          "type": "uint256"
        }
      ],
      "name": "doSucceedingDecreaseAllowance",
      "outputs": [],
      "payable": false,
      "stateMutability": "nonpayable",
      "type": "function"
    },
    {
      "constant": false,
      "inputs": [
        {
          "name": "allowance_",
          "type": "uint256"
        }
      ],
      "name": "setAllowance",
      "outputs": [],
      "payable": false,
      "stateMutability": "nonpayable",
      "type": "function"
    },
    {
      "constant": true,
      "inputs": [],
      "name": "allowance",
      "outputs": [
        {
          "name": "",
          "type": "uint256"
        }
      ],
      "payable": false,
      "stateMutability": "view",
      "type": "function"
    }
  ],
  "bytecode": "0x608060405234801561001057600080fd5b506100196100df565b604051809103906000f080158015610035573d6000803e3d6000fd5b506000806101000a81548173ffffffffffffffffffffffffffffffffffffffff021916908373ffffffffffffffffffffffffffffffffffffffff16021790555061007d6100ef565b604051809103906000f080158015610099573d6000803e3d6000fd5b50600160006101000a81548173ffffffffffffffffffffffffffffffffffffffff021916908373ffffffffffffffffffffffffffffffffffffffff1602179055506100ff565b6040516102a6806110ff83390190565b6040516102ec806113a583390190565b610ff18061010e6000396000f3006080604052600436106100ba576000357c0100000000000000000000000000000000000000000000000000000000900463ffffffff16806312a8e7f0146100bf5780633ba93f26146100ec5780634238a3ed1461011957806350930ca51461014657806356b2c5bb1461015d5780636573ee1e14610174578063afa03ac91461018b578063c44e250e146101a2578063d7228bb5146101b9578063d9f9a982146101d0578063de242ff4146101fd578063e1ccf93714610228575b600080fd5b3480156100cb57600080fd5b506100ea6004803603810190808035906020019092919050505061023f565b005b3480156100f857600080fd5b5061011760048036038101908080359060200190929190505050610290565b005b34801561012557600080fd5b506101446004803603810190808035906020019092919050505061033c565b005b34801561015257600080fd5b5061015b61038d565b005b34801561016957600080fd5b506101726103df565b005b34801561018057600080fd5b5061018961042f565b005b34801561019757600080fd5b506101a061047e565b005b3480156101ae57600080fd5b506101b76104cd565b005b3480156101c557600080fd5b506101ce61051c565b005b3480156101dc57600080fd5b506101fb6004803603810190808035906020019092919050505061056f565b005b34801561020957600080fd5b506102126105c0565b6040518082815260200191505060405180910390f35b34801561023457600080fd5b5061023d6106f4565b005b61028d600082600160009054906101000a900473ffffffffffffffffffffffffffffffffffffffff1673ffffffffffffffffffffffffffffffffffffffff166107439092919063ffffffff16565b50565b600160009054906101000a900473ffffffffffffffffffffffffffffffffffffffff1673ffffffffffffffffffffffffffffffffffffffff16633ba93f26826040518263ffffffff167c010000000000000000000000000000000000000000000000000000000002815260040180828152602001915050600060405180830381600087803b15801561032157600080fd5b505af1158015610335573d6000803e3d6000fd5b5050505050565b61038a600082600160009054906101000a900473ffffffffffffffffffffffffffffffffffffffff1673ffffffffffffffffffffffffffffffffffffffff166109549092919063ffffffff16565b50565b6103dd60008060008060009054906101000a900473ffffffffffffffffffffffffffffffffffffffff1673ffffffffffffffffffffffffffffffffffffffff16610b63909392919063ffffffff16565b565b61042d600080600160009054906101000a900473ffffffffffffffffffffffffffffffffffffffff1673ffffffffffffffffffffffffffffffffffffffff16610c869092919063ffffffff16565b565b61047c6000806000809054906101000a900473ffffffffffffffffffffffffffffffffffffffff1673ffffffffffffffffffffffffffffffffffffffff166107439092919063ffffffff16565b565b6104cb6000806000809054906101000a900473ffffffffffffffffffffffffffffffffffffffff1673ffffffffffffffffffffffffffffffffffffffff16610c869092919063ffffffff16565b565b61051a6000806000809054906101000a900473ffffffffffffffffffffffffffffffffffffffff1673ffffffffffffffffffffffffffffffffffffffff16610d749092919063ffffffff16565b565b61056d6000806000600160009054906101000a900473ffffffffffffffffffffffffffffffffffffffff1673ffffffffffffffffffffffffffffffffffffffff16610b63909392919063ffffffff16565b565b6105bd600082600160009054906101000a900473ffffffffffffffffffffffffffffffffffffffff1673ffffffffffffffffffffffffffffffffffffffff16610d749092919063ffffffff16565b50565b6000600160009054906101000a900473ffffffffffffffffffffffffffffffffffffffff1673ffffffffffffffffffffffffffffffffffffffff1663dd62ed3e6000806040518363ffffffff167c0100000000000000000000000000000000000000000000000000000000028152600401808373ffffffffffffffffffffffffffffffffffffffff1673ffffffffffffffffffffffffffffffffffffffff1681526020018273ffffffffffffffffffffffffffffffffffffffff1673ffffffffffffffffffffffffffffffffffffffff16815260200192505050602060405180830381600087803b1580156106b457600080fd5b505af11580156106c8573d6000803e3d6000fd5b505050506040513d60208110156106de57600080fd5b8101908080519060200190929190505050905090565b6107416000806000809054906101000a900473ffffffffffffffffffffffffffffffffffffffff1673ffffffffffffffffffffffffffffffffffffffff166109549092919063ffffffff16565b565b600081148061085b575060008373ffffffffffffffffffffffffffffffffffffffff1663dd62ed3e33856040518363ffffffff167c0100000000000000000000000000000000000000000000000000000000028152600401808373ffffffffffffffffffffffffffffffffffffffff1673ffffffffffffffffffffffffffffffffffffffff1681526020018273ffffffffffffffffffffffffffffffffffffffff1673ffffffffffffffffffffffffffffffffffffffff16815260200192505050602060405180830381600087803b15801561081e57600080fd5b505af1158015610832573d6000803e3d6000fd5b505050506040513d602081101561084857600080fd5b8101908080519060200190929190505050145b151561086657600080fd5b8273ffffffffffffffffffffffffffffffffffffffff1663095ea7b383836040518363ffffffff167c0100000000000000000000000000000000000000000000000000000000028152600401808373ffffffffffffffffffffffffffffffffffffffff1673ffffffffffffffffffffffffffffffffffffffff16815260200182815260200192505050602060405180830381600087803b15801561090957600080fd5b505af115801561091d573d6000803e3d6000fd5b505050506040513d602081101561093357600080fd5b8101908080519060200190929190505050151561094f57600080fd5b505050565b6000610a72828573ffffffffffffffffffffffffffffffffffffffff1663dd62ed3e30876040518363ffffffff167c0100000000000000000000000000000000000000000000000000000000028152600401808373ffffffffffffffffffffffffffffffffffffffff1673ffffffffffffffffffffffffffffffffffffffff1681526020018273ffffffffffffffffffffffffffffffffffffffff1673ffffffffffffffffffffffffffffffffffffffff16815260200192505050602060405180830381600087803b158015610a2957600080fd5b505af1158015610a3d573d6000803e3d6000fd5b505050506040513d6020811015610a5357600080fd5b8101908080519060200190929190505050610f8390919063ffffffff16565b90508373ffffffffffffffffffffffffffffffffffffffff1663095ea7b384836040518363ffffffff167c0100000000000000000000000000000000000000000000000000000000028152600401808373ffffffffffffffffffffffffffffffffffffffff1673ffffffffffffffffffffffffffffffffffffffff16815260200182815260200192505050602060405180830381600087803b158015610b1757600080fd5b505af1158015610b2b573d6000803e3d6000fd5b505050506040513d6020811015610b4157600080fd5b81019080805190602001909291905050501515610b5d57600080fd5b50505050565b8373ffffffffffffffffffffffffffffffffffffffff166323b872dd8484846040518463ffffffff167c0100000000000000000000000000000000000000000000000000000000028152600401808473ffffffffffffffffffffffffffffffffffffffff1673ffffffffffffffffffffffffffffffffffffffff1681526020018373ffffffffffffffffffffffffffffffffffffffff1673ffffffffffffffffffffffffffffffffffffffff1681526020018281526020019350505050602060405180830381600087803b158015610c3a57600080fd5b505af1158015610c4e573d6000803e3d6000fd5b505050506040513d6020811015610c6457600080fd5b81019080805190602001909291905050501515610c8057600080fd5b50505050565b8273ffffffffffffffffffffffffffffffffffffffff1663a9059cbb83836040518363ffffffff167c0100000000000000000000000000000000000000000000000000000000028152600401808373ffffffffffffffffffffffffffffffffffffffff1673ffffffffffffffffffffffffffffffffffffffff16815260200182815260200192505050602060405180830381600087803b158015610d2957600080fd5b505af1158015610d3d573d6000803e3d6000fd5b505050506040513d6020811015610d5357600080fd5b81019080805190602001909291905050501515610d6f57600080fd5b505050565b6000610e92828573ffffffffffffffffffffffffffffffffffffffff1663dd62ed3e30876040518363ffffffff167c0100000000000000000000000000000000000000000000000000000000028152600401808373ffffffffffffffffffffffffffffffffffffffff1673ffffffffffffffffffffffffffffffffffffffff1681526020018273ffffffffffffffffffffffffffffffffffffffff1673ffffffffffffffffffffffffffffffffffffffff16815260200192505050602060405180830381600087803b158015610e4957600080fd5b505af1158015610e5d573d6000803e3d6000fd5b505050506040513d6020811015610e7357600080fd5b8101908080519060200190929190505050610fa490919063ffffffff16565b90508373ffffffffffffffffffffffffffffffffffffffff1663095ea7b384836040518363ffffffff167c0100000000000000000000000000000000000000000000000000000000028152600401808373ffffffffffffffffffffffffffffffffffffffff1673ffffffffffffffffffffffffffffffffffffffff16815260200182815260200192505050602060405180830381600087803b158015610f3757600080fd5b505af1158015610f4b573d6000803e3d6000fd5b505050506040513d6020811015610f6157600080fd5b81019080805190602001909291905050501515610f7d57600080fd5b50505050565b6000808284019050838110151515610f9a57600080fd5b8091505092915050565b600080838311151515610fb657600080fd5b828403905080915050929150505600a165627a7a723058201cf908d59dd1585d9322f5127eee1d3fd1fa180caf413e37f3dc58db11f9ebef0029608060405234801561001057600080fd5b50610286806100206000396000f300608060405260043610610062576000357c0100000000000000000000000000000000000000000000000000000000900463ffffffff168063095ea7b31461006757806323b872dd146100cc578063a9059cbb14610151578063dd62ed3e146101b6575b600080fd5b34801561007357600080fd5b506100b2600480360381019080803573ffffffffffffffffffffffffffffffffffffffff1690602001909291908035906020019092919050505061022d565b604051808215151515815260200191505060405180910390f35b3480156100d857600080fd5b50610137600480360381019080803573ffffffffffffffffffffffffffffffffffffffff169060200190929190803573ffffffffffffffffffffffffffffffffffffffff16906020019092919080359060200190929190505050610238565b604051808215151515815260200191505060405180910390f35b34801561015d57600080fd5b5061019c600480360381019080803573ffffffffffffffffffffffffffffffffffffffff16906020019092919080359060200190929190505050610244565b604051808215151515815260200191505060405180910390f35b3480156101c257600080fd5b50610217600480360381019080803573ffffffffffffffffffffffffffffffffffffffff169060200190929190803573ffffffffffffffffffffffffffffffffffffffff16906020019092919050505061024f565b6040518082815260200191505060405180910390f35b600080905092915050565b60008090509392505050565b600080905092915050565b6000809050929150505600a165627a7a72305820ea761166d658d9209e804daa4aab256b878e8f3673899c48e7706477b1e176890029608060405234801561001057600080fd5b506102cc806100206000396000f30060806040526004361061006d576000357c0100000000000000000000000000000000000000000000000000000000900463ffffffff168063095ea7b31461007257806323b872dd146100d75780633ba93f261461015c578063a9059cbb14610189578063dd62ed3e146101ee575b600080fd5b34801561007e57600080fd5b506100bd600480360381019080803573ffffffffffffffffffffffffffffffffffffffff16906020019092919080359060200190929190505050610265565b604051808215151515815260200191505060405180910390f35b3480156100e357600080fd5b50610142600480360381019080803573ffffffffffffffffffffffffffffffffffffffff169060200190929190803573ffffffffffffffffffffffffffffffffffffffff16906020019092919080359060200190929190505050610271565b604051808215151515815260200191505060405180910390f35b34801561016857600080fd5b506101876004803603810190808035906020019092919050505061027e565b005b34801561019557600080fd5b506101d4600480360381019080803573ffffffffffffffffffffffffffffffffffffffff16906020019092919080359060200190929190505050610288565b604051808215151515815260200191505060405180910390f35b3480156101fa57600080fd5b5061024f600480360381019080803573ffffffffffffffffffffffffffffffffffffffff169060200190929190803573ffffffffffffffffffffffffffffffffffffffff169060200190929190505050610294565b6040518082815260200191505060405180910390f35b60006001905092915050565b6000600190509392505050565b8060008190555050565b60006001905092915050565b600080549050929150505600a165627a7a72305820e0a5197638b86a4cee743a0259cd77f5318e6796711093a94bfdfc2fd65fb6960029",
  "source": "pragma solidity ^0.4.24;\r\n\r\nimport \"../token/ERC20/IERC20.sol\";\r\nimport \"../token/ERC20/SafeERC20.sol\";\r\n\r\ncontract ERC20FailingMock {\r\n    uint256 private _allowance;\r\n\r\n    function transfer(address, uint256) public returns (bool) {\r\n        return false;\r\n    }\r\n\r\n    function transferFrom(address, address, uint256) public returns (bool) {\r\n        return false;\r\n    }\r\n\r\n    function approve(address, uint256) public returns (bool) {\r\n        return false;\r\n    }\r\n\r\n    function allowance(address, address) public view returns (uint256) {\r\n        return 0;\r\n    }\r\n}\r\n\r\ncontract ERC20SucceedingMock {\r\n    uint256 private _allowance;\r\n\r\n    function transfer(address, uint256) public returns (bool) {\r\n        return true;\r\n    }\r\n\r\n    function transferFrom(address, address, uint256) public returns (bool) {\r\n        return true;\r\n    }\r\n\r\n    function approve(address, uint256) public returns (bool) {\r\n        return true;\r\n    }\r\n\r\n    function setAllowance(uint256 allowance_) public {\r\n        _allowance = allowance_;\r\n    }\r\n\r\n    function allowance(address, address) public view returns (uint256) {\r\n        return _allowance;\r\n    }\r\n}\r\n\r\ncontract SafeERC20Helper {\r\n    using SafeERC20 for IERC20;\r\n\r\n    IERC20 private _failing;\r\n    IERC20 private _succeeding;\r\n\r\n    constructor () public {\r\n        _failing = IERC20(new ERC20FailingMock());\r\n        _succeeding = IERC20(new ERC20SucceedingMock());\r\n    }\r\n\r\n    // Using _failing\r\n\r\n    function doFailingTransfer() public {\r\n        _failing.safeTransfer(address(0), 0);\r\n    }\r\n\r\n    function doFailingTransferFrom() public {\r\n        _failing.safeTransferFrom(address(0), address(0), 0);\r\n    }\r\n\r\n    function doFailingApprove() public {\r\n        _failing.safeApprove(address(0), 0);\r\n    }\r\n\r\n    function doFailingIncreaseAllowance() public {\r\n        _failing.safeIncreaseAllowance(address(0), 0);\r\n    }\r\n\r\n    function doFailingDecreaseAllowance() public {\r\n        _failing.safeDecreaseAllowance(address(0), 0);\r\n    }\r\n\r\n    // Using _succeeding\r\n\r\n    function doSucceedingTransfer() public {\r\n        _succeeding.safeTransfer(address(0), 0);\r\n    }\r\n\r\n    function doSucceedingTransferFrom() public {\r\n        _succeeding.safeTransferFrom(address(0), address(0), 0);\r\n    }\r\n\r\n    function doSucceedingApprove(uint256 amount) public {\r\n        _succeeding.safeApprove(address(0), amount);\r\n    }\r\n\r\n    function doSucceedingIncreaseAllowance(uint256 amount) public {\r\n        _succeeding.safeIncreaseAllowance(address(0), amount);\r\n    }\r\n\r\n    function doSucceedingDecreaseAllowance(uint256 amount) public {\r\n        _succeeding.safeDecreaseAllowance(address(0), amount);\r\n    }\r\n\r\n    function setAllowance(uint256 allowance_) public {\r\n        ERC20SucceedingMock(_succeeding).setAllowance(allowance_);\r\n    }\r\n\r\n    function allowance() public view returns (uint256) {\r\n        return _succeeding.allowance(address(0), address(0));\r\n    }\r\n}\r\n",
  "sourcePath": "D:\\dev\\uae\\contracts\\open-zeppelin-contracts\\mocks\\SafeERC20Helper.sol",
  "compiler": {
    "name": "solc",
    "version": "0.4.25+commit.59dbf8f1.Emscripten.clang"
  },
  "schemaVersion": "2.0.2",
  "updatedAt": "2019-01-25T16:27:04.432Z"
}