{
  "contractName": "SampleCrowdsale",
  "abi": [
    {
      "constant": true,
      "inputs": [],
      "name": "hasClosed",
      "outputs": [
        {
          "name": "",
          "type": "bool"
        }
      ],
      "payable": false,
      "stateMutability": "view",
      "type": "function"
    },
    {
      "constant": true,
      "inputs": [],
      "name": "rate",
      "outputs": [
        {
          "name": "",
          "type": "uint256"
        }
      ],
      "payable": false,
      "stateMutability": "view",
      "type": "function"
    },
    {
      "constant": true,
      "inputs": [],
      "name": "cap",
      "outputs": [
        {
          "name": "",
          "type": "uint256"
        }
      ],
      "payable": false,
      "stateMutability": "view",
      "type": "function"
    },
    {
      "constant": true,
      "inputs": [],
      "name": "goal",
      "outputs": [
        {
          "name": "",
          "type": "uint256"
        }
      ],
      "payable": false,
      "stateMutability": "view",
      "type": "function"
    },
    {
      "constant": true,
      "inputs": [],
      "name": "weiRaised",
      "outputs": [
        {
          "name": "",
          "type": "uint256"
        }
      ],
      "payable": false,
      "stateMutability": "view",
      "type": "function"
    },
    {
      "constant": true,
      "inputs": [],
      "name": "isOpen",
      "outputs": [
        {
          "name": "",
          "type": "bool"
        }
      ],
      "payable": false,
      "stateMutability": "view",
      "type": "function"
    },
    {
      "constant": true,
      "inputs": [],
      "name": "closingTime",
      "outputs": [
        {
          "name": "",
          "type": "uint256"
        }
      ],
      "payable": false,
      "stateMutability": "view",
      "type": "function"
    },
    {
      "constant": false,
      "inputs": [],
      "name": "finalize",
      "outputs": [],
      "payable": false,
      "stateMutability": "nonpayable",
      "type": "function"
    },
    {
      "constant": true,
      "inputs": [],
      "name": "capReached",
      "outputs": [
        {
          "name": "",
          "type": "bool"
        }
      ],
      "payable": false,
      "stateMutability": "view",
      "type": "function"
    },
    {
      "constant": true,
      "inputs": [],
      "name": "wallet",
      "outputs": [
        {
          "name": "",
          "type": "address"
        }
      ],
      "payable": false,
      "stateMutability": "view",
      "type": "function"
    },
    {
      "constant": true,
      "inputs": [],
      "name": "goalReached",
      "outputs": [
        {
          "name": "",
          "type": "bool"
        }
      ],
      "payable": false,
      "stateMutability": "view",
      "type": "function"
    },
    {
      "constant": true,
      "inputs": [],
      "name": "finalized",
      "outputs": [
        {
          "name": "",
          "type": "bool"
        }
      ],
      "payable": false,
      "stateMutability": "view",
      "type": "function"
    },
    {
      "constant": true,
      "inputs": [],
      "name": "openingTime",
      "outputs": [
        {
          "name": "",
          "type": "uint256"
        }
      ],
      "payable": false,
      "stateMutability": "view",
      "type": "function"
    },
    {
      "constant": false,
      "inputs": [
        {
          "name": "refundee",
          "type": "address"
        }
      ],
      "name": "claimRefund",
      "outputs": [],
      "payable": false,
      "stateMutability": "nonpayable",
      "type": "function"
    },
    {
      "constant": false,
      "inputs": [],
      "name": "beneficiaryWithdrawBeforeClosing",
      "outputs": [],
      "payable": false,
      "stateMutability": "nonpayable",
      "type": "function"
    },
    {
      "constant": false,
      "inputs": [
        {
          "name": "beneficiary",
          "type": "address"
        }
      ],
      "name": "buyTokens",
      "outputs": [],
      "payable": true,
      "stateMutability": "payable",
      "type": "function"
    },
    {
      "constant": true,
      "inputs": [],
      "name": "token",
      "outputs": [
        {
          "name": "",
          "type": "address"
        }
      ],
      "payable": false,
      "stateMutability": "view",
      "type": "function"
    },
    {
      "inputs": [
        {
          "name": "openingTime",
          "type": "uint256"
        },
        {
          "name": "closingTime",
          "type": "uint256"
        },
        {
          "name": "rate",
          "type": "uint256"
        },
        {
          "name": "wallet",
          "type": "address"
        },
        {
          "name": "cap",
          "type": "uint256"
        },
        {
          "name": "token",
          "type": "address"
        },
        {
          "name": "goal",
          "type": "uint256"
        }
      ],
      "payable": false,
      "stateMutability": "nonpayable",
      "type": "constructor"
    },
    {
      "payable": true,
      "stateMutability": "payable",
      "type": "fallback"
    },
    {
      "anonymous": false,
      "inputs": [],
      "name": "CrowdsaleFinalized",
      "type": "event"
    },
    {
      "anonymous": false,
      "inputs": [
        {
          "indexed": true,
          "name": "purchaser",
          "type": "address"
        },
        {
          "indexed": true,
          "name": "beneficiary",
          "type": "address"
        },
        {
          "indexed": false,
          "name": "value",
          "type": "uint256"
        },
        {
          "indexed": false,
          "name": "amount",
          "type": "uint256"
        }
      ],
      "name": "TokensPurchased",
      "type": "event"
    }
  ],
  "bytecode": "0x608060405234801561001057600080fd5b5060405160e08062001ec88339810180604052810190808051906020019092919080519060200190929190805190602001909291908051906020019092919080519060200190929190805190602001909291908051906020019092919050505080878785888887600160008190555060008311151561008e57600080fd5b600073ffffffffffffffffffffffffffffffffffffffff168273ffffffffffffffffffffffffffffffffffffffff16141515156100ca57600080fd5b600073ffffffffffffffffffffffffffffffffffffffff168173ffffffffffffffffffffffffffffffffffffffff161415151561010657600080fd5b8260038190555081600260006101000a81548173ffffffffffffffffffffffffffffffffffffffff021916908373ffffffffffffffffffffffffffffffffffffffff16021790555080600160006101000a81548173ffffffffffffffffffffffffffffffffffffffff021916908373ffffffffffffffffffffffffffffffffffffffff1602179055505050506000811115156101a157600080fd5b80600581905550504282101515156101b857600080fd5b81811115156101c657600080fd5b816006819055508060078190555050506000600860006101000a81548160ff02191690831515021790555060008111151561020057600080fd5b6102176102d5640100000000026401000000009004565b61021f6102ff565b808273ffffffffffffffffffffffffffffffffffffffff1673ffffffffffffffffffffffffffffffffffffffff168152602001915050604051809103906000f080158015610271573d6000803e3d6000fd5b50600a60006101000a81548173ffffffffffffffffffffffffffffffffffffffff021916908373ffffffffffffffffffffffffffffffffffffffff16021790555080600981905550508281111515156102c957600080fd5b50505050505050610310565b6000600260009054906101000a900473ffffffffffffffffffffffffffffffffffffffff16905090565b604051610e1f80620010a983390190565b610d8980620003206000396000f3006080604052600436106100f1576000357c0100000000000000000000000000000000000000000000000000000000900463ffffffff1680631515bc2b146100fc5780632c4e722e1461012b578063355274ea1461015657806340193883146101815780634042b66f146101ac57806347535d7b146101d75780634b6753bc146102065780634bb278f3146102315780634f93594514610248578063521eb273146102775780637d3d6522146102ce578063b3f05b97146102fd578063b7a8807c1461032c578063bffa55d514610357578063d2c7200b1461039a578063ec8ac4d8146103b1578063fc0c546a146103e7575b6100fa3361043e565b005b34801561010857600080fd5b50610111610534565b604051808215151515815260200191505060405180910390f35b34801561013757600080fd5b50610140610540565b6040518082815260200191505060405180910390f35b34801561016257600080fd5b5061016b61054a565b6040518082815260200191505060405180910390f35b34801561018d57600080fd5b50610196610554565b6040518082815260200191505060405180910390f35b3480156101b857600080fd5b506101c161055e565b6040518082815260200191505060405180910390f35b3480156101e357600080fd5b506101ec610568565b604051808215151515815260200191505060405180910390f35b34801561021257600080fd5b5061021b610583565b6040518082815260200191505060405180910390f35b34801561023d57600080fd5b5061024661058d565b005b34801561025457600080fd5b5061025d61060d565b604051808215151515815260200191505060405180910390f35b34801561028357600080fd5b5061028c610621565b604051808273ffffffffffffffffffffffffffffffffffffffff1673ffffffffffffffffffffffffffffffffffffffff16815260200191505060405180910390f35b3480156102da57600080fd5b506102e361064b565b604051808215151515815260200191505060405180910390f35b34801561030957600080fd5b5061031261065f565b604051808215151515815260200191505060405180910390f35b34801561033857600080fd5b50610341610676565b6040518082815260200191505060405180910390f35b34801561036357600080fd5b50610398600480360381019080803573ffffffffffffffffffffffffffffffffffffffff169060200190929190505050610680565b005b3480156103a657600080fd5b506103af61077f565b005b6103e5600480360381019080803573ffffffffffffffffffffffffffffffffffffffff16906020019092919050505061043e565b005b3480156103f357600080fd5b506103fc610832565b604051808273ffffffffffffffffffffffffffffffffffffffff1673ffffffffffffffffffffffffffffffffffffffff16815260200191505060405180910390f35b6000806000600160008082825401925050819055506000549050349250610465848461085c565b61046e8361087d565b91506104858360045461089b90919063ffffffff16565b60048190555061049584836108bc565b8373ffffffffffffffffffffffffffffffffffffffff163373ffffffffffffffffffffffffffffffffffffffff167f6faf93231a456e552dbc9961f58d9713ee4f2e69d15f1975b050ef0911053a7b8585604051808381526020018281526020019250505060405180910390a361050c84846108ca565b6105146108ce565b61051e84846109a6565b6000548114151561052e57600080fd5b50505050565b60006007544211905090565b6000600354905090565b6000600554905090565b6000600954905090565b6000600454905090565b6000600654421015801561057e57506007544211155b905090565b6000600754905090565b600860009054906101000a900460ff161515156105a957600080fd5b6105b1610534565b15156105bc57600080fd5b6001600860006101000a81548160ff0219169083151502179055506105df6109aa565b7f9270cc390c096600a1c17c44345a1ba689fafd99d97487b10cfccf86cf73183660405160405180910390a1565b600060055461061a61055e565b1015905090565b6000600260009054906101000a900473ffffffffffffffffffffffffffffffffffffffff16905090565b600060095461065861055e565b1015905090565b6000600860009054906101000a900460ff16905090565b6000600654905090565b61068861065f565b151561069357600080fd5b61069b61064b565b1515156106a757600080fd5b600a60009054906101000a900473ffffffffffffffffffffffffffffffffffffffff1673ffffffffffffffffffffffffffffffffffffffff166351cff8d9826040518263ffffffff167c0100000000000000000000000000000000000000000000000000000000028152600401808273ffffffffffffffffffffffffffffffffffffffff1673ffffffffffffffffffffffffffffffffffffffff168152602001915050600060405180830381600087803b15801561076457600080fd5b505af1158015610778573d6000803e3d6000fd5b5050505050565b61078761064b565b151561079257600080fd5b600a60009054906101000a900473ffffffffffffffffffffffffffffffffffffffff1673ffffffffffffffffffffffffffffffffffffffff1663d2c7200b6040518163ffffffff167c0100000000000000000000000000000000000000000000000000000000028152600401600060405180830381600087803b15801561081857600080fd5b505af115801561082c573d6000803e3d6000fd5b50505050565b6000600160009054906101000a900473ffffffffffffffffffffffffffffffffffffffff16905090565b610864610568565b151561086f57600080fd5b6108798282610ba1565b5050565b600061089460035483610bd990919063ffffffff16565b9050919050565b60008082840190508381101515156108b257600080fd5b8091505092915050565b6108c68282610c17565b5050565b5050565b600a60009054906101000a900473ffffffffffffffffffffffffffffffffffffffff1673ffffffffffffffffffffffffffffffffffffffff1663f340fa0134336040518363ffffffff167c0100000000000000000000000000000000000000000000000000000000028152600401808273ffffffffffffffffffffffffffffffffffffffff1673ffffffffffffffffffffffffffffffffffffffff1681526020019150506000604051808303818588803b15801561098b57600080fd5b505af115801561099f573d6000803e3d6000fd5b5050505050565b5050565b6109b261064b565b15610af857600a60009054906101000a900473ffffffffffffffffffffffffffffffffffffffff1673ffffffffffffffffffffffffffffffffffffffff166343d726d66040518163ffffffff167c0100000000000000000000000000000000000000000000000000000000028152600401600060405180830381600087803b158015610a3d57600080fd5b505af1158015610a51573d6000803e3d6000fd5b50505050600a60009054906101000a900473ffffffffffffffffffffffffffffffffffffffff1673ffffffffffffffffffffffffffffffffffffffff16639af6549a6040518163ffffffff167c0100000000000000000000000000000000000000000000000000000000028152600401600060405180830381600087803b158015610adb57600080fd5b505af1158015610aef573d6000803e3d6000fd5b50505050610b97565b600a60009054906101000a900473ffffffffffffffffffffffffffffffffffffffff1673ffffffffffffffffffffffffffffffffffffffff16638c52dc416040518163ffffffff167c0100000000000000000000000000000000000000000000000000000000028152600401600060405180830381600087803b158015610b7e57600080fd5b505af1158015610b92573d6000803e3d6000fd5b505050505b610b9f610d0b565b565b610bab8282610d0d565b600554610bc882610bba61055e565b61089b90919063ffffffff16565b11151515610bd557600080fd5b5050565b6000806000841415610bee5760009150610c10565b8284029050828482811515610bff57fe5b04141515610c0c57600080fd5b8091505b5092915050565b610c1f610832565b73ffffffffffffffffffffffffffffffffffffffff166340c10f1983836040518363ffffffff167c0100000000000000000000000000000000000000000000000000000000028152600401808373ffffffffffffffffffffffffffffffffffffffff1673ffffffffffffffffffffffffffffffffffffffff16815260200182815260200192505050602060405180830381600087803b158015610cc157600080fd5b505af1158015610cd5573d6000803e3d6000fd5b505050506040513d6020811015610ceb57600080fd5b81019080805190602001909291905050501515610d0757600080fd5b5050565b565b600073ffffffffffffffffffffffffffffffffffffffff168273ffffffffffffffffffffffffffffffffffffffff1614151515610d4957600080fd5b60008114151515610d5957600080fd5b50505600a165627a7a72305820323615298387a08faf1217c0ca2e578fa3cd45ffa44c61b51b85281c95452ba30029608060405234801561001057600080fd5b50604051602080610e1f83398101806040528101908080519060200190929190505050336000806101000a81548173ffffffffffffffffffffffffffffffffffffffff021916908373ffffffffffffffffffffffffffffffffffffffff1602179055507f4101e71e974f68df5e9730cc223280b41654676bbb052cdcc735c3337e64d2d96000809054906101000a900473ffffffffffffffffffffffffffffffffffffffff16604051808273ffffffffffffffffffffffffffffffffffffffff1673ffffffffffffffffffffffffffffffffffffffff16815260200191505060405180910390a1600073ffffffffffffffffffffffffffffffffffffffff168173ffffffffffffffffffffffffffffffffffffffff161415151561013357600080fd5b80600260016101000a81548173ffffffffffffffffffffffffffffffffffffffff021916908373ffffffffffffffffffffffffffffffffffffffff1602179055506000600260006101000a81548160ff0219169083600281111561019357fe5b021790555050610c77806101a86000396000f3006080604052600436106100ba576000357c0100000000000000000000000000000000000000000000000000000000900463ffffffff1680632348238c146100bf57806338af3eed1461010257806343d726d61461015957806351cff8d914610170578063685ca194146101b35780638c52dc411461020e5780639af6549a14610225578063c19d93fb1461023c578063c6dbdf6114610275578063d2c7200b146102cc578063e3a9db1a146102e3578063f340fa011461033a575b600080fd5b3480156100cb57600080fd5b50610100600480360381019080803573ffffffffffffffffffffffffffffffffffffffff169060200190929190505050610370565b005b34801561010e57600080fd5b506101176104ce565b604051808273ffffffffffffffffffffffffffffffffffffffff1673ffffffffffffffffffffffffffffffffffffffff16815260200191505060405180910390f35b34801561016557600080fd5b5061016e6104f8565b005b34801561017c57600080fd5b506101b1600480360381019080803573ffffffffffffffffffffffffffffffffffffffff1690602001909291905050506105d8565b005b3480156101bf57600080fd5b506101f4600480360381019080803573ffffffffffffffffffffffffffffffffffffffff1690602001909291905050506105f8565b604051808215151515815260200191505060405180910390f35b34801561021a57600080fd5b5061022361062a565b005b34801561023157600080fd5b5061023a61070b565b005b34801561024857600080fd5b506102516107c0565b6040518082600281111561026157fe5b60ff16815260200191505060405180910390f35b34801561028157600080fd5b5061028a6107d7565b604051808273ffffffffffffffffffffffffffffffffffffffff1673ffffffffffffffffffffffffffffffffffffffff16815260200191505060405180910390f35b3480156102d857600080fd5b506102e1610800565b005b3480156102ef57600080fd5b50610324600480360381019080803573ffffffffffffffffffffffffffffffffffffffff1690602001909291905050506108dd565b6040518082815260200191505060405180910390f35b61036e600480360381019080803573ffffffffffffffffffffffffffffffffffffffff169060200190929190505050610926565b005b6000809054906101000a900473ffffffffffffffffffffffffffffffffffffffff1673ffffffffffffffffffffffffffffffffffffffff163373ffffffffffffffffffffffffffffffffffffffff161415156103cb57600080fd5b600073ffffffffffffffffffffffffffffffffffffffff168173ffffffffffffffffffffffffffffffffffffffff161415151561040757600080fd5b806000806101000a81548173ffffffffffffffffffffffffffffffffffffffff021916908373ffffffffffffffffffffffffffffffffffffffff1602179055507f4101e71e974f68df5e9730cc223280b41654676bbb052cdcc735c3337e64d2d96000809054906101000a900473ffffffffffffffffffffffffffffffffffffffff16604051808273ffffffffffffffffffffffffffffffffffffffff1673ffffffffffffffffffffffffffffffffffffffff16815260200191505060405180910390a150565b6000600260019054906101000a900473ffffffffffffffffffffffffffffffffffffffff16905090565b6000809054906101000a900473ffffffffffffffffffffffffffffffffffffffff1673ffffffffffffffffffffffffffffffffffffffff163373ffffffffffffffffffffffffffffffffffffffff1614151561055357600080fd5b6000600281111561056057fe5b600260009054906101000a900460ff16600281111561057b57fe5b14151561058757600080fd5b60028060006101000a81548160ff021916908360028111156105a557fe5b02179055507f088672c3a6e342f7cd94a65ba63b79df24a8973927b4d05d803c44bbf787d12f60405160405180910390a1565b6105e1816105f8565b15156105ec57600080fd5b6105f581610966565b50565b60006001600281111561060757fe5b600260009054906101000a900460ff16600281111561062257fe5b149050919050565b6000809054906101000a900473ffffffffffffffffffffffffffffffffffffffff1673ffffffffffffffffffffffffffffffffffffffff163373ffffffffffffffffffffffffffffffffffffffff1614151561068557600080fd5b6000600281111561069257fe5b600260009054906101000a900460ff1660028111156106ad57fe5b1415156106b957600080fd5b6001600260006101000a81548160ff021916908360028111156106d857fe5b02179055507f599d8e5a83cffb867d051598c4d70e805d59802d8081c1c7d6dffc5b6aca2b8960405160405180910390a1565b60028081111561071757fe5b600260009054906101000a900460ff16600281111561073257fe5b14151561073e57600080fd5b600260019054906101000a900473ffffffffffffffffffffffffffffffffffffffff1673ffffffffffffffffffffffffffffffffffffffff166108fc3073ffffffffffffffffffffffffffffffffffffffff16319081150290604051600060405180830381858888f193505050501580156107bd573d6000803e3d6000fd5b50565b6000600260009054906101000a900460ff16905090565b60008060009054906101000a900473ffffffffffffffffffffffffffffffffffffffff16905090565b6000809054906101000a900473ffffffffffffffffffffffffffffffffffffffff1673ffffffffffffffffffffffffffffffffffffffff163373ffffffffffffffffffffffffffffffffffffffff1614151561085b57600080fd5b600260019054906101000a900473ffffffffffffffffffffffffffffffffffffffff1673ffffffffffffffffffffffffffffffffffffffff166108fc3073ffffffffffffffffffffffffffffffffffffffff16319081150290604051600060405180830381858888f193505050501580156108da573d6000803e3d6000fd5b50565b6000600160008373ffffffffffffffffffffffffffffffffffffffff1673ffffffffffffffffffffffffffffffffffffffff168152602001908152602001600020549050919050565b6000600281111561093357fe5b600260009054906101000a900460ff16600281111561094e57fe5b14151561095a57600080fd5b61096381610ae3565b50565b60008060009054906101000a900473ffffffffffffffffffffffffffffffffffffffff1673ffffffffffffffffffffffffffffffffffffffff163373ffffffffffffffffffffffffffffffffffffffff161415156109c357600080fd5b600160008373ffffffffffffffffffffffffffffffffffffffff1673ffffffffffffffffffffffffffffffffffffffff1681526020019081526020016000205490506000600160008473ffffffffffffffffffffffffffffffffffffffff1673ffffffffffffffffffffffffffffffffffffffff168152602001908152602001600020819055508173ffffffffffffffffffffffffffffffffffffffff166108fc829081150290604051600060405180830381858888f19350505050158015610a90573d6000803e3d6000fd5b508173ffffffffffffffffffffffffffffffffffffffff167f7084f5476618d8e60b11ef0d7d3f06914655adb8793e28ff7f018d4c76d505d5826040518082815260200191505060405180910390a25050565b60008060009054906101000a900473ffffffffffffffffffffffffffffffffffffffff1673ffffffffffffffffffffffffffffffffffffffff163373ffffffffffffffffffffffffffffffffffffffff16141515610b4057600080fd5b349050610b9581600160008573ffffffffffffffffffffffffffffffffffffffff1673ffffffffffffffffffffffffffffffffffffffff16815260200190815260200160002054610c2a90919063ffffffff16565b600160008473ffffffffffffffffffffffffffffffffffffffff1673ffffffffffffffffffffffffffffffffffffffff168152602001908152602001600020819055508173ffffffffffffffffffffffffffffffffffffffff167f2da466a7b24304f47e87fa2e1e5a81b9831ce54fec19055ce277ca2f39ba42c4826040518082815260200191505060405180910390a25050565b6000808284019050838110151515610c4157600080fd5b80915050929150505600a165627a7a723058207562612e8ee78d55e5d8a47b63af56850d18f8fb582bc50b3cc8bb8a23c4a5fe0029",
  "source": "pragma solidity ^0.4.24;\r\n\r\nimport \"../crowdsale/validation/CappedCrowdsale.sol\";\r\nimport \"../crowdsale/distribution/RefundableCrowdsale.sol\";\r\nimport \"../crowdsale/emission/MintedCrowdsale.sol\";\r\nimport \"../token/ERC20/ERC20Mintable.sol\";\r\nimport \"../token/ERC20/ERC20Detailed.sol\";\r\n\r\n/**\r\n * @title SampleCrowdsaleToken\r\n * @dev Very simple ERC20 Token that can be minted.\r\n * It is meant to be used in a crowdsale contract.\r\n */\r\ncontract SampleCrowdsaleToken is ERC20Mintable, ERC20Detailed {\r\n    constructor () public ERC20Detailed(\"Sample Crowdsale Token\", \"SCT\", 18) {}\r\n}\r\n\r\n/**\r\n * @title SampleCrowdsale\r\n * @dev This is an example of a fully fledged crowdsale.\r\n * The way to add new features to a base crowdsale is by multiple inheritance.\r\n * In this example we are providing following extensions:\r\n * CappedCrowdsale - sets a max boundary for raised funds\r\n * RefundableCrowdsale - set a min goal to be reached and returns funds if it's not met\r\n * MintedCrowdsale - assumes the token can be minted by the crowdsale, which does so\r\n * when receiving purchases.\r\n *\r\n * After adding multiple features it's good practice to run integration tests\r\n * to ensure that subcontracts works together as intended.\r\n */\r\n// XXX There doesn't seem to be a way to split this line that keeps solium\r\n// happy. See:\r\n// https://github.com/duaraghav8/Solium/issues/205\r\n// --elopio - 2018-05-10\r\n// solium-disable-next-line max-len\r\ncontract SampleCrowdsale is CappedCrowdsale, RefundableCrowdsale, MintedCrowdsale {\r\n    constructor (\r\n        uint256 openingTime,\r\n        uint256 closingTime,\r\n        uint256 rate,\r\n        address wallet,\r\n        uint256 cap,\r\n        ERC20Mintable token,\r\n        uint256 goal\r\n    )\r\n        public\r\n        Crowdsale(rate, wallet, token)\r\n        CappedCrowdsale(cap)\r\n        TimedCrowdsale(openingTime, closingTime)\r\n        RefundableCrowdsale(goal)\r\n    {\r\n        //As goal needs to be met for a successful crowdsale\r\n        //the value needs to less or equal than a cap which is limit for accepted funds\r\n        require(goal <= cap);\r\n    }\r\n}\r\n",
  "sourcePath": "D:\\dev\\uae\\contracts\\open-zeppelin-contracts\\examples\\SampleCrowdsale.sol",
  "compiler": {
    "name": "solc",
    "version": "0.4.25+commit.59dbf8f1.Emscripten.clang"
  },
  "schemaVersion": "2.0.2",
  "updatedAt": "2019-01-28T14:35:46.052Z"
}