{
  "contractName": "SignatureBouncerMock",
  "abi": [
    {
      "constant": false,
      "inputs": [
        {
          "name": "account",
          "type": "address"
        }
      ],
      "name": "removeSigner",
      "outputs": [],
      "payable": false,
      "stateMutability": "nonpayable",
      "type": "function"
    },
    {
      "constant": true,
      "inputs": [
        {
          "name": "account",
          "type": "address"
        }
      ],
      "name": "isSigner",
      "outputs": [
        {
          "name": "",
          "type": "bool"
        }
      ],
      "payable": false,
      "stateMutability": "view",
      "type": "function"
    },
    {
      "constant": true,
      "inputs": [],
      "name": "onlySignerMock",
      "outputs": [],
      "payable": false,
      "stateMutability": "view",
      "type": "function"
    },
    {
      "constant": false,
      "inputs": [],
      "name": "renounceSigner",
      "outputs": [],
      "payable": false,
      "stateMutability": "nonpayable",
      "type": "function"
    },
    {
      "constant": false,
      "inputs": [
        {
          "name": "account",
          "type": "address"
        }
      ],
      "name": "addSigner",
      "outputs": [],
      "payable": false,
      "stateMutability": "nonpayable",
      "type": "function"
    },
    {
      "anonymous": false,
      "inputs": [
        {
          "indexed": true,
          "name": "account",
          "type": "address"
        }
      ],
      "name": "SignerAdded",
      "type": "event"
    },
    {
      "anonymous": false,
      "inputs": [
        {
          "indexed": true,
          "name": "account",
          "type": "address"
        }
      ],
      "name": "SignerRemoved",
      "type": "event"
    },
    {
      "constant": true,
      "inputs": [
        {
          "name": "account",
          "type": "address"
        },
        {
          "name": "signature",
          "type": "bytes"
        }
      ],
      "name": "checkValidSignature",
      "outputs": [
        {
          "name": "",
          "type": "bool"
        }
      ],
      "payable": false,
      "stateMutability": "view",
      "type": "function"
    },
    {
      "constant": true,
      "inputs": [
        {
          "name": "signature",
          "type": "bytes"
        }
      ],
      "name": "onlyWithValidSignature",
      "outputs": [],
      "payable": false,
      "stateMutability": "view",
      "type": "function"
    },
    {
      "constant": true,
      "inputs": [
        {
          "name": "account",
          "type": "address"
        },
        {
          "name": "signature",
          "type": "bytes"
        }
      ],
      "name": "checkValidSignatureAndMethod",
      "outputs": [
        {
          "name": "",
          "type": "bool"
        }
      ],
      "payable": false,
      "stateMutability": "view",
      "type": "function"
    },
    {
      "constant": true,
      "inputs": [
        {
          "name": "signature",
          "type": "bytes"
        }
      ],
      "name": "onlyWithValidSignatureAndMethod",
      "outputs": [],
      "payable": false,
      "stateMutability": "view",
      "type": "function"
    },
    {
      "constant": true,
      "inputs": [
        {
          "name": "account",
          "type": "address"
        },
        {
          "name": "",
          "type": "bytes"
        },
        {
          "name": "",
          "type": "uint256"
        },
        {
          "name": "signature",
          "type": "bytes"
        }
      ],
      "name": "checkValidSignatureAndData",
      "outputs": [
        {
          "name": "",
          "type": "bool"
        }
      ],
      "payable": false,
      "stateMutability": "view",
      "type": "function"
    },
    {
      "constant": true,
      "inputs": [
        {
          "name": "",
          "type": "uint256"
        },
        {
          "name": "signature",
          "type": "bytes"
        }
      ],
      "name": "onlyWithValidSignatureAndData",
      "outputs": [],
      "payable": false,
      "stateMutability": "view",
      "type": "function"
    },
    {
      "constant": true,
      "inputs": [
        {
          "name": "",
          "type": "bytes"
        }
      ],
      "name": "theWrongMethod",
      "outputs": [],
      "payable": false,
      "stateMutability": "pure",
      "type": "function"
    },
    {
      "constant": true,
      "inputs": [],
      "name": "tooShortMsgData",
      "outputs": [],
      "payable": false,
      "stateMutability": "view",
      "type": "function"
    }
  ],
  "bytecode": "0x608060405261001c33610021640100000000026401000000009004565b6101db565b61004281600061008864010000000002610ed7179091906401000000009004565b8073ffffffffffffffffffffffffffffffffffffffff167f47d1c22a25bb3a5d4e481b9b1e6944c2eade3181a0a20b495ed61d35b5323f2460405160405180910390a250565b600073ffffffffffffffffffffffffffffffffffffffff168173ffffffffffffffffffffffffffffffffffffffff16141515156100c457600080fd5b6100dd8282610147640100000000026401000000009004565b1515156100e957600080fd5b60018260000160008373ffffffffffffffffffffffffffffffffffffffff1673ffffffffffffffffffffffffffffffffffffffff16815260200190815260200160002060006101000a81548160ff0219169083151502179055505050565b60008073ffffffffffffffffffffffffffffffffffffffff168273ffffffffffffffffffffffffffffffffffffffff161415151561018457600080fd5b8260000160008373ffffffffffffffffffffffffffffffffffffffff1673ffffffffffffffffffffffffffffffffffffffff16815260200190815260200160002060009054906101000a900460ff16905092915050565b611215806101ea6000396000f3006080604052600436106100c5576000357c0100000000000000000000000000000000000000000000000000000000900463ffffffff1680630e316ab7146100ca5780636123f7ba1461010d57806368b51ac7146101765780636b802108146102175780636d5b9427146102b85780637df73e27146103215780638263ac0c1461037c578063997027e8146103e5578063b20bdb68146104d6578063b44e2ab914610549578063ca422c4314610560578063e5c8b03d14610577578063eb12d61e1461058e575b600080fd5b3480156100d657600080fd5b5061010b600480360381019080803573ffffffffffffffffffffffffffffffffffffffff1690602001909291905050506105d1565b005b34801561011957600080fd5b50610174600480360381019080803590602001908201803590602001908080601f01602080910402602001604051908101604052809392919081815260200183838082843782019150505050505091929192905050506105dd565b005b34801561018257600080fd5b506101fd600480360381019080803573ffffffffffffffffffffffffffffffffffffffff169060200190929190803590602001908201803590602001908080601f01602080910402602001604051908101604052809392919081815260200183838082843782019150505050505091929192905050506105f7565b604051808215151515815260200191505060405180910390f35b34801561022357600080fd5b5061029e600480360381019080803573ffffffffffffffffffffffffffffffffffffffff169060200190929190803590602001908201803590602001908080601f016020809104026020016040519081016040528093929190818152602001838380828437820191505050505050919291929050505061060b565b604051808215151515815260200191505060405180910390f35b3480156102c457600080fd5b5061031f600480360381019080803590602001908201803590602001908080601f016020809104026020016040519081016040528093929190818152602001838380828437820191505050505050919291929050505061061f565b005b34801561032d57600080fd5b50610362600480360381019080803573ffffffffffffffffffffffffffffffffffffffff169060200190929190505050610639565b604051808215151515815260200191505060405180910390f35b34801561038857600080fd5b506103e3600480360381019080803590602001908201803590602001908080601f0160208091040260200160405190810160405280939291908181526020018383808284378201915050505050509192919290505050610656565b005b3480156103f157600080fd5b506104bc600480360381019080803573ffffffffffffffffffffffffffffffffffffffff169060200190929190803590602001908201803590602001908080601f016020809104026020016040519081016040528093929190818152602001838380828437820191505050505050919291929080359060200190929190803590602001908201803590602001908080601f0160208091040260200160405190810160405280939291908181526020018383808284378201915050505050509192919290505050610659565b604051808215151515815260200191505060405180910390f35b3480156104e257600080fd5b5061054760048036038101908080359060200190929190803590602001908201803590602001908080601f016020809104026020016040519081016040528093929190818152602001838380828437820191505050505050919291929050505061066f565b005b34801561055557600080fd5b5061055e61068a565b005b34801561056c57600080fd5b506105756106a0565b005b34801561058357600080fd5b5061058c6106c9565b005b34801561059a57600080fd5b506105cf600480360381019080803573ffffffffffffffffffffffffffffffffffffffff1690602001909291905050506106d4565b005b6105da816106f4565b50565b806105e83382610700565b15156105f357600080fd5b5050565b60006106038383610978565b905092915050565b60006106178383610700565b905092915050565b8061062a3382610978565b151561063557600080fd5b5050565b600061064f826000610a8b90919063ffffffff16565b9050919050565b50565b60006106658583610b1f565b9050949350505050565b8061067a3382610b1f565b151561068557600080fd5b505050565b61069333610639565b151561069e57600080fd5b565b60206040519081016040528060008152506106bb3382610b1f565b15156106c657600080fd5b50565b6106d2336106f4565b565b6106dd33610639565b15156106e857600080fd5b6106f181610db0565b50565b6106fd81610e0a565b50565b60006060600060046040519080825280601f01601f19166020018201604052801561073a5781602001602082028038833980820191505090505b509150600090505b81518110156108105760003682818110151561075a57fe5b905001357f010000000000000000000000000000000000000000000000000000000000000090047f0100000000000000000000000000000000000000000000000000000000000000027effffffffffffffffffffffffffffffffffffffffffffffffffffffffffffff191682828151811015156107d357fe5b9060200101907effffffffffffffffffffffffffffffffffffffffffffffffffffffffffffff1916908160001a9053508080600101915050610742565b61096e308684604051602001808473ffffffffffffffffffffffffffffffffffffffff1673ffffffffffffffffffffffffffffffffffffffff166c010000000000000000000000000281526014018373ffffffffffffffffffffffffffffffffffffffff1673ffffffffffffffffffffffffffffffffffffffff166c0100000000000000000000000002815260140182805190602001908083835b6020831015156108d057805182526020820191506020810190506020830392506108ab565b6001836020036101000a03801982511681845116808217855250505050505090500193505050506040516020818303038152906040526040518082805190602001908083835b60208310151561093b5780518252602082019150602081019050602083039250610916565b6001836020036101000a038019825116818451168082178552505050505050905001915050604051809103902085610e64565b9250505092915050565b6000610a833084604051602001808373ffffffffffffffffffffffffffffffffffffffff1673ffffffffffffffffffffffffffffffffffffffff166c010000000000000000000000000281526014018273ffffffffffffffffffffffffffffffffffffffff1673ffffffffffffffffffffffffffffffffffffffff166c01000000000000000000000000028152601401925050506040516020818303038152906040526040518082805190602001908083835b602083101515610a505780518252602082019150602081019050602083039250610a2b565b6001836020036101000a038019825116818451168082178552505050505050905001915050604051809103902083610e64565b905092915050565b60008073ffffffffffffffffffffffffffffffffffffffff168273ffffffffffffffffffffffffffffffffffffffff1614151515610ac857600080fd5b8260000160008373ffffffffffffffffffffffffffffffffffffffff1673ffffffffffffffffffffffffffffffffffffffff16815260200190815260200160002060009054906101000a900460ff16905092915050565b60006060600060606000369050111515610b3857600080fd5b60606000369050036040519080825280601f01601f191660200182016040528015610b725781602001602082028038833980820191505090505b509150600090505b8151811015610c4857600036828181101515610b9257fe5b905001357f010000000000000000000000000000000000000000000000000000000000000090047f0100000000000000000000000000000000000000000000000000000000000000027effffffffffffffffffffffffffffffffffffffffffffffffffffffffffffff19168282815181101515610c0b57fe5b9060200101907effffffffffffffffffffffffffffffffffffffffffffffffffffffffffffff1916908160001a9053508080600101915050610b7a565b610da6308684604051602001808473ffffffffffffffffffffffffffffffffffffffff1673ffffffffffffffffffffffffffffffffffffffff166c010000000000000000000000000281526014018373ffffffffffffffffffffffffffffffffffffffff1673ffffffffffffffffffffffffffffffffffffffff166c0100000000000000000000000002815260140182805190602001908083835b602083101515610d085780518252602082019150602081019050602083039250610ce3565b6001836020036101000a03801982511681845116808217855250505050505090500193505050506040516020818303038152906040526040518082805190602001908083835b602083101515610d735780518252602082019150602081019050602083039250610d4e565b6001836020036101000a038019825116818451168082178552505050505050905001915050604051809103902085610e64565b9250505092915050565b610dc4816000610ed790919063ffffffff16565b8073ffffffffffffffffffffffffffffffffffffffff167f47d1c22a25bb3a5d4e481b9b1e6944c2eade3181a0a20b495ed61d35b5323f2460405160405180910390a250565b610e1e816000610f8790919063ffffffff16565b8073ffffffffffffffffffffffffffffffffffffffff167f3525e22824a8a7df2c9a6029941c824cf95b6447f1e13d5128fd3826d35afe8b60405160405180910390a250565b600080610e8a83610e788660001916611036565b600019166110f190919063ffffffff16565b9050600073ffffffffffffffffffffffffffffffffffffffff168173ffffffffffffffffffffffffffffffffffffffff1614158015610ece5750610ecd81610639565b5b91505092915050565b600073ffffffffffffffffffffffffffffffffffffffff168173ffffffffffffffffffffffffffffffffffffffff1614151515610f1357600080fd5b610f1d8282610a8b565b151515610f2957600080fd5b60018260000160008373ffffffffffffffffffffffffffffffffffffffff1673ffffffffffffffffffffffffffffffffffffffff16815260200190815260200160002060006101000a81548160ff0219169083151502179055505050565b600073ffffffffffffffffffffffffffffffffffffffff168173ffffffffffffffffffffffffffffffffffffffff1614151515610fc357600080fd5b610fcd8282610a8b565b1515610fd857600080fd5b60008260000160008373ffffffffffffffffffffffffffffffffffffffff1673ffffffffffffffffffffffffffffffffffffffff16815260200190815260200160002060006101000a81548160ff0219169083151502179055505050565b60008160405160200180807f19457468657265756d205369676e6564204d6573736167653a0a333200000000815250601c0182600019166000191681526020019150506040516020818303038152906040526040518082805190602001908083835b6020831015156110bd5780518252602082019150602081019050602083039250611098565b6001836020036101000a03801982511681845116808217855250505050505090500191505060405180910390209050919050565b6000806000806041855114151561110b57600093506111e0565b6020850151925060408501519150606085015160001a9050601b8160ff16101561113657601b810190505b601b8160ff161415801561114e5750601c8160ff1614155b1561115c57600093506111e0565b600186828585604051600081526020016040526040518085600019166000191681526020018460ff1660ff1681526020018360001916600019168152602001826000191660001916815260200194505050505060206040516020810390808403906000865af11580156111d3573d6000803e3d6000fd5b5050506020604051035193505b505050929150505600a165627a7a72305820afe76df83120b92d01e60023069b84397e4dc9b825e5b3e91814c8a5cf1858050029",
  "source": "pragma solidity ^0.4.24;\r\n\r\nimport \"../drafts/SignatureBouncer.sol\";\r\nimport \"./SignerRoleMock.sol\";\r\n\r\ncontract SignatureBouncerMock is SignatureBouncer, SignerRoleMock {\r\n    function checkValidSignature(address account, bytes signature) public view returns (bool) {\r\n        return _isValidSignature(account, signature);\r\n    }\r\n\r\n    function onlyWithValidSignature(bytes signature) public onlyValidSignature(signature) view {}\r\n\r\n    function checkValidSignatureAndMethod(address account, bytes signature) public view returns (bool) {\r\n        return _isValidSignatureAndMethod(account, signature);\r\n    }\r\n\r\n    function onlyWithValidSignatureAndMethod(bytes signature) public onlyValidSignatureAndMethod(signature) view {}\r\n\r\n    function checkValidSignatureAndData(address account, bytes, uint, bytes signature) public view returns (bool) {\r\n        return _isValidSignatureAndData(account, signature);\r\n    }\r\n\r\n    function onlyWithValidSignatureAndData(uint, bytes signature) public onlyValidSignatureAndData(signature) view {}\r\n\r\n    function theWrongMethod(bytes) public pure {}\r\n\r\n    function tooShortMsgData() public onlyValidSignatureAndData(\"\") view {}\r\n}\r\n",
  "sourcePath": "D:\\dev\\uae\\contracts\\open-zeppelin-contracts\\mocks\\SignatureBouncerMock.sol",
  "compiler": {
    "name": "solc",
    "version": "0.4.25+commit.59dbf8f1.Emscripten.clang"
  },
  "schemaVersion": "2.0.2",
  "updatedAt": "2019-01-30T13:00:36.576Z"
}