{
  "contractName": "StagedCrowdsale",
  "abi": [
    {
      "constant": true,
      "inputs": [],
      "name": "owner",
      "outputs": [
        {
          "name": "",
          "type": "address"
        }
      ],
      "payable": false,
      "stateMutability": "view",
      "type": "function"
    },
    {
      "constant": true,
      "inputs": [],
      "name": "totalPeriod",
      "outputs": [
        {
          "name": "",
          "type": "uint256"
        }
      ],
      "payable": false,
      "stateMutability": "view",
      "type": "function"
    },
    {
      "constant": true,
      "inputs": [
        {
          "name": "",
          "type": "uint256"
        }
      ],
      "name": "milestones",
      "outputs": [
        {
          "name": "period",
          "type": "uint256"
        },
        {
          "name": "bonus",
          "type": "uint256"
        }
      ],
      "payable": false,
      "stateMutability": "view",
      "type": "function"
    },
    {
      "constant": false,
      "inputs": [
        {
          "name": "newOwner",
          "type": "address"
        }
      ],
      "name": "transferOwnership",
      "outputs": [],
      "payable": false,
      "stateMutability": "nonpayable",
      "type": "function"
    },
    {
      "anonymous": false,
      "inputs": [
        {
          "indexed": true,
          "name": "previousOwner",
          "type": "address"
        },
        {
          "indexed": true,
          "name": "newOwner",
          "type": "address"
        }
      ],
      "name": "OwnershipTransferred",
      "type": "event"
    },
    {
      "constant": true,
      "inputs": [],
      "name": "milestonesCount",
      "outputs": [
        {
          "name": "",
          "type": "uint256"
        }
      ],
      "payable": false,
      "stateMutability": "view",
      "type": "function"
    },
    {
      "constant": false,
      "inputs": [
        {
          "name": "period",
          "type": "uint256"
        },
        {
          "name": "bonus",
          "type": "uint256"
        }
      ],
      "name": "addMilestone",
      "outputs": [],
      "payable": false,
      "stateMutability": "nonpayable",
      "type": "function"
    },
    {
      "constant": false,
      "inputs": [
        {
          "name": "number",
          "type": "uint8"
        }
      ],
      "name": "removeMilestone",
      "outputs": [],
      "payable": false,
      "stateMutability": "nonpayable",
      "type": "function"
    },
    {
      "constant": false,
      "inputs": [
        {
          "name": "number",
          "type": "uint8"
        },
        {
          "name": "period",
          "type": "uint256"
        },
        {
          "name": "bonus",
          "type": "uint256"
        }
      ],
      "name": "changeMilestone",
      "outputs": [],
      "payable": false,
      "stateMutability": "nonpayable",
      "type": "function"
    },
    {
      "constant": false,
      "inputs": [
        {
          "name": "numberAfter",
          "type": "uint8"
        },
        {
          "name": "period",
          "type": "uint256"
        },
        {
          "name": "bonus",
          "type": "uint256"
        }
      ],
      "name": "insertMilestone",
      "outputs": [],
      "payable": false,
      "stateMutability": "nonpayable",
      "type": "function"
    },
    {
      "constant": false,
      "inputs": [],
      "name": "clearMilestones",
      "outputs": [],
      "payable": false,
      "stateMutability": "nonpayable",
      "type": "function"
    },
    {
      "constant": true,
      "inputs": [
        {
          "name": "start",
          "type": "uint256"
        }
      ],
      "name": "lastSaleDate",
      "outputs": [
        {
          "name": "",
          "type": "uint256"
        }
      ],
      "payable": false,
      "stateMutability": "view",
      "type": "function"
    },
    {
      "constant": true,
      "inputs": [
        {
          "name": "start",
          "type": "uint256"
        }
      ],
      "name": "currentMilestone",
      "outputs": [
        {
          "name": "",
          "type": "uint256"
        }
      ],
      "payable": false,
      "stateMutability": "view",
      "type": "function"
    }
  ],
  "bytecode": "0x6080604052336000806101000a81548173ffffffffffffffffffffffffffffffffffffffff021916908373ffffffffffffffffffffffffffffffffffffffff160217905550610c62806100536000396000f3006080604052600436106100ba576000357c0100000000000000000000000000000000000000000000000000000000900463ffffffff1680634c94ac6a146100bf5780635601477b146100d65780636793c8e11461010d5780638da5cb5b1461014e5780639dc905bb146101a5578063aa525c55146101e9578063ab36e4a614610219578063bd17647f14610244578063ce14a46e14610288578063e89e4ed6146102b3578063f2fde38b146102fb578063fd83da091461033e575b600080fd5b3480156100cb57600080fd5b506100d461037f565b005b3480156100e257600080fd5b5061010b6004803603810190808035906020019092919080359060200190929190505050610467565b005b34801561011957600080fd5b5061013860048036038101908080359060200190929190505050610549565b6040518082815260200191505060405180910390f35b34801561015a57600080fd5b506101636105f9565b604051808273ffffffffffffffffffffffffffffffffffffffff1673ffffffffffffffffffffffffffffffffffffffff16815260200191505060405180910390f35b3480156101b157600080fd5b506101e7600480360381019080803560ff169060200190929190803590602001909291908035906020019092919050505061061e565b005b3480156101f557600080fd5b50610217600480360381019080803560ff16906020019092919050505061078e565b005b34801561022557600080fd5b5061022e610909565b6040518082815260200191505060405180910390f35b34801561025057600080fd5b50610286600480360381019080803560ff1690602001909291908035906020019092919080359060200190929190505050610916565b005b34801561029457600080fd5b5061029d6109fd565b6040518082815260200191505060405180910390f35b3480156102bf57600080fd5b506102de60048036038101908080359060200190929190505050610a03565b604051808381526020018281526020019250505060405180910390f35b34801561030757600080fd5b5061033c600480360381019080803573ffffffffffffffffffffffffffffffffffffffff169060200190929190505050610a36565b005b34801561034a57600080fd5b5061036960048036038101908080359060200190929190505050610b8b565b6040518082815260200191505060405180910390f35b60008060009054906101000a900473ffffffffffffffffffffffffffffffffffffffff1673ffffffffffffffffffffffffffffffffffffffff163373ffffffffffffffffffffffffffffffffffffffff161415156103dc57600080fd5b60006002805490501115156103f057600080fd5b600090505b60028054905081101561043f5760028181548110151561041157fe5b90600052602060002090600202016000808201600090556001820160009055505080806001019150506103f5565b60028054905060028181805490500391508161045b9190610bd5565b50600060018190555050565b6000809054906101000a900473ffffffffffffffffffffffffffffffffffffffff1673ffffffffffffffffffffffffffffffffffffffff163373ffffffffffffffffffffffffffffffffffffffff161415156104c257600080fd5b6000821115156104d157600080fd5b600260408051908101604052808481526020018381525090806001815401808255809150509060018203906000526020600020906002020160009091929091909150600082015181600001556020820151816001015550505061053f82600154610b9e90919063ffffffff16565b6001819055505050565b6000806000839150600090505b6002805490508110156105ed5781421015801561059957506201518060028281548110151561058157fe5b90600052602060002090600202016000015402820142105b156105a6578092506105f2565b6105de620151806002838154811015156105bc57fe5b9060005260206000209060020201600001540283610b9e90919063ffffffff16565b91508080600101915050610556565b600080fd5b5050919050565b6000809054906101000a900473ffffffffffffffffffffffffffffffffffffffff1681565b60008060009054906101000a900473ffffffffffffffffffffffffffffffffffffffff1673ffffffffffffffffffffffffffffffffffffffff163373ffffffffffffffffffffffffffffffffffffffff1614151561067b57600080fd5b6002805490508460ff1610151561069157600080fd5b6106a683600154610b9e90919063ffffffff16565b600181905550600280548091906001016106c09190610bd5565b50600280805490500390505b8360ff16811115610739576002818154811015156106e657fe5b906000526020600020906002020160026001830181548110151561070657fe5b906000526020600020906002020160008201548160000155600182015481600101559050508080600190039150506106cc565b60408051908101604052808481526020018381525060026001860160ff1681548110151561076357fe5b9060005260206000209060020201600082015181600001556020820151816001015590505050505050565b6000806000809054906101000a900473ffffffffffffffffffffffffffffffffffffffff1673ffffffffffffffffffffffffffffffffffffffff163373ffffffffffffffffffffffffffffffffffffffff161415156107ec57600080fd5b6002805490508360ff1610151561080257600080fd5b60028360ff1681548110151561081457fe5b9060005260206000209060020201915061083d8260000154600154610bbc90919063ffffffff16565b60018190555060028360ff1681548110151561085557fe5b9060005260206000209060020201600080820160009055600182016000905550508260ff1690505b6001600280549050038110156108ee5760026001820181548110151561089f57fe5b90600052602060002090600202016002828154811015156108bc57fe5b90600052602060002090600202016000820154816000015560018201548160010155905050808060010191505061087d565b60028054809190600190036109039190610bd5565b50505050565b6000600280549050905090565b60008060009054906101000a900473ffffffffffffffffffffffffffffffffffffffff1673ffffffffffffffffffffffffffffffffffffffff163373ffffffffffffffffffffffffffffffffffffffff1614151561097357600080fd5b6002805490508460ff1610151561098957600080fd5b60028460ff1681548110151561099b57fe5b906000526020600020906002020190506109c48160000154600154610bbc90919063ffffffff16565b6001819055508281600001819055508181600101819055506109f183600154610b9e90919063ffffffff16565b60018190555050505050565b60015481565b600281815481101515610a1257fe5b90600052602060002090600202016000915090508060000154908060010154905082565b6000809054906101000a900473ffffffffffffffffffffffffffffffffffffffff1673ffffffffffffffffffffffffffffffffffffffff163373ffffffffffffffffffffffffffffffffffffffff16141515610a9157600080fd5b600073ffffffffffffffffffffffffffffffffffffffff168173ffffffffffffffffffffffffffffffffffffffff1614151515610acd57600080fd5b8073ffffffffffffffffffffffffffffffffffffffff166000809054906101000a900473ffffffffffffffffffffffffffffffffffffffff1673ffffffffffffffffffffffffffffffffffffffff167f8be0079c531659141344cd1fd0a4f28419497f9722a3daafe3b4186f6b6457e060405160405180910390a3806000806101000a81548173ffffffffffffffffffffffffffffffffffffffff021916908373ffffffffffffffffffffffffffffffffffffffff16021790555050565b6000620151806001540282019050919050565b6000808284019050838110151515610bb257fe5b8091505092915050565b6000828211151515610bca57fe5b818303905092915050565b815481835581811115610c0257600202816002028360005260206000209182019101610c019190610c07565b5b505050565b610c3391905b80821115610c2f57600080820160009055600182016000905550600201610c0d565b5090565b905600a165627a7a7230582047f48cf8079a078099918fadffd5be8d6e8fc4f93c43f169f1cc6e9964cd61a60029",
  "source": "pragma solidity ^0.4.24;\r\n\r\nimport '../ownable/Ownable.sol';\r\nimport '../math/SafeMath.sol';\r\n\r\ncontract StagedCrowdsale is Ownable {\r\n\r\n  using SafeMath for uint;\r\n\r\n  struct Milestone {\r\n    uint period;\r\n    uint bonus;\r\n  }\r\n\r\n  uint public totalPeriod;\r\n\r\n  Milestone[] public milestones;\r\n\r\n  function milestonesCount() public view returns(uint) {\r\n    return milestones.length;\r\n  }\r\n\r\n  function addMilestone(uint period, uint bonus) public onlyOwner {\r\n    require(period > 0);\r\n    milestones.push(Milestone(period, bonus));\r\n    totalPeriod = totalPeriod.add(period);\r\n  }\r\n\r\n  function removeMilestone(uint8 number) public onlyOwner {\r\n    require(number < milestones.length);\r\n    Milestone storage milestone = milestones[number];\r\n    totalPeriod = totalPeriod.sub(milestone.period);\r\n\r\n    delete milestones[number];\r\n\r\n    for (uint i = number; i < milestones.length - 1; i++) {\r\n      milestones[i] = milestones[i+1];\r\n    }\r\n\r\n    milestones.length--;\r\n  }\r\n\r\n  function changeMilestone(uint8 number, uint period, uint bonus) public onlyOwner {\r\n    require(number < milestones.length);\r\n    Milestone storage milestone = milestones[number];\r\n\r\n    totalPeriod = totalPeriod.sub(milestone.period);\r\n\r\n    milestone.period = period;\r\n    milestone.bonus = bonus;\r\n\r\n    totalPeriod = totalPeriod.add(period);\r\n  }\r\n\r\n  function insertMilestone(uint8 numberAfter, uint period, uint bonus) public onlyOwner {\r\n    require(numberAfter < milestones.length);\r\n\r\n    totalPeriod = totalPeriod.add(period);\r\n\r\n    milestones.length++;\r\n\r\n    for (uint i = milestones.length - 2; i > numberAfter; i--) {\r\n      milestones[i + 1] = milestones[i];\r\n    }\r\n\r\n    milestones[numberAfter + 1] = Milestone(period, bonus);\r\n  }\r\n\r\n  function clearMilestones() public onlyOwner {\r\n    require(milestones.length > 0);\r\n    for (uint i = 0; i < milestones.length; i++) {\r\n      delete milestones[i];\r\n    }\r\n    milestones.length -= milestones.length;\r\n    totalPeriod = 0;\r\n  }\r\n\r\n  function lastSaleDate(uint start) public view returns(uint) {\r\n    return start + totalPeriod * 1 days;\r\n  }\r\n\r\n  function currentMilestone(uint start) public view returns(uint) {\r\n    uint previousDate = start;\r\n    for(uint i=0; i < milestones.length; i++) {\r\n      if(now >= previousDate && now < previousDate + milestones[i].period * 1 days) {\r\n        return i;\r\n      }\r\n      previousDate = previousDate.add(milestones[i].period * 1 days);\r\n    }\r\n    revert();\r\n  }\r\n}",
  "sourcePath": "D:\\dev\\uae\\contracts\\crowdsale\\StagedCrowdsale.sol",
  "compiler": {
    "name": "solc",
    "version": "0.4.25+commit.59dbf8f1.Emscripten.clang"
  },
  "schemaVersion": "2.0.2",
  "updatedAt": "2019-01-26T16:32:46.472Z"
}