{
  "contractName": "UAEToken",
  "abi": [
    {
      "constant": false,
      "inputs": [
        {
          "name": "spender",
          "type": "address"
        },
        {
          "name": "value",
          "type": "uint256"
        }
      ],
      "name": "approve",
      "outputs": [
        {
          "name": "",
          "type": "bool"
        }
      ],
      "payable": false,
      "stateMutability": "nonpayable",
      "type": "function"
    },
    {
      "constant": true,
      "inputs": [],
      "name": "totalSupply",
      "outputs": [
        {
          "name": "",
          "type": "uint256"
        }
      ],
      "payable": false,
      "stateMutability": "view",
      "type": "function"
    },
    {
      "constant": false,
      "inputs": [
        {
          "name": "from",
          "type": "address"
        },
        {
          "name": "to",
          "type": "address"
        },
        {
          "name": "value",
          "type": "uint256"
        }
      ],
      "name": "transferFrom",
      "outputs": [
        {
          "name": "",
          "type": "bool"
        }
      ],
      "payable": false,
      "stateMutability": "nonpayable",
      "type": "function"
    },
    {
      "constant": false,
      "inputs": [
        {
          "name": "spender",
          "type": "address"
        },
        {
          "name": "addedValue",
          "type": "uint256"
        }
      ],
      "name": "increaseAllowance",
      "outputs": [
        {
          "name": "success",
          "type": "bool"
        }
      ],
      "payable": false,
      "stateMutability": "nonpayable",
      "type": "function"
    },
    {
      "constant": false,
      "inputs": [],
      "name": "unpause",
      "outputs": [],
      "payable": false,
      "stateMutability": "nonpayable",
      "type": "function"
    },
    {
      "constant": false,
      "inputs": [
        {
          "name": "to",
          "type": "address"
        },
        {
          "name": "value",
          "type": "uint256"
        }
      ],
      "name": "mint",
      "outputs": [
        {
          "name": "",
          "type": "bool"
        }
      ],
      "payable": false,
      "stateMutability": "nonpayable",
      "type": "function"
    },
    {
      "constant": true,
      "inputs": [
        {
          "name": "account",
          "type": "address"
        }
      ],
      "name": "isPauser",
      "outputs": [
        {
          "name": "",
          "type": "bool"
        }
      ],
      "payable": false,
      "stateMutability": "view",
      "type": "function"
    },
    {
      "constant": true,
      "inputs": [],
      "name": "paused",
      "outputs": [
        {
          "name": "",
          "type": "bool"
        }
      ],
      "payable": false,
      "stateMutability": "view",
      "type": "function"
    },
    {
      "constant": false,
      "inputs": [],
      "name": "renouncePauser",
      "outputs": [],
      "payable": false,
      "stateMutability": "nonpayable",
      "type": "function"
    },
    {
      "constant": true,
      "inputs": [
        {
          "name": "owner",
          "type": "address"
        }
      ],
      "name": "balanceOf",
      "outputs": [
        {
          "name": "",
          "type": "uint256"
        }
      ],
      "payable": false,
      "stateMutability": "view",
      "type": "function"
    },
    {
      "constant": false,
      "inputs": [
        {
          "name": "account",
          "type": "address"
        }
      ],
      "name": "addPauser",
      "outputs": [],
      "payable": false,
      "stateMutability": "nonpayable",
      "type": "function"
    },
    {
      "constant": false,
      "inputs": [],
      "name": "pause",
      "outputs": [],
      "payable": false,
      "stateMutability": "nonpayable",
      "type": "function"
    },
    {
      "constant": false,
      "inputs": [
        {
          "name": "account",
          "type": "address"
        }
      ],
      "name": "addMinter",
      "outputs": [],
      "payable": false,
      "stateMutability": "nonpayable",
      "type": "function"
    },
    {
      "constant": false,
      "inputs": [],
      "name": "renounceMinter",
      "outputs": [],
      "payable": false,
      "stateMutability": "nonpayable",
      "type": "function"
    },
    {
      "constant": false,
      "inputs": [
        {
          "name": "spender",
          "type": "address"
        },
        {
          "name": "subtractedValue",
          "type": "uint256"
        }
      ],
      "name": "decreaseAllowance",
      "outputs": [
        {
          "name": "success",
          "type": "bool"
        }
      ],
      "payable": false,
      "stateMutability": "nonpayable",
      "type": "function"
    },
    {
      "constant": false,
      "inputs": [
        {
          "name": "to",
          "type": "address"
        },
        {
          "name": "value",
          "type": "uint256"
        }
      ],
      "name": "transfer",
      "outputs": [
        {
          "name": "",
          "type": "bool"
        }
      ],
      "payable": false,
      "stateMutability": "nonpayable",
      "type": "function"
    },
    {
      "constant": true,
      "inputs": [
        {
          "name": "account",
          "type": "address"
        }
      ],
      "name": "isMinter",
      "outputs": [
        {
          "name": "",
          "type": "bool"
        }
      ],
      "payable": false,
      "stateMutability": "view",
      "type": "function"
    },
    {
      "constant": true,
      "inputs": [
        {
          "name": "owner",
          "type": "address"
        },
        {
          "name": "spender",
          "type": "address"
        }
      ],
      "name": "allowance",
      "outputs": [
        {
          "name": "",
          "type": "uint256"
        }
      ],
      "payable": false,
      "stateMutability": "view",
      "type": "function"
    },
    {
      "inputs": [
        {
          "name": "name",
          "type": "string"
        },
        {
          "name": "symbol",
          "type": "string"
        },
        {
          "name": "decimals",
          "type": "uint8"
        },
        {
          "name": "initialSupply",
          "type": "uint256"
        },
        {
          "name": "tokenOwnerAddress",
          "type": "address"
        }
      ],
      "payable": true,
      "stateMutability": "payable",
      "type": "constructor"
    },
    {
      "anonymous": false,
      "inputs": [
        {
          "indexed": false,
          "name": "account",
          "type": "address"
        }
      ],
      "name": "Paused",
      "type": "event"
    },
    {
      "anonymous": false,
      "inputs": [
        {
          "indexed": false,
          "name": "account",
          "type": "address"
        }
      ],
      "name": "Unpaused",
      "type": "event"
    },
    {
      "anonymous": false,
      "inputs": [
        {
          "indexed": true,
          "name": "account",
          "type": "address"
        }
      ],
      "name": "PauserAdded",
      "type": "event"
    },
    {
      "anonymous": false,
      "inputs": [
        {
          "indexed": true,
          "name": "account",
          "type": "address"
        }
      ],
      "name": "PauserRemoved",
      "type": "event"
    },
    {
      "anonymous": false,
      "inputs": [
        {
          "indexed": true,
          "name": "account",
          "type": "address"
        }
      ],
      "name": "MinterAdded",
      "type": "event"
    },
    {
      "anonymous": false,
      "inputs": [
        {
          "indexed": true,
          "name": "account",
          "type": "address"
        }
      ],
      "name": "MinterRemoved",
      "type": "event"
    },
    {
      "anonymous": false,
      "inputs": [
        {
          "indexed": true,
          "name": "from",
          "type": "address"
        },
        {
          "indexed": true,
          "name": "to",
          "type": "address"
        },
        {
          "indexed": false,
          "name": "value",
          "type": "uint256"
        }
      ],
      "name": "Transfer",
      "type": "event"
    },
    {
      "anonymous": false,
      "inputs": [
        {
          "indexed": true,
          "name": "owner",
          "type": "address"
        },
        {
          "indexed": true,
          "name": "spender",
          "type": "address"
        },
        {
          "indexed": false,
          "name": "value",
          "type": "uint256"
        }
      ],
      "name": "Approval",
      "type": "event"
    },
    {
      "constant": true,
      "inputs": [],
      "name": "name",
      "outputs": [
        {
          "name": "",
          "type": "string"
        }
      ],
      "payable": false,
      "stateMutability": "view",
      "type": "function"
    },
    {
      "constant": true,
      "inputs": [],
      "name": "symbol",
      "outputs": [
        {
          "name": "",
          "type": "string"
        }
      ],
      "payable": false,
      "stateMutability": "view",
      "type": "function"
    },
    {
      "constant": true,
      "inputs": [],
      "name": "decimals",
      "outputs": [
        {
          "name": "",
          "type": "uint8"
        }
      ],
      "payable": false,
      "stateMutability": "view",
      "type": "function"
    }
  ],
  "bytecode": "0x60806040526040516200210c3803806200210c83398101806040528101908080518201929190602001805182019291906020018051906020019092919080519060200190929190805190602001909291905050506200006d3362000115640100000000026401000000009004565b62000087336200017f640100000000026401000000009004565b6000600560006101000a81548160ff0219169083151502179055508460069080519060200190620000ba929190620004c2565b508360079080519060200190620000d3929190620004c2565b5082600860006101000a81548160ff021916908360ff1602179055506200010a8183620001e9640100000000026401000000009004565b505050505062000571565b62000139816003620003486401000000000262001aaf179091906401000000009004565b8073ffffffffffffffffffffffffffffffffffffffff167f6ae172837ea30b801fbfcdd4108aa1d5bf8ff775444fd70256b44e6bf3dfc3f660405160405180910390a250565b620001a3816004620003486401000000000262001aaf179091906401000000009004565b8073ffffffffffffffffffffffffffffffffffffffff167f6719d08c1888103bea251a4ed56406bd0c3e69723c8a1686e017e7bbe159b6f860405160405180910390a250565b60008273ffffffffffffffffffffffffffffffffffffffff16141515156200021057600080fd5b62000235816002546200040b64010000000002620019df179091906401000000009004565b6002819055506200029c816000808573ffffffffffffffffffffffffffffffffffffffff1673ffffffffffffffffffffffffffffffffffffffff168152602001908152602001600020546200040b64010000000002620019df179091906401000000009004565b6000808473ffffffffffffffffffffffffffffffffffffffff1673ffffffffffffffffffffffffffffffffffffffff168152602001908152602001600020819055508173ffffffffffffffffffffffffffffffffffffffff16600073ffffffffffffffffffffffffffffffffffffffff167fddf252ad1be2c89b69c2b068fc378daa952ba7f163c4a11628f55a4df523b3ef836040518082815260200191505060405180910390a35050565b600073ffffffffffffffffffffffffffffffffffffffff168173ffffffffffffffffffffffffffffffffffffffff16141515156200038557600080fd5b620003a082826200042d640100000000026401000000009004565b151515620003ad57600080fd5b60018260000160008373ffffffffffffffffffffffffffffffffffffffff1673ffffffffffffffffffffffffffffffffffffffff16815260200190815260200160002060006101000a81548160ff0219169083151502179055505050565b60008082840190508381101515156200042357600080fd5b8091505092915050565b60008073ffffffffffffffffffffffffffffffffffffffff168273ffffffffffffffffffffffffffffffffffffffff16141515156200046b57600080fd5b8260000160008373ffffffffffffffffffffffffffffffffffffffff1673ffffffffffffffffffffffffffffffffffffffff16815260200190815260200160002060009054906101000a900460ff16905092915050565b828054600181600116156101000203166002900490600052602060002090601f016020900481019282601f106200050557805160ff191683800117855562000536565b8280016001018555821562000536579182015b828111156200053557825182559160200191906001019062000518565b5b50905062000545919062000549565b5090565b6200056e91905b808211156200056a57600081600090555060010162000550565b5090565b90565b611b8b80620005816000396000f30060806040526004361061011d576000357c0100000000000000000000000000000000000000000000000000000000900463ffffffff16806306fdde0314610122578063095ea7b3146101b257806318160ddd1461021757806323b872dd14610242578063313ce567146102c757806339509351146102f85780633f4ba83a1461035d57806340c10f191461037457806346fbf68e146103d95780635c975abb146104345780636ef8d66d1461046357806370a082311461047a57806382dc1ec4146104d15780638456cb591461051457806395d89b411461052b578063983b2d56146105bb57806398650275146105fe578063a457c2d714610615578063a9059cbb1461067a578063aa271e1a146106df578063dd62ed3e1461073a575b600080fd5b34801561012e57600080fd5b506101376107b1565b6040518080602001828103825283818151815260200191508051906020019080838360005b8381101561017757808201518184015260208101905061015c565b50505050905090810190601f1680156101a45780820380516001836020036101000a031916815260200191505b509250505060405180910390f35b3480156101be57600080fd5b506101fd600480360381019080803573ffffffffffffffffffffffffffffffffffffffff16906020019092919080359060200190929190505050610853565b604051808215151515815260200191505060405180910390f35b34801561022357600080fd5b5061022c610883565b6040518082815260200191505060405180910390f35b34801561024e57600080fd5b506102ad600480360381019080803573ffffffffffffffffffffffffffffffffffffffff169060200190929190803573ffffffffffffffffffffffffffffffffffffffff1690602001909291908035906020019092919050505061088d565b604051808215151515815260200191505060405180910390f35b3480156102d357600080fd5b506102dc6108bf565b604051808260ff1660ff16815260200191505060405180910390f35b34801561030457600080fd5b50610343600480360381019080803573ffffffffffffffffffffffffffffffffffffffff169060200190929190803590602001909291905050506108d6565b604051808215151515815260200191505060405180910390f35b34801561036957600080fd5b50610372610906565b005b34801561038057600080fd5b506103bf600480360381019080803573ffffffffffffffffffffffffffffffffffffffff169060200190929190803590602001909291905050506109b5565b604051808215151515815260200191505060405180910390f35b3480156103e557600080fd5b5061041a600480360381019080803573ffffffffffffffffffffffffffffffffffffffff1690602001909291905050506109df565b604051808215151515815260200191505060405180910390f35b34801561044057600080fd5b506104496109fc565b604051808215151515815260200191505060405180910390f35b34801561046f57600080fd5b50610478610a13565b005b34801561048657600080fd5b506104bb600480360381019080803573ffffffffffffffffffffffffffffffffffffffff169060200190929190505050610a1e565b6040518082815260200191505060405180910390f35b3480156104dd57600080fd5b50610512600480360381019080803573ffffffffffffffffffffffffffffffffffffffff169060200190929190505050610a66565b005b34801561052057600080fd5b50610529610a86565b005b34801561053757600080fd5b50610540610b36565b6040518080602001828103825283818151815260200191508051906020019080838360005b83811015610580578082015181840152602081019050610565565b50505050905090810190601f1680156105ad5780820380516001836020036101000a031916815260200191505b509250505060405180910390f35b3480156105c757600080fd5b506105fc600480360381019080803573ffffffffffffffffffffffffffffffffffffffff169060200190929190505050610bd8565b005b34801561060a57600080fd5b50610613610bf8565b005b34801561062157600080fd5b50610660600480360381019080803573ffffffffffffffffffffffffffffffffffffffff16906020019092919080359060200190929190505050610c03565b604051808215151515815260200191505060405180910390f35b34801561068657600080fd5b506106c5600480360381019080803573ffffffffffffffffffffffffffffffffffffffff16906020019092919080359060200190929190505050610c33565b604051808215151515815260200191505060405180910390f35b3480156106eb57600080fd5b50610720600480360381019080803573ffffffffffffffffffffffffffffffffffffffff169060200190929190505050610c63565b604051808215151515815260200191505060405180910390f35b34801561074657600080fd5b5061079b600480360381019080803573ffffffffffffffffffffffffffffffffffffffff169060200190929190803573ffffffffffffffffffffffffffffffffffffffff169060200190929190505050610c80565b6040518082815260200191505060405180910390f35b606060068054600181600116156101000203166002900480601f0160208091040260200160405190810160405280929190818152602001828054600181600116156101000203166002900480156108495780601f1061081e57610100808354040283529160200191610849565b820191906000526020600020905b81548152906001019060200180831161082c57829003601f168201915b5050505050905090565b6000600560009054906101000a900460ff1615151561087157600080fd5b61087b8383610d07565b905092915050565b6000600254905090565b6000600560009054906101000a900460ff161515156108ab57600080fd5b6108b6848484610e34565b90509392505050565b6000600860009054906101000a900460ff16905090565b6000600560009054906101000a900460ff161515156108f457600080fd5b6108fe8383610fe6565b905092915050565b61090f336109df565b151561091a57600080fd5b600560009054906101000a900460ff16151561093557600080fd5b6000600560006101000a81548160ff0219169083151502179055507f5db9ee0a495bf2e6ff9c91a7834c1ba4fdd244a5e8aa4e537bd38aeae4b073aa33604051808273ffffffffffffffffffffffffffffffffffffffff1673ffffffffffffffffffffffffffffffffffffffff16815260200191505060405180910390a1565b60006109c033610c63565b15156109cb57600080fd5b6109d5838361121d565b6001905092915050565b60006109f582600461135b90919063ffffffff16565b9050919050565b6000600560009054906101000a900460ff16905090565b610a1c336113ef565b565b60008060008373ffffffffffffffffffffffffffffffffffffffff1673ffffffffffffffffffffffffffffffffffffffff168152602001908152602001600020549050919050565b610a6f336109df565b1515610a7a57600080fd5b610a8381611449565b50565b610a8f336109df565b1515610a9a57600080fd5b600560009054906101000a900460ff16151515610ab657600080fd5b6001600560006101000a81548160ff0219169083151502179055507f62e78cea01bee320cd4e420270b5ea74000d11b0c9f74754ebdbfc544b05a25833604051808273ffffffffffffffffffffffffffffffffffffffff1673ffffffffffffffffffffffffffffffffffffffff16815260200191505060405180910390a1565b606060078054600181600116156101000203166002900480601f016020809104026020016040519081016040528092919081815260200182805460018160011615610100020316600290048015610bce5780601f10610ba357610100808354040283529160200191610bce565b820191906000526020600020905b815481529060010190602001808311610bb157829003601f168201915b5050505050905090565b610be133610c63565b1515610bec57600080fd5b610bf5816114a3565b50565b610c01336114fd565b565b6000600560009054906101000a900460ff16151515610c2157600080fd5b610c2b8383611557565b905092915050565b6000600560009054906101000a900460ff16151515610c5157600080fd5b610c5b838361178e565b905092915050565b6000610c7982600361135b90919063ffffffff16565b9050919050565b6000600160008473ffffffffffffffffffffffffffffffffffffffff1673ffffffffffffffffffffffffffffffffffffffff16815260200190815260200160002060008373ffffffffffffffffffffffffffffffffffffffff1673ffffffffffffffffffffffffffffffffffffffff16815260200190815260200160002054905092915050565b60008073ffffffffffffffffffffffffffffffffffffffff168373ffffffffffffffffffffffffffffffffffffffff1614151515610d4457600080fd5b81600160003373ffffffffffffffffffffffffffffffffffffffff1673ffffffffffffffffffffffffffffffffffffffff16815260200190815260200160002060008573ffffffffffffffffffffffffffffffffffffffff1673ffffffffffffffffffffffffffffffffffffffff168152602001908152602001600020819055508273ffffffffffffffffffffffffffffffffffffffff163373ffffffffffffffffffffffffffffffffffffffff167f8c5be1e5ebec7d5bd14f71427d1e84f3dd0314c0f7b2291e5b200ac8c7c3b925846040518082815260200191505060405180910390a36001905092915050565b6000600160008573ffffffffffffffffffffffffffffffffffffffff1673ffffffffffffffffffffffffffffffffffffffff16815260200190815260200160002060003373ffffffffffffffffffffffffffffffffffffffff1673ffffffffffffffffffffffffffffffffffffffff168152602001908152602001600020548211151515610ec157600080fd5b610f5082600160008773ffffffffffffffffffffffffffffffffffffffff1673ffffffffffffffffffffffffffffffffffffffff16815260200190815260200160002060003373ffffffffffffffffffffffffffffffffffffffff1673ffffffffffffffffffffffffffffffffffffffff168152602001908152602001600020546117a590919063ffffffff16565b600160008673ffffffffffffffffffffffffffffffffffffffff1673ffffffffffffffffffffffffffffffffffffffff16815260200190815260200160002060003373ffffffffffffffffffffffffffffffffffffffff1673ffffffffffffffffffffffffffffffffffffffff16815260200190815260200160002081905550610fdb8484846117c6565b600190509392505050565b60008073ffffffffffffffffffffffffffffffffffffffff168373ffffffffffffffffffffffffffffffffffffffff161415151561102357600080fd5b6110b282600160003373ffffffffffffffffffffffffffffffffffffffff1673ffffffffffffffffffffffffffffffffffffffff16815260200190815260200160002060008673ffffffffffffffffffffffffffffffffffffffff1673ffffffffffffffffffffffffffffffffffffffff168152602001908152602001600020546119df90919063ffffffff16565b600160003373ffffffffffffffffffffffffffffffffffffffff1673ffffffffffffffffffffffffffffffffffffffff16815260200190815260200160002060008573ffffffffffffffffffffffffffffffffffffffff1673ffffffffffffffffffffffffffffffffffffffff168152602001908152602001600020819055508273ffffffffffffffffffffffffffffffffffffffff163373ffffffffffffffffffffffffffffffffffffffff167f8c5be1e5ebec7d5bd14f71427d1e84f3dd0314c0f7b2291e5b200ac8c7c3b925600160003373ffffffffffffffffffffffffffffffffffffffff1673ffffffffffffffffffffffffffffffffffffffff16815260200190815260200160002060008773ffffffffffffffffffffffffffffffffffffffff1673ffffffffffffffffffffffffffffffffffffffff168152602001908152602001600020546040518082815260200191505060405180910390a36001905092915050565b60008273ffffffffffffffffffffffffffffffffffffffff161415151561124357600080fd5b611258816002546119df90919063ffffffff16565b6002819055506112af816000808573ffffffffffffffffffffffffffffffffffffffff1673ffffffffffffffffffffffffffffffffffffffff168152602001908152602001600020546119df90919063ffffffff16565b6000808473ffffffffffffffffffffffffffffffffffffffff1673ffffffffffffffffffffffffffffffffffffffff168152602001908152602001600020819055508173ffffffffffffffffffffffffffffffffffffffff16600073ffffffffffffffffffffffffffffffffffffffff167fddf252ad1be2c89b69c2b068fc378daa952ba7f163c4a11628f55a4df523b3ef836040518082815260200191505060405180910390a35050565b60008073ffffffffffffffffffffffffffffffffffffffff168273ffffffffffffffffffffffffffffffffffffffff161415151561139857600080fd5b8260000160008373ffffffffffffffffffffffffffffffffffffffff1673ffffffffffffffffffffffffffffffffffffffff16815260200190815260200160002060009054906101000a900460ff16905092915050565b611403816004611a0090919063ffffffff16565b8073ffffffffffffffffffffffffffffffffffffffff167fcd265ebaf09df2871cc7bd4133404a235ba12eff2041bb89d9c714a2621c7c7e60405160405180910390a250565b61145d816004611aaf90919063ffffffff16565b8073ffffffffffffffffffffffffffffffffffffffff167f6719d08c1888103bea251a4ed56406bd0c3e69723c8a1686e017e7bbe159b6f860405160405180910390a250565b6114b7816003611aaf90919063ffffffff16565b8073ffffffffffffffffffffffffffffffffffffffff167f6ae172837ea30b801fbfcdd4108aa1d5bf8ff775444fd70256b44e6bf3dfc3f660405160405180910390a250565b611511816003611a0090919063ffffffff16565b8073ffffffffffffffffffffffffffffffffffffffff167fe94479a9f7e1952cc78f2d6baab678adc1b772d936c6583def489e524cb6669260405160405180910390a250565b60008073ffffffffffffffffffffffffffffffffffffffff168373ffffffffffffffffffffffffffffffffffffffff161415151561159457600080fd5b61162382600160003373ffffffffffffffffffffffffffffffffffffffff1673ffffffffffffffffffffffffffffffffffffffff16815260200190815260200160002060008673ffffffffffffffffffffffffffffffffffffffff1673ffffffffffffffffffffffffffffffffffffffff168152602001908152602001600020546117a590919063ffffffff16565b600160003373ffffffffffffffffffffffffffffffffffffffff1673ffffffffffffffffffffffffffffffffffffffff16815260200190815260200160002060008573ffffffffffffffffffffffffffffffffffffffff1673ffffffffffffffffffffffffffffffffffffffff168152602001908152602001600020819055508273ffffffffffffffffffffffffffffffffffffffff163373ffffffffffffffffffffffffffffffffffffffff167f8c5be1e5ebec7d5bd14f71427d1e84f3dd0314c0f7b2291e5b200ac8c7c3b925600160003373ffffffffffffffffffffffffffffffffffffffff1673ffffffffffffffffffffffffffffffffffffffff16815260200190815260200160002060008773ffffffffffffffffffffffffffffffffffffffff1673ffffffffffffffffffffffffffffffffffffffff168152602001908152602001600020546040518082815260200191505060405180910390a36001905092915050565b600061179b3384846117c6565b6001905092915050565b6000808383111515156117b757600080fd5b82840390508091505092915050565b6000808473ffffffffffffffffffffffffffffffffffffffff1673ffffffffffffffffffffffffffffffffffffffff16815260200190815260200160002054811115151561181357600080fd5b600073ffffffffffffffffffffffffffffffffffffffff168273ffffffffffffffffffffffffffffffffffffffff161415151561184f57600080fd5b6118a0816000808673ffffffffffffffffffffffffffffffffffffffff1673ffffffffffffffffffffffffffffffffffffffff168152602001908152602001600020546117a590919063ffffffff16565b6000808573ffffffffffffffffffffffffffffffffffffffff1673ffffffffffffffffffffffffffffffffffffffff16815260200190815260200160002081905550611933816000808573ffffffffffffffffffffffffffffffffffffffff1673ffffffffffffffffffffffffffffffffffffffff168152602001908152602001600020546119df90919063ffffffff16565b6000808473ffffffffffffffffffffffffffffffffffffffff1673ffffffffffffffffffffffffffffffffffffffff168152602001908152602001600020819055508173ffffffffffffffffffffffffffffffffffffffff168373ffffffffffffffffffffffffffffffffffffffff167fddf252ad1be2c89b69c2b068fc378daa952ba7f163c4a11628f55a4df523b3ef836040518082815260200191505060405180910390a3505050565b60008082840190508381101515156119f657600080fd5b8091505092915050565b600073ffffffffffffffffffffffffffffffffffffffff168173ffffffffffffffffffffffffffffffffffffffff1614151515611a3c57600080fd5b611a46828261135b565b1515611a5157600080fd5b60008260000160008373ffffffffffffffffffffffffffffffffffffffff1673ffffffffffffffffffffffffffffffffffffffff16815260200190815260200160002060006101000a81548160ff0219169083151502179055505050565b600073ffffffffffffffffffffffffffffffffffffffff168173ffffffffffffffffffffffffffffffffffffffff1614151515611aeb57600080fd5b611af5828261135b565b151515611b0157600080fd5b60018260000160008373ffffffffffffffffffffffffffffffffffffffff1673ffffffffffffffffffffffffffffffffffffffff16815260200190815260200160002060006101000a81548160ff02191690831515021790555050505600a165627a7a72305820919a1acedbb784d5e0f88dda54801c743b19ced4d93bcf196073c212fc00fe100029",
  "source": "pragma solidity ^0.4.24;\n\nimport '../../node_modules/openzeppelin-solidity/contracts/token/ERC20/ERC20Mintable.sol';\nimport '../../node_modules/openzeppelin-solidity/contracts/token/ERC20/ERC20Pausable.sol';\n\n/**\n * @title UAEToken\n * @author TokenMint.io\n * @dev Mintable and pausable ERC20 token with optional functions implemented. \n * When token is paused, no one can transfer or approve tokens, but more tokens \n * can be minted by minter.\n * Minting can be used for multi-stage ICO where the current minter adds\n * a minter role to crowdsale contract. After all crowdfunding stages minter \n * should renounce his minter role.\n * For full specification of ERC-20 standard see:\n * https://github.com/ethereum/EIPs/blob/master/EIPS/eip-20.md\n */\ncontract UAEToken is ERC20Mintable, ERC20Pausable {\n\n    string private _name;\n    string private _symbol;\n    uint8 private _decimals;\n\n    constructor(string name, string symbol, uint8 decimals, uint256 initialSupply, address tokenOwnerAddress) public payable {\n      _name = name;\n      _symbol = symbol;\n      _decimals = decimals;\n\n      // set tokenOwnerAddress as owner of initial supply, more tokens can be minted later\n      _mint(tokenOwnerAddress, initialSupply);\n    }\n\n    // optional functions from ERC20 stardard\n\n    /**\n     * @return the name of the token.\n     */\n    function name() public view returns (string) {\n      return _name;\n    }\n\n    /**\n     * @return the symbol of the token.\n     */\n    function symbol() public view returns (string) {\n      return _symbol;\n    }\n\n    /**\n     * @return the number of decimals of the token.\n     */\n    function decimals() public view returns (uint8) {\n      return _decimals;\n    }\n}\n",
  "sourcePath": "D:\\dev\\uae\\contracts\\ERC20\\UAEToken.sol",
  "compiler": {
    "name": "solc",
    "version": "0.4.25+commit.59dbf8f1.Emscripten.clang"
  },
  "schemaVersion": "2.0.2",
  "updatedAt": "2019-01-29T16:38:31.436Z"
}