{
  "contractName": "ValueBonusFeature",
  "abi": [
    {
      "constant": false,
      "inputs": [
        {
          "name": "newPercentRate",
          "type": "uint256"
        }
      ],
      "name": "setPercentRate",
      "outputs": [],
      "payable": false,
      "stateMutability": "nonpayable",
      "type": "function"
    },
    {
      "constant": true,
      "inputs": [],
      "name": "percentRate",
      "outputs": [
        {
          "name": "",
          "type": "uint256"
        }
      ],
      "payable": false,
      "stateMutability": "view",
      "type": "function"
    },
    {
      "constant": true,
      "inputs": [],
      "name": "owner",
      "outputs": [
        {
          "name": "",
          "type": "address"
        }
      ],
      "payable": false,
      "stateMutability": "view",
      "type": "function"
    },
    {
      "constant": true,
      "inputs": [
        {
          "name": "",
          "type": "uint256"
        }
      ],
      "name": "valueBonuses",
      "outputs": [
        {
          "name": "from",
          "type": "uint256"
        },
        {
          "name": "bonus",
          "type": "uint256"
        }
      ],
      "payable": false,
      "stateMutability": "view",
      "type": "function"
    },
    {
      "constant": false,
      "inputs": [
        {
          "name": "newOwner",
          "type": "address"
        }
      ],
      "name": "transferOwnership",
      "outputs": [],
      "payable": false,
      "stateMutability": "nonpayable",
      "type": "function"
    },
    {
      "anonymous": false,
      "inputs": [
        {
          "indexed": true,
          "name": "previousOwner",
          "type": "address"
        },
        {
          "indexed": true,
          "name": "newOwner",
          "type": "address"
        }
      ],
      "name": "OwnershipTransferred",
      "type": "event"
    },
    {
      "constant": false,
      "inputs": [
        {
          "name": "from",
          "type": "uint256"
        },
        {
          "name": "bonus",
          "type": "uint256"
        }
      ],
      "name": "addValueBonus",
      "outputs": [],
      "payable": false,
      "stateMutability": "nonpayable",
      "type": "function"
    },
    {
      "constant": true,
      "inputs": [
        {
          "name": "tokens",
          "type": "uint256"
        },
        {
          "name": "_invested",
          "type": "uint256"
        }
      ],
      "name": "getValueBonusTokens",
      "outputs": [
        {
          "name": "",
          "type": "uint256"
        }
      ],
      "payable": false,
      "stateMutability": "view",
      "type": "function"
    },
    {
      "constant": true,
      "inputs": [
        {
          "name": "value",
          "type": "uint256"
        }
      ],
      "name": "getValueBonus",
      "outputs": [
        {
          "name": "",
          "type": "uint256"
        }
      ],
      "payable": false,
      "stateMutability": "view",
      "type": "function"
    }
  ],
  "bytecode": "0x60806040526064600155336000806101000a81548173ffffffffffffffffffffffffffffffffffffffff021916908373ffffffffffffffffffffffffffffffffffffffff1602179055506106be806100586000396000f30060806040526004361061008e576000357c0100000000000000000000000000000000000000000000000000000000900463ffffffff168063480b890d1461009357806354717ea9146100c05780638090114f1461010b5780638da5cb5b14610136578063af78facf1461018d578063b8a4db81146101d5578063cd7e31841461020c578063f2fde38b1461024d575b600080fd5b34801561009f57600080fd5b506100be60048036038101908080359060200190929190505050610290565b005b3480156100cc57600080fd5b506100f560048036038101908080359060200190929190803590602001909291905050506102f5565b6040518082815260200191505060405180910390f35b34801561011757600080fd5b50610120610346565b6040518082815260200191505060405180910390f35b34801561014257600080fd5b5061014b61034c565b604051808273ffffffffffffffffffffffffffffffffffffffff1673ffffffffffffffffffffffffffffffffffffffff16815260200191505060405180910390f35b34801561019957600080fd5b506101b860048036038101908080359060200190929190505050610371565b604051808381526020018281526020019250505060405180910390f35b3480156101e157600080fd5b5061020a60048036038101908080359060200190929190803590602001909291905050506103a4565b005b34801561021857600080fd5b506102376004803603810190808035906020019092919050505061045c565b6040518082815260200191505060405180910390f35b34801561025957600080fd5b5061028e600480360381019080803573ffffffffffffffffffffffffffffffffffffffff1690602001909291905050506104e7565b005b6000809054906101000a900473ffffffffffffffffffffffffffffffffffffffff1673ffffffffffffffffffffffffffffffffffffffff163373ffffffffffffffffffffffffffffffffffffffff161415156102eb57600080fd5b8060018190555050565b6000806103018361045c565b90506000811415610315576000915061033f565b61033c60015461032e838761063c90919063ffffffff16565b61067790919063ffffffff16565b91505b5092915050565b60015481565b6000809054906101000a900473ffffffffffffffffffffffffffffffffffffffff1681565b60028181548110151561038057fe5b90600052602060002090600202016000915090508060000154908060010154905082565b6000809054906101000a900473ffffffffffffffffffffffffffffffffffffffff1673ffffffffffffffffffffffffffffffffffffffff163373ffffffffffffffffffffffffffffffffffffffff161415156103ff57600080fd5b60026040805190810160405280848152602001838152509080600181540180825580915050906001820390600052602060002090600202016000909192909190915060008201518160000155602082015181600101555050505050565b6000806000809150600090505b6002805490508110156104dc5760028181548110151561048557fe5b906000526020600020906002020160000154841015156104c7576002818154811015156104ae57fe5b90600052602060002090600202016001015491506104cf565b8192506104e0565b8080600101915050610469565b8192505b5050919050565b6000809054906101000a900473ffffffffffffffffffffffffffffffffffffffff1673ffffffffffffffffffffffffffffffffffffffff163373ffffffffffffffffffffffffffffffffffffffff1614151561054257600080fd5b600073ffffffffffffffffffffffffffffffffffffffff168173ffffffffffffffffffffffffffffffffffffffff161415151561057e57600080fd5b8073ffffffffffffffffffffffffffffffffffffffff166000809054906101000a900473ffffffffffffffffffffffffffffffffffffffff1673ffffffffffffffffffffffffffffffffffffffff167f8be0079c531659141344cd1fd0a4f28419497f9722a3daafe3b4186f6b6457e060405160405180910390a3806000806101000a81548173ffffffffffffffffffffffffffffffffffffffff021916908373ffffffffffffffffffffffffffffffffffffffff16021790555050565b60008060008414156106515760009150610670565b828402905082848281151561066257fe5b0414151561066c57fe5b8091505b5092915050565b600080828481151561068557fe5b04905080915050929150505600a165627a7a72305820fb87a5e26cb4be2c95fd925545acc85c32128952139217a73e2c93b7008617720029",
  "source": "pragma solidity ^0.4.24;\r\n\r\nimport '../ownable/PercentRateProvider.sol';\r\nimport '../math/SafeMath.sol';\r\n\r\ncontract ValueBonusFeature is PercentRateProvider {\r\n\r\n  using SafeMath for uint;\r\n\r\n  struct ValueBonus {\r\n    uint from;\r\n    uint bonus;\r\n  }\r\n\r\n  ValueBonus[] public valueBonuses;\r\n\r\n  function addValueBonus(uint from, uint bonus) public onlyOwner {\r\n    valueBonuses.push(ValueBonus(from, bonus));\r\n  }\r\n\r\n  function getValueBonusTokens(uint tokens, uint _invested) public view returns(uint) {\r\n    uint valueBonus = getValueBonus(_invested);\r\n    if(valueBonus == 0) {\r\n      return 0;\r\n    }\r\n    return tokens.mul(valueBonus).div(percentRate);\r\n  }\r\n\r\n  function getValueBonus(uint value) public view returns(uint) {\r\n    uint bonus = 0;\r\n    for(uint i = 0; i < valueBonuses.length; i++) {\r\n      if(value >= valueBonuses[i].from) {\r\n        bonus = valueBonuses[i].bonus;\r\n      } else {\r\n        return bonus;\r\n      }\r\n    }\r\n    return bonus;\r\n  }\r\n}",
  "sourcePath": "D:\\dev\\uae\\contracts\\feature\\ValueBonusFeature.sol",
  "compiler": {
    "name": "solc",
    "version": "0.4.25+commit.59dbf8f1.Emscripten.clang"
  },
  "schemaVersion": "2.0.2",
  "updatedAt": "2019-01-26T16:32:46.467Z"
}